{
  "_format": "hh-sol-artifact-1",
  "contractName": "ERC20VotingToken",
  "sourceName": "contracts/ERC20VotingToken.sol",
  "abi": [
    {
      "inputs": [
        {
          "internalType": "string",
          "name": "name",
          "type": "string"
        },
        {
          "internalType": "string",
          "name": "symbol",
          "type": "string"
        }
      ],
      "stateMutability": "nonpayable",
      "type": "constructor"
    },
    {
      "inputs": [
        {
          "internalType": "address",
          "name": "spender",
          "type": "address"
        },
        {
          "internalType": "uint256",
          "name": "allowance",
          "type": "uint256"
        },
        {
          "internalType": "uint256",
          "name": "needed",
          "type": "uint256"
        }
      ],
      "name": "ERC20InsufficientAllowance",
      "type": "error"
    },
    {
      "inputs": [
        {
          "internalType": "address",
          "name": "sender",
          "type": "address"
        },
        {
          "internalType": "uint256",
          "name": "balance",
          "type": "uint256"
        },
        {
          "internalType": "uint256",
          "name": "needed",
          "type": "uint256"
        }
      ],
      "name": "ERC20InsufficientBalance",
      "type": "error"
    },
    {
      "inputs": [
        {
          "internalType": "address",
          "name": "approver",
          "type": "address"
        }
      ],
      "name": "ERC20InvalidApprover",
      "type": "error"
    },
    {
      "inputs": [
        {
          "internalType": "address",
          "name": "receiver",
          "type": "address"
        }
      ],
      "name": "ERC20InvalidReceiver",
      "type": "error"
    },
    {
      "inputs": [
        {
          "internalType": "address",
          "name": "sender",
          "type": "address"
        }
      ],
      "name": "ERC20InvalidSender",
      "type": "error"
    },
    {
      "inputs": [
        {
          "internalType": "address",
          "name": "spender",
          "type": "address"
        }
      ],
      "name": "ERC20InvalidSpender",
      "type": "error"
    },
    {
      "inputs": [
        {
          "internalType": "address",
          "name": "owner",
          "type": "address"
        }
      ],
      "name": "OwnableInvalidOwner",
      "type": "error"
    },
    {
      "inputs": [
        {
          "internalType": "address",
          "name": "account",
          "type": "address"
        }
      ],
      "name": "OwnableUnauthorizedAccount",
      "type": "error"
    },
    {
      "inputs": [],
      "name": "UnauthorizedAccount",
      "type": "error"
    },
    {
      "anonymous": false,
      "inputs": [
        {
          "indexed": true,
          "internalType": "address",
          "name": "owner",
          "type": "address"
        },
        {
          "indexed": true,
          "internalType": "address",
          "name": "spender",
          "type": "address"
        },
        {
          "indexed": false,
          "internalType": "uint256",
          "name": "value",
          "type": "uint256"
        }
      ],
      "name": "Approval",
      "type": "event"
    },
    {
      "anonymous": false,
      "inputs": [
        {
          "indexed": true,
          "internalType": "address",
          "name": "previousOwner",
          "type": "address"
        },
        {
          "indexed": true,
          "internalType": "address",
          "name": "newOwner",
          "type": "address"
        }
      ],
      "name": "OwnershipTransferred",
      "type": "event"
    },
    {
      "anonymous": false,
      "inputs": [
        {
          "indexed": true,
          "internalType": "address",
          "name": "from",
          "type": "address"
        },
        {
          "indexed": true,
          "internalType": "address",
          "name": "to",
          "type": "address"
        },
        {
          "indexed": false,
          "internalType": "uint256",
          "name": "value",
          "type": "uint256"
        }
      ],
      "name": "Transfer",
      "type": "event"
    },
    {
      "inputs": [
        {
          "internalType": "address",
          "name": "owner",
          "type": "address"
        },
        {
          "internalType": "address",
          "name": "spender",
          "type": "address"
        }
      ],
      "name": "allowance",
      "outputs": [
        {
          "internalType": "uint256",
          "name": "",
          "type": "uint256"
        }
      ],
      "stateMutability": "view",
      "type": "function"
    },
    {
      "inputs": [
        {
          "internalType": "address",
          "name": "spender",
          "type": "address"
        },
        {
          "internalType": "uint256",
          "name": "value",
          "type": "uint256"
        }
      ],
      "name": "approve",
      "outputs": [
        {
          "internalType": "bool",
          "name": "",
          "type": "bool"
        }
      ],
      "stateMutability": "nonpayable",
      "type": "function"
    },
    {
      "inputs": [
        {
          "internalType": "address",
          "name": "account",
          "type": "address"
        }
      ],
      "name": "balanceOf",
      "outputs": [
        {
          "internalType": "uint256",
          "name": "",
          "type": "uint256"
        }
      ],
      "stateMutability": "view",
      "type": "function"
    },
    {
      "inputs": [
        {
          "internalType": "address",
          "name": "from",
          "type": "address"
        },
        {
          "internalType": "uint256",
          "name": "amount",
          "type": "uint256"
        }
      ],
      "name": "burn",
      "outputs": [],
      "stateMutability": "nonpayable",
      "type": "function"
    },
    {
      "inputs": [],
      "name": "decimals",
      "outputs": [
        {
          "internalType": "uint8",
          "name": "",
          "type": "uint8"
        }
      ],
      "stateMutability": "view",
      "type": "function"
    },
    {
      "inputs": [],
      "name": "marketplaceAddress",
      "outputs": [
        {
          "internalType": "address",
          "name": "",
          "type": "address"
        }
      ],
      "stateMutability": "view",
      "type": "function"
    },
    {
      "inputs": [
        {
          "internalType": "address",
          "name": "to",
          "type": "address"
        },
        {
          "internalType": "uint256",
          "name": "amount",
          "type": "uint256"
        }
      ],
      "name": "mint",
      "outputs": [],
      "stateMutability": "nonpayable",
      "type": "function"
    },
    {
      "inputs": [],
      "name": "name",
      "outputs": [
        {
          "internalType": "string",
          "name": "",
          "type": "string"
        }
      ],
      "stateMutability": "view",
      "type": "function"
    },
    {
      "inputs": [],
      "name": "owner",
      "outputs": [
        {
          "internalType": "address",
          "name": "",
          "type": "address"
        }
      ],
      "stateMutability": "view",
      "type": "function"
    },
    {
      "inputs": [],
      "name": "renounceOwnership",
      "outputs": [],
      "stateMutability": "nonpayable",
      "type": "function"
    },
    {
      "inputs": [
        {
          "internalType": "address",
          "name": "_marketplaceAddress",
          "type": "address"
        }
      ],
      "name": "setMarketplaceAddress",
      "outputs": [],
      "stateMutability": "nonpayable",
      "type": "function"
    },
    {
      "inputs": [],
      "name": "symbol",
      "outputs": [
        {
          "internalType": "string",
          "name": "",
          "type": "string"
        }
      ],
      "stateMutability": "view",
      "type": "function"
    },
    {
      "inputs": [],
      "name": "totalSupply",
      "outputs": [
        {
          "internalType": "uint256",
          "name": "",
          "type": "uint256"
        }
      ],
      "stateMutability": "view",
      "type": "function"
    },
    {
      "inputs": [
        {
          "internalType": "address",
          "name": "to",
          "type": "address"
        },
        {
          "internalType": "uint256",
          "name": "value",
          "type": "uint256"
        }
      ],
      "name": "transfer",
      "outputs": [
        {
          "internalType": "bool",
          "name": "",
          "type": "bool"
        }
      ],
      "stateMutability": "nonpayable",
      "type": "function"
    },
    {
      "inputs": [
        {
          "internalType": "address",
          "name": "from",
          "type": "address"
        },
        {
          "internalType": "address",
          "name": "to",
          "type": "address"
        },
        {
          "internalType": "uint256",
          "name": "value",
          "type": "uint256"
        }
      ],
      "name": "transferFrom",
      "outputs": [
        {
          "internalType": "bool",
          "name": "",
          "type": "bool"
        }
      ],
      "stateMutability": "nonpayable",
      "type": "function"
    },
    {
      "inputs": [
        {
          "internalType": "address",
          "name": "newOwner",
          "type": "address"
        }
      ],
      "name": "transferOwnership",
      "outputs": [],
      "stateMutability": "nonpayable",
      "type": "function"
    }
  ],
  "bytecode": "0x60806040523480156200001157600080fd5b5060405162000d8f38038062000d8f8339810160408190526200003491620001b4565b3382826003620000458382620002af565b506004620000548282620002af565b5050506001600160a01b0381166200008657604051631e4fbdf760e01b81526000600482015260240160405180910390fd5b62000091816200009a565b5050506200037b565b600580546001600160a01b038381166001600160a01b0319831681179093556040519116919082907f8be0079c531659141344cd1fd0a4f28419497f9722a3daafe3b4186f6b6457e090600090a35050565b634e487b7160e01b600052604160045260246000fd5b600082601f8301126200011457600080fd5b81516001600160401b0380821115620001315762000131620000ec565b604051601f8301601f19908116603f011681019082821181831017156200015c576200015c620000ec565b81604052838152602092508660208588010111156200017a57600080fd5b600091505b838210156200019e57858201830151818301840152908201906200017f565b6000602085830101528094505050505092915050565b60008060408385031215620001c857600080fd5b82516001600160401b0380821115620001e057600080fd5b620001ee8683870162000102565b935060208501519150808211156200020557600080fd5b50620002148582860162000102565b9150509250929050565b600181811c908216806200023357607f821691505b6020821081036200025457634e487b7160e01b600052602260045260246000fd5b50919050565b601f821115620002aa576000816000526020600020601f850160051c81016020861015620002855750805b601f850160051c820191505b81811015620002a65782815560010162000291565b5050505b505050565b81516001600160401b03811115620002cb57620002cb620000ec565b620002e381620002dc84546200021e565b846200025a565b602080601f8311600181146200031b5760008415620003025750858301515b600019600386901b1c1916600185901b178555620002a6565b600085815260208120601f198616915b828110156200034c578886015182559484019460019091019084016200032b565b50858210156200036b5787850151600019600388901b60f8161c191681555b5050505050600190811b01905550565b610a04806200038b6000396000f3fe608060405234801561001057600080fd5b50600436106101005760003560e01c80638da5cb5b11610097578063b47cc55611610066578063b47cc55614610213578063daa17f4914610226578063dd62ed3e14610239578063f2fde38b1461027257600080fd5b80638da5cb5b146101c057806395d89b41146101e55780639dc29fac146101ed578063a9059cbb1461020057600080fd5b8063313ce567116100d3578063313ce5671461016b57806340c10f191461017a57806370a082311461018f578063715018a6146101b857600080fd5b806306fdde0314610105578063095ea7b31461012357806318160ddd1461014657806323b872dd14610158575b600080fd5b61010d610285565b60405161011a919061084d565b60405180910390f35b6101366101313660046108b8565b610317565b604051901515815260200161011a565b6002545b60405190815260200161011a565b6101366101663660046108e2565b610331565b6040516012815260200161011a565b61018d6101883660046108b8565b610355565b005b61014a61019d36600461091e565b6001600160a01b031660009081526020819052604090205490565b61018d610397565b6005546001600160a01b03165b6040516001600160a01b03909116815260200161011a565b61010d6103ab565b61018d6101fb3660046108b8565b6103ba565b61013661020e3660046108b8565b6103f8565b61018d61022136600461091e565b610406565b6006546101cd906001600160a01b031681565b61014a610247366004610940565b6001600160a01b03918216600090815260016020908152604080832093909416825291909152205490565b61018d61028036600461091e565b610430565b60606003805461029490610973565b80601f01602080910402602001604051908101604052809291908181526020018280546102c090610973565b801561030d5780601f106102e25761010080835404028352916020019161030d565b820191906000526020600020905b8154815290600101906020018083116102f057829003601f168201915b5050505050905090565b600033610325818585610473565b60019150505b92915050565b60003361033f858285610485565b61034a858585610504565b506001949350505050565b6006546001600160a01b0316336001600160a01b031614610389576040516354bff84560e11b815260040160405180910390fd5b6103938282610563565b5050565b61039f610599565b6103a960006105c6565b565b60606004805461029490610973565b6006546001600160a01b0316336001600160a01b0316146103ee576040516354bff84560e11b815260040160405180910390fd5b6103938282610618565b600033610325818585610504565b61040e610599565b600680546001600160a01b0319166001600160a01b0392909216919091179055565b610438610599565b6001600160a01b03811661046757604051631e4fbdf760e01b8152600060048201526024015b60405180910390fd5b610470816105c6565b50565b610480838383600161064e565b505050565b6001600160a01b038381166000908152600160209081526040808320938616835292905220546000198110156104fe57818110156104ef57604051637dc7a0d960e11b81526001600160a01b0384166004820152602481018290526044810183905260640161045e565b6104fe8484848403600061064e565b50505050565b6001600160a01b03831661052e57604051634b637e8f60e11b81526000600482015260240161045e565b6001600160a01b0382166105585760405163ec442f0560e01b81526000600482015260240161045e565b610480838383610723565b6001600160a01b03821661058d5760405163ec442f0560e01b81526000600482015260240161045e565b61039360008383610723565b6005546001600160a01b031633146103a95760405163118cdaa760e01b815233600482015260240161045e565b600580546001600160a01b038381166001600160a01b0319831681179093556040519116919082907f8be0079c531659141344cd1fd0a4f28419497f9722a3daafe3b4186f6b6457e090600090a35050565b6001600160a01b03821661064257604051634b637e8f60e11b81526000600482015260240161045e565b61039382600083610723565b6001600160a01b0384166106785760405163e602df0560e01b81526000600482015260240161045e565b6001600160a01b0383166106a257604051634a1406b160e11b81526000600482015260240161045e565b6001600160a01b03808516600090815260016020908152604080832093871683529290522082905580156104fe57826001600160a01b0316846001600160a01b03167f8c5be1e5ebec7d5bd14f71427d1e84f3dd0314c0f7b2291e5b200ac8c7c3b9258460405161071591815260200190565b60405180910390a350505050565b6001600160a01b03831661074e57806002600082825461074391906109ad565b909155506107c09050565b6001600160a01b038316600090815260208190526040902054818110156107a15760405163391434e360e21b81526001600160a01b0385166004820152602481018290526044810183905260640161045e565b6001600160a01b03841660009081526020819052604090209082900390555b6001600160a01b0382166107dc576002805482900390556107fb565b6001600160a01b03821660009081526020819052604090208054820190555b816001600160a01b0316836001600160a01b03167fddf252ad1be2c89b69c2b068fc378daa952ba7f163c4a11628f55a4df523b3ef8360405161084091815260200190565b60405180910390a3505050565b60006020808352835180602085015260005b8181101561087b5785810183015185820160400152820161085f565b506000604082860101526040601f19601f8301168501019250505092915050565b80356001600160a01b03811681146108b357600080fd5b919050565b600080604083850312156108cb57600080fd5b6108d48361089c565b946020939093013593505050565b6000806000606084860312156108f757600080fd5b6109008461089c565b925061090e6020850161089c565b9150604084013590509250925092565b60006020828403121561093057600080fd5b6109398261089c565b9392505050565b6000806040838503121561095357600080fd5b61095c8361089c565b915061096a6020840161089c565b90509250929050565b600181811c9082168061098757607f821691505b6020821081036109a757634e487b7160e01b600052602260045260246000fd5b50919050565b8082018082111561032b57634e487b7160e01b600052601160045260246000fdfea2646970667358221220dcc1a83b3ed8848660f1cb2e316651664590feaf583446dc8e79d0909ddcac7864736f6c63430008180033",
  "linkReferences": {},
  "deployedLinkReferences": {}
}