{
  "_format": "hh-sol-artifact-1",
  "contractName": "NFTContract",
  "sourceName": "contracts/voting/NFTContract.sol",
  "abi": [
    {
      "inputs": [
        {
          "internalType": "address",
          "name": "initialOwner",
          "type": "address"
        }
      ],
      "stateMutability": "nonpayable",
      "type": "constructor"
    },
    {
      "inputs": [],
      "name": "ERC721EnumerableForbiddenBatchMint",
      "type": "error"
    },
    {
      "inputs": [
        {
          "internalType": "address",
          "name": "sender",
          "type": "address"
        },
        {
          "internalType": "uint256",
          "name": "tokenId",
          "type": "uint256"
        },
        {
          "internalType": "address",
          "name": "owner",
          "type": "address"
        }
      ],
      "name": "ERC721IncorrectOwner",
      "type": "error"
    },
    {
      "inputs": [
        {
          "internalType": "address",
          "name": "operator",
          "type": "address"
        },
        {
          "internalType": "uint256",
          "name": "tokenId",
          "type": "uint256"
        }
      ],
      "name": "ERC721InsufficientApproval",
      "type": "error"
    },
    {
      "inputs": [
        {
          "internalType": "address",
          "name": "approver",
          "type": "address"
        }
      ],
      "name": "ERC721InvalidApprover",
      "type": "error"
    },
    {
      "inputs": [
        {
          "internalType": "address",
          "name": "operator",
          "type": "address"
        }
      ],
      "name": "ERC721InvalidOperator",
      "type": "error"
    },
    {
      "inputs": [
        {
          "internalType": "address",
          "name": "owner",
          "type": "address"
        }
      ],
      "name": "ERC721InvalidOwner",
      "type": "error"
    },
    {
      "inputs": [
        {
          "internalType": "address",
          "name": "receiver",
          "type": "address"
        }
      ],
      "name": "ERC721InvalidReceiver",
      "type": "error"
    },
    {
      "inputs": [
        {
          "internalType": "address",
          "name": "sender",
          "type": "address"
        }
      ],
      "name": "ERC721InvalidSender",
      "type": "error"
    },
    {
      "inputs": [
        {
          "internalType": "uint256",
          "name": "tokenId",
          "type": "uint256"
        }
      ],
      "name": "ERC721NonexistentToken",
      "type": "error"
    },
    {
      "inputs": [
        {
          "internalType": "address",
          "name": "owner",
          "type": "address"
        },
        {
          "internalType": "uint256",
          "name": "index",
          "type": "uint256"
        }
      ],
      "name": "ERC721OutOfBoundsIndex",
      "type": "error"
    },
    {
      "inputs": [
        {
          "internalType": "address",
          "name": "owner",
          "type": "address"
        }
      ],
      "name": "OwnableInvalidOwner",
      "type": "error"
    },
    {
      "inputs": [
        {
          "internalType": "address",
          "name": "account",
          "type": "address"
        }
      ],
      "name": "OwnableUnauthorizedAccount",
      "type": "error"
    },
    {
      "anonymous": false,
      "inputs": [
        {
          "indexed": true,
          "internalType": "address",
          "name": "owner",
          "type": "address"
        },
        {
          "indexed": true,
          "internalType": "address",
          "name": "approved",
          "type": "address"
        },
        {
          "indexed": true,
          "internalType": "uint256",
          "name": "tokenId",
          "type": "uint256"
        }
      ],
      "name": "Approval",
      "type": "event"
    },
    {
      "anonymous": false,
      "inputs": [
        {
          "indexed": true,
          "internalType": "address",
          "name": "owner",
          "type": "address"
        },
        {
          "indexed": true,
          "internalType": "address",
          "name": "operator",
          "type": "address"
        },
        {
          "indexed": false,
          "internalType": "bool",
          "name": "approved",
          "type": "bool"
        }
      ],
      "name": "ApprovalForAll",
      "type": "event"
    },
    {
      "anonymous": false,
      "inputs": [
        {
          "indexed": true,
          "internalType": "address",
          "name": "previousOwner",
          "type": "address"
        },
        {
          "indexed": true,
          "internalType": "address",
          "name": "newOwner",
          "type": "address"
        }
      ],
      "name": "OwnershipTransferred",
      "type": "event"
    },
    {
      "anonymous": false,
      "inputs": [
        {
          "indexed": true,
          "internalType": "address",
          "name": "from",
          "type": "address"
        },
        {
          "indexed": true,
          "internalType": "address",
          "name": "to",
          "type": "address"
        },
        {
          "indexed": true,
          "internalType": "uint256",
          "name": "tokenId",
          "type": "uint256"
        }
      ],
      "name": "Transfer",
      "type": "event"
    },
    {
      "inputs": [
        {
          "internalType": "address",
          "name": "to",
          "type": "address"
        },
        {
          "internalType": "uint256",
          "name": "tokenId",
          "type": "uint256"
        }
      ],
      "name": "approve",
      "outputs": [],
      "stateMutability": "nonpayable",
      "type": "function"
    },
    {
      "inputs": [
        {
          "internalType": "address",
          "name": "owner",
          "type": "address"
        }
      ],
      "name": "balanceOf",
      "outputs": [
        {
          "internalType": "uint256",
          "name": "",
          "type": "uint256"
        }
      ],
      "stateMutability": "view",
      "type": "function"
    },
    {
      "inputs": [
        {
          "internalType": "address",
          "name": "from",
          "type": "address"
        }
      ],
      "name": "burn",
      "outputs": [],
      "stateMutability": "nonpayable",
      "type": "function"
    },
    {
      "inputs": [
        {
          "internalType": "uint256",
          "name": "tokenId",
          "type": "uint256"
        }
      ],
      "name": "buyToken",
      "outputs": [],
      "stateMutability": "payable",
      "type": "function"
    },
    {
      "inputs": [
        {
          "internalType": "uint256",
          "name": "tokenId",
          "type": "uint256"
        }
      ],
      "name": "cancelListing",
      "outputs": [],
      "stateMutability": "nonpayable",
      "type": "function"
    },
    {
      "inputs": [
        {
          "internalType": "uint256",
          "name": "tokenId",
          "type": "uint256"
        }
      ],
      "name": "getApproved",
      "outputs": [
        {
          "internalType": "address",
          "name": "",
          "type": "address"
        }
      ],
      "stateMutability": "view",
      "type": "function"
    },
    {
      "inputs": [
        {
          "internalType": "address",
          "name": "owner",
          "type": "address"
        },
        {
          "internalType": "address",
          "name": "operator",
          "type": "address"
        }
      ],
      "name": "isApprovedForAll",
      "outputs": [
        {
          "internalType": "bool",
          "name": "",
          "type": "bool"
        }
      ],
      "stateMutability": "view",
      "type": "function"
    },
    {
      "inputs": [
        {
          "internalType": "uint256",
          "name": "tokenId",
          "type": "uint256"
        }
      ],
      "name": "isListed",
      "outputs": [
        {
          "internalType": "bool",
          "name": "",
          "type": "bool"
        }
      ],
      "stateMutability": "view",
      "type": "function"
    },
    {
      "inputs": [
        {
          "internalType": "uint256",
          "name": "tokenId",
          "type": "uint256"
        },
        {
          "internalType": "uint256",
          "name": "price",
          "type": "uint256"
        }
      ],
      "name": "listToken",
      "outputs": [],
      "stateMutability": "nonpayable",
      "type": "function"
    },
    {
      "inputs": [
        {
          "internalType": "uint256",
          "name": "",
          "type": "uint256"
        }
      ],
      "name": "listings",
      "outputs": [
        {
          "internalType": "address",
          "name": "seller",
          "type": "address"
        },
        {
          "internalType": "uint256",
          "name": "price",
          "type": "uint256"
        }
      ],
      "stateMutability": "view",
      "type": "function"
    },
    {
      "inputs": [
        {
          "internalType": "address",
          "name": "to",
          "type": "address"
        }
      ],
      "name": "mint",
      "outputs": [],
      "stateMutability": "nonpayable",
      "type": "function"
    },
    {
      "inputs": [],
      "name": "name",
      "outputs": [
        {
          "internalType": "string",
          "name": "",
          "type": "string"
        }
      ],
      "stateMutability": "view",
      "type": "function"
    },
    {
      "inputs": [],
      "name": "nextTokenId",
      "outputs": [
        {
          "internalType": "uint256",
          "name": "",
          "type": "uint256"
        }
      ],
      "stateMutability": "view",
      "type": "function"
    },
    {
      "inputs": [],
      "name": "owner",
      "outputs": [
        {
          "internalType": "address",
          "name": "",
          "type": "address"
        }
      ],
      "stateMutability": "view",
      "type": "function"
    },
    {
      "inputs": [
        {
          "internalType": "uint256",
          "name": "tokenId",
          "type": "uint256"
        }
      ],
      "name": "ownerOf",
      "outputs": [
        {
          "internalType": "address",
          "name": "",
          "type": "address"
        }
      ],
      "stateMutability": "view",
      "type": "function"
    },
    {
      "inputs": [],
      "name": "renounceOwnership",
      "outputs": [],
      "stateMutability": "nonpayable",
      "type": "function"
    },
    {
      "inputs": [
        {
          "internalType": "address",
          "name": "from",
          "type": "address"
        },
        {
          "internalType": "address",
          "name": "to",
          "type": "address"
        },
        {
          "internalType": "uint256",
          "name": "tokenId",
          "type": "uint256"
        }
      ],
      "name": "safeTransferFrom",
      "outputs": [],
      "stateMutability": "nonpayable",
      "type": "function"
    },
    {
      "inputs": [
        {
          "internalType": "address",
          "name": "from",
          "type": "address"
        },
        {
          "internalType": "address",
          "name": "to",
          "type": "address"
        },
        {
          "internalType": "uint256",
          "name": "tokenId",
          "type": "uint256"
        },
        {
          "internalType": "bytes",
          "name": "data",
          "type": "bytes"
        }
      ],
      "name": "safeTransferFrom",
      "outputs": [],
      "stateMutability": "nonpayable",
      "type": "function"
    },
    {
      "inputs": [
        {
          "internalType": "address",
          "name": "operator",
          "type": "address"
        },
        {
          "internalType": "bool",
          "name": "approved",
          "type": "bool"
        }
      ],
      "name": "setApprovalForAll",
      "outputs": [],
      "stateMutability": "nonpayable",
      "type": "function"
    },
    {
      "inputs": [
        {
          "internalType": "bytes4",
          "name": "interfaceId",
          "type": "bytes4"
        }
      ],
      "name": "supportsInterface",
      "outputs": [
        {
          "internalType": "bool",
          "name": "",
          "type": "bool"
        }
      ],
      "stateMutability": "view",
      "type": "function"
    },
    {
      "inputs": [],
      "name": "symbol",
      "outputs": [
        {
          "internalType": "string",
          "name": "",
          "type": "string"
        }
      ],
      "stateMutability": "view",
      "type": "function"
    },
    {
      "inputs": [
        {
          "internalType": "uint256",
          "name": "index",
          "type": "uint256"
        }
      ],
      "name": "tokenByIndex",
      "outputs": [
        {
          "internalType": "uint256",
          "name": "",
          "type": "uint256"
        }
      ],
      "stateMutability": "view",
      "type": "function"
    },
    {
      "inputs": [
        {
          "internalType": "address",
          "name": "owner",
          "type": "address"
        },
        {
          "internalType": "uint256",
          "name": "index",
          "type": "uint256"
        }
      ],
      "name": "tokenOfOwnerByIndex",
      "outputs": [
        {
          "internalType": "uint256",
          "name": "",
          "type": "uint256"
        }
      ],
      "stateMutability": "view",
      "type": "function"
    },
    {
      "inputs": [
        {
          "internalType": "uint256",
          "name": "tokenId",
          "type": "uint256"
        }
      ],
      "name": "tokenURI",
      "outputs": [
        {
          "internalType": "string",
          "name": "",
          "type": "string"
        }
      ],
      "stateMutability": "view",
      "type": "function"
    },
    {
      "inputs": [],
      "name": "totalSupply",
      "outputs": [
        {
          "internalType": "uint256",
          "name": "",
          "type": "uint256"
        }
      ],
      "stateMutability": "view",
      "type": "function"
    },
    {
      "inputs": [
        {
          "internalType": "address",
          "name": "from",
          "type": "address"
        },
        {
          "internalType": "address",
          "name": "to",
          "type": "address"
        },
        {
          "internalType": "uint256",
          "name": "tokenId",
          "type": "uint256"
        }
      ],
      "name": "transferFrom",
      "outputs": [],
      "stateMutability": "nonpayable",
      "type": "function"
    },
    {
      "inputs": [
        {
          "internalType": "address",
          "name": "newOwner",
          "type": "address"
        }
      ],
      "name": "transferOwnership",
      "outputs": [],
      "stateMutability": "nonpayable",
      "type": "function"
    }
  ],
  "bytecode": "0x60806040523480156200001157600080fd5b5060405162003a3e38038062003a3e833981810160405281019062000037919062000288565b806040518060400160405280600981526020017f566f74696e674e465400000000000000000000000000000000000000000000008152506040518060400160405280600481526020017f564f5445000000000000000000000000000000000000000000000000000000008152508160009081620000b5919062000534565b508060019081620000c7919062000534565b505050600073ffffffffffffffffffffffffffffffffffffffff168173ffffffffffffffffffffffffffffffffffffffff16036200013f5760006040517f1e4fbdf70000000000000000000000000000000000000000000000000000000081526004016200013691906200062c565b60405180910390fd5b62000150816200015860201b60201c565b505062000649565b6000600a60009054906101000a900473ffffffffffffffffffffffffffffffffffffffff16905081600a60006101000a81548173ffffffffffffffffffffffffffffffffffffffff021916908373ffffffffffffffffffffffffffffffffffffffff1602179055508173ffffffffffffffffffffffffffffffffffffffff168173ffffffffffffffffffffffffffffffffffffffff167f8be0079c531659141344cd1fd0a4f28419497f9722a3daafe3b4186f6b6457e060405160405180910390a35050565b600080fd5b600073ffffffffffffffffffffffffffffffffffffffff82169050919050565b6000620002508262000223565b9050919050565b620002628162000243565b81146200026e57600080fd5b50565b600081519050620002828162000257565b92915050565b600060208284031215620002a157620002a06200021e565b5b6000620002b18482850162000271565b91505092915050565b600081519050919050565b7f4e487b7100000000000000000000000000000000000000000000000000000000600052604160045260246000fd5b7f4e487b7100000000000000000000000000000000000000000000000000000000600052602260045260246000fd5b600060028204905060018216806200033c57607f821691505b602082108103620003525762000351620002f4565b5b50919050565b60008190508160005260206000209050919050565b60006020601f8301049050919050565b600082821b905092915050565b600060088302620003bc7fffffffffffffffffffffffffffffffffffffffffffffffffffffffffffffffff826200037d565b620003c886836200037d565b95508019841693508086168417925050509392505050565b6000819050919050565b6000819050919050565b6000620004156200040f6200040984620003e0565b620003ea565b620003e0565b9050919050565b6000819050919050565b6200043183620003f4565b6200044962000440826200041c565b8484546200038a565b825550505050565b600090565b6200046062000451565b6200046d81848462000426565b505050565b5b8181101562000495576200048960008262000456565b60018101905062000473565b5050565b601f821115620004e457620004ae8162000358565b620004b9846200036d565b81016020851015620004c9578190505b620004e1620004d8856200036d565b83018262000472565b50505b505050565b600082821c905092915050565b60006200050960001984600802620004e9565b1980831691505092915050565b6000620005248383620004f6565b9150826002028217905092915050565b6200053f82620002ba565b67ffffffffffffffff8111156200055b576200055a620002c5565b5b62000567825462000323565b6200057482828562000499565b600060209050601f831160018114620005ac576000841562000597578287015190505b620005a3858262000516565b86555062000613565b601f198416620005bc8662000358565b60005b82811015620005e657848901518255600182019150602085019450602081019050620005bf565b8683101562000606578489015162000602601f891682620004f6565b8355505b6001600288020188555050505b505050505050565b620006268162000243565b82525050565b60006020820190506200064360008301846200061b565b92915050565b6133e580620006596000396000f3fe60806040526004361061019c5760003560e01c806370a08231116100ec578063a22cb4651161008a578063de74e57b11610064578063de74e57b146105c7578063e985e9c514610605578063f2fde38b14610642578063fcce48831461066b5761019c565b8063a22cb46514610538578063b88d4fde14610561578063c87b56dd1461058a5761019c565b806375c1631d116100c657806375c1631d1461049057806389afcb44146104b95780638da5cb5b146104e257806395d89b411461050d5761019c565b806370a0823114610411578063715018a61461044e57806375794a3c146104655761019c565b80632d296bf11161015957806342842e0e1161013357806342842e0e146103455780634f6ccce71461036e5780636352211e146103ab5780636a627842146103e85761019c565b80632d296bf1146102c35780632f745c59146102df578063305a67a81461031c5761019c565b806301ffc9a7146101a157806306fdde03146101de578063081812fc14610209578063095ea7b31461024657806318160ddd1461026f57806323b872dd1461029a575b600080fd5b3480156101ad57600080fd5b506101c860048036038101906101c3919061285e565b6106a8565b6040516101d591906128a6565b60405180910390f35b3480156101ea57600080fd5b506101f3610722565b6040516102009190612951565b60405180910390f35b34801561021557600080fd5b50610230600480360381019061022b91906129a9565b6107b4565b60405161023d9190612a17565b60405180910390f35b34801561025257600080fd5b5061026d60048036038101906102689190612a5e565b6107d0565b005b34801561027b57600080fd5b506102846107e6565b6040516102919190612aad565b60405180910390f35b3480156102a657600080fd5b506102c160048036038101906102bc9190612ac8565b6107f3565b005b6102dd60048036038101906102d891906129a9565b6108f5565b005b3480156102eb57600080fd5b5061030660048036038101906103019190612a5e565b610aa9565b6040516103139190612aad565b60405180910390f35b34801561032857600080fd5b50610343600480360381019061033e91906129a9565b610b52565b005b34801561035157600080fd5b5061036c60048036038101906103679190612ac8565b610c3e565b005b34801561037a57600080fd5b50610395600480360381019061039091906129a9565b610c5e565b6040516103a29190612aad565b60405180910390f35b3480156103b757600080fd5b506103d260048036038101906103cd91906129a9565b610cd4565b6040516103df9190612a17565b60405180910390f35b3480156103f457600080fd5b5061040f600480360381019061040a9190612b1b565b610ce6565b005b34801561041d57600080fd5b5061043860048036038101906104339190612b1b565b610d17565b6040516104459190612aad565b60405180910390f35b34801561045a57600080fd5b50610463610dd1565b005b34801561047157600080fd5b5061047a610de5565b6040516104879190612aad565b60405180910390f35b34801561049c57600080fd5b506104b760048036038101906104b29190612b48565b610deb565b005b3480156104c557600080fd5b506104e060048036038101906104db9190612b1b565b610f44565b005b3480156104ee57600080fd5b506104f7610fc6565b6040516105049190612a17565b60405180910390f35b34801561051957600080fd5b50610522610ff0565b60405161052f9190612951565b60405180910390f35b34801561054457600080fd5b5061055f600480360381019061055a9190612bb4565b611082565b005b34801561056d57600080fd5b5061058860048036038101906105839190612d29565b611098565b005b34801561059657600080fd5b506105b160048036038101906105ac91906129a9565b6110bd565b6040516105be9190612951565b60405180910390f35b3480156105d357600080fd5b506105ee60048036038101906105e991906129a9565b611126565b6040516105fc929190612dac565b60405180910390f35b34801561061157600080fd5b5061062c60048036038101906106279190612dd5565b61116a565b60405161063991906128a6565b60405180910390f35b34801561064e57600080fd5b5061066960048036038101906106649190612b1b565b6111fe565b005b34801561067757600080fd5b50610692600480360381019061068d91906129a9565b611284565b60405161069f91906128a6565b60405180910390f35b60007f780e9d63000000000000000000000000000000000000000000000000000000007bffffffffffffffffffffffffffffffffffffffffffffffffffffffff1916827bffffffffffffffffffffffffffffffffffffffffffffffffffffffff1916148061071b575061071a826112a6565b5b9050919050565b60606000805461073190612e44565b80601f016020809104026020016040519081016040528092919081815260200182805461075d90612e44565b80156107aa5780601f1061077f576101008083540402835291602001916107aa565b820191906000526020600020905b81548152906001019060200180831161078d57829003601f168201915b5050505050905090565b60006107bf82611388565b506107c982611410565b9050919050565b6107e282826107dd61144d565b611455565b5050565b6000600880549050905090565b600073ffffffffffffffffffffffffffffffffffffffff168273ffffffffffffffffffffffffffffffffffffffff16036108655760006040517f64a0ae9200000000000000000000000000000000000000000000000000000000815260040161085c9190612a17565b60405180910390fd5b6000610879838361087461144d565b611467565b90508373ffffffffffffffffffffffffffffffffffffffff168173ffffffffffffffffffffffffffffffffffffffff16146108ef578382826040517f64283d7b0000000000000000000000000000000000000000000000000000000081526004016108e693929190612e75565b60405180910390fd5b50505050565b6000600c60008381526020019081526020016000206040518060400160405290816000820160009054906101000a900473ffffffffffffffffffffffffffffffffffffffff1673ffffffffffffffffffffffffffffffffffffffff1673ffffffffffffffffffffffffffffffffffffffff168152602001600182015481525050905060008160200151116109be576040517f08c379a00000000000000000000000000000000000000000000000000000000081526004016109b590612ef8565b60405180910390fd5b80602001513414610a04576040517f08c379a00000000000000000000000000000000000000000000000000000000081526004016109fb90612f64565b60405180910390fd5b600081600001519050600c6000848152602001908152602001600020600080820160006101000a81549073ffffffffffffffffffffffffffffffffffffffff021916905560018201600090555050610a5d813385611584565b8073ffffffffffffffffffffffffffffffffffffffff166108fc349081150290604051600060405180830381858888f19350505050158015610aa3573d6000803e3d6000fd5b50505050565b6000610ab483610d17565b8210610af95782826040517fa57d13dc000000000000000000000000000000000000000000000000000000008152600401610af0929190612dac565b60405180910390fd5b600660008473ffffffffffffffffffffffffffffffffffffffff1673ffffffffffffffffffffffffffffffffffffffff168152602001908152602001600020600083815260200190815260200160002054905092915050565b3373ffffffffffffffffffffffffffffffffffffffff16600c600083815260200190815260200160002060000160009054906101000a900473ffffffffffffffffffffffffffffffffffffffff1673ffffffffffffffffffffffffffffffffffffffff1614610bf6576040517f08c379a0000000000000000000000000000000000000000000000000000000008152600401610bed90612fd0565b60405180910390fd5b600c6000828152602001908152602001600020600080820160006101000a81549073ffffffffffffffffffffffffffffffffffffffff02191690556001820160009055505050565b610c5983838360405180602001604052806000815250611098565b505050565b6000610c686107e6565b8210610cae576000826040517fa57d13dc000000000000000000000000000000000000000000000000000000008152600401610ca5929190612dac565b60405180910390fd5b60088281548110610cc257610cc1612ff0565b5b90600052602060002001549050919050565b6000610cdf82611388565b9050919050565b610cee6116f1565b6000600b6000815480929190610d039061304e565b919050559050610d138282611778565b5050565b60008073ffffffffffffffffffffffffffffffffffffffff168273ffffffffffffffffffffffffffffffffffffffff1603610d8a5760006040517f89c62b64000000000000000000000000000000000000000000000000000000008152600401610d819190612a17565b60405180910390fd5b600360008373ffffffffffffffffffffffffffffffffffffffff1673ffffffffffffffffffffffffffffffffffffffff168152602001908152602001600020549050919050565b610dd96116f1565b610de36000611796565b565b600b5481565b3373ffffffffffffffffffffffffffffffffffffffff16610e0b83610cd4565b73ffffffffffffffffffffffffffffffffffffffff1614610e61576040517f08c379a0000000000000000000000000000000000000000000000000000000008152600401610e58906130e2565b60405180910390fd5b60008111610ea4576040517f08c379a0000000000000000000000000000000000000000000000000000000008152600401610e9b9061314e565b60405180910390fd5b60405180604001604052803373ffffffffffffffffffffffffffffffffffffffff16815260200182815250600c600084815260200190815260200160002060008201518160000160006101000a81548173ffffffffffffffffffffffffffffffffffffffff021916908373ffffffffffffffffffffffffffffffffffffffff16021790555060208201518160010155905050610f4030836107d0565b5050565b610f4c6116f1565b6000610f5782610d17565b11610f97576040517f08c379a0000000000000000000000000000000000000000000000000000000008152600401610f8e906131ba565b60405180910390fd5b6000610fb7826001610fa885610d17565b610fb291906131da565b610aa9565b9050610fc28161185c565b5050565b6000600a60009054906101000a900473ffffffffffffffffffffffffffffffffffffffff16905090565b606060018054610fff90612e44565b80601f016020809104026020016040519081016040528092919081815260200182805461102b90612e44565b80156110785780601f1061104d57610100808354040283529160200191611078565b820191906000526020600020905b81548152906001019060200180831161105b57829003601f168201915b5050505050905090565b61109461108d61144d565b83836118e2565b5050565b6110a38484846107f3565b6110b76110ae61144d565b85858585611a51565b50505050565b60606110c882611388565b5060006110d3611c02565b905060008151116110f3576040518060200160405280600081525061111e565b806110fd84611c19565b60405160200161110e92919061324a565b6040516020818303038152906040525b915050919050565b600c6020528060005260406000206000915090508060000160009054906101000a900473ffffffffffffffffffffffffffffffffffffffff16908060010154905082565b6000600560008473ffffffffffffffffffffffffffffffffffffffff1673ffffffffffffffffffffffffffffffffffffffff16815260200190815260200160002060008373ffffffffffffffffffffffffffffffffffffffff1673ffffffffffffffffffffffffffffffffffffffff16815260200190815260200160002060009054906101000a900460ff16905092915050565b6112066116f1565b600073ffffffffffffffffffffffffffffffffffffffff168173ffffffffffffffffffffffffffffffffffffffff16036112785760006040517f1e4fbdf700000000000000000000000000000000000000000000000000000000815260040161126f9190612a17565b60405180910390fd5b61128181611796565b50565b600080600c600084815260200190815260200160002060010154119050919050565b60007f80ac58cd000000000000000000000000000000000000000000000000000000007bffffffffffffffffffffffffffffffffffffffffffffffffffffffff1916827bffffffffffffffffffffffffffffffffffffffffffffffffffffffff1916148061137157507f5b5e139f000000000000000000000000000000000000000000000000000000007bffffffffffffffffffffffffffffffffffffffffffffffffffffffff1916827bffffffffffffffffffffffffffffffffffffffffffffffffffffffff1916145b80611381575061138082611ce7565b5b9050919050565b60008061139483611d51565b9050600073ffffffffffffffffffffffffffffffffffffffff168173ffffffffffffffffffffffffffffffffffffffff160361140757826040517f7e2732890000000000000000000000000000000000000000000000000000000081526004016113fe9190612aad565b60405180910390fd5b80915050919050565b60006004600083815260200190815260200160002060009054906101000a900473ffffffffffffffffffffffffffffffffffffffff169050919050565b600033905090565b6114628383836001611d8e565b505050565b600080611475858585611f53565b9050600073ffffffffffffffffffffffffffffffffffffffff168173ffffffffffffffffffffffffffffffffffffffff16036114b9576114b48461216d565b6114f8565b8473ffffffffffffffffffffffffffffffffffffffff168173ffffffffffffffffffffffffffffffffffffffff16146114f7576114f681856121b6565b5b5b600073ffffffffffffffffffffffffffffffffffffffff168573ffffffffffffffffffffffffffffffffffffffff160361153a57611535846122a1565b611579565b8473ffffffffffffffffffffffffffffffffffffffff168173ffffffffffffffffffffffffffffffffffffffff1614611578576115778585612372565b5b5b809150509392505050565b600073ffffffffffffffffffffffffffffffffffffffff168273ffffffffffffffffffffffffffffffffffffffff16036115f65760006040517f64a0ae920000000000000000000000000000000000000000000000000000000081526004016115ed9190612a17565b60405180910390fd5b600061160483836000611467565b9050600073ffffffffffffffffffffffffffffffffffffffff168173ffffffffffffffffffffffffffffffffffffffff160361167757816040517f7e27328900000000000000000000000000000000000000000000000000000000815260040161166e9190612aad565b60405180910390fd5b8373ffffffffffffffffffffffffffffffffffffffff168173ffffffffffffffffffffffffffffffffffffffff16146116eb578382826040517f64283d7b0000000000000000000000000000000000000000000000000000000081526004016116e293929190612e75565b60405180910390fd5b50505050565b6116f961144d565b73ffffffffffffffffffffffffffffffffffffffff16611717610fc6565b73ffffffffffffffffffffffffffffffffffffffff16146117765761173a61144d565b6040517f118cdaa700000000000000000000000000000000000000000000000000000000815260040161176d9190612a17565b60405180910390fd5b565b6117928282604051806020016040528060008152506123fd565b5050565b6000600a60009054906101000a900473ffffffffffffffffffffffffffffffffffffffff16905081600a60006101000a81548173ffffffffffffffffffffffffffffffffffffffff021916908373ffffffffffffffffffffffffffffffffffffffff1602179055508173ffffffffffffffffffffffffffffffffffffffff168173ffffffffffffffffffffffffffffffffffffffff167f8be0079c531659141344cd1fd0a4f28419497f9722a3daafe3b4186f6b6457e060405160405180910390a35050565b600061186b6000836000611467565b9050600073ffffffffffffffffffffffffffffffffffffffff168173ffffffffffffffffffffffffffffffffffffffff16036118de57816040517f7e2732890000000000000000000000000000000000000000000000000000000081526004016118d59190612aad565b60405180910390fd5b5050565b600073ffffffffffffffffffffffffffffffffffffffff168273ffffffffffffffffffffffffffffffffffffffff160361195357816040517f5b08ba1800000000000000000000000000000000000000000000000000000000815260040161194a9190612a17565b60405180910390fd5b80600560008573ffffffffffffffffffffffffffffffffffffffff1673ffffffffffffffffffffffffffffffffffffffff16815260200190815260200160002060008473ffffffffffffffffffffffffffffffffffffffff1673ffffffffffffffffffffffffffffffffffffffff16815260200190815260200160002060006101000a81548160ff0219169083151502179055508173ffffffffffffffffffffffffffffffffffffffff168373ffffffffffffffffffffffffffffffffffffffff167f17307eab39ab6107e8899845ad3d59bd9653f200f220920489ca2b5937696c3183604051611a4491906128a6565b60405180910390a3505050565b60008373ffffffffffffffffffffffffffffffffffffffff163b1115611bfb578273ffffffffffffffffffffffffffffffffffffffff1663150b7a02868685856040518563ffffffff1660e01b8152600401611ab094939291906132c3565b6020604051808303816000875af1925050508015611aec57506040513d601f19601f82011682018060405250810190611ae99190613324565b60015b611b70573d8060008114611b1c576040519150601f19603f3d011682016040523d82523d6000602084013e611b21565b606091505b506000815103611b6857836040517f64a0ae92000000000000000000000000000000000000000000000000000000008152600401611b5f9190612a17565b60405180910390fd5b805181602001fd5b63150b7a0260e01b7bffffffffffffffffffffffffffffffffffffffffffffffffffffffff1916817bffffffffffffffffffffffffffffffffffffffffffffffffffffffff191614611bf957836040517f64a0ae92000000000000000000000000000000000000000000000000000000008152600401611bf09190612a17565b60405180910390fd5b505b5050505050565b606060405180602001604052806000815250905090565b606060006001611c2884612421565b01905060008167ffffffffffffffff811115611c4757611c46612bfe565b5b6040519080825280601f01601f191660200182016040528015611c795781602001600182028036833780820191505090505b509050600082602001820190505b600115611cdc578080600190039150507f3031323334353637383961626364656600000000000000000000000000000000600a86061a8153600a8581611cd057611ccf613351565b5b04945060008503611c87575b819350505050919050565b60007f01ffc9a7000000000000000000000000000000000000000000000000000000007bffffffffffffffffffffffffffffffffffffffffffffffffffffffff1916827bffffffffffffffffffffffffffffffffffffffffffffffffffffffff1916149050919050565b60006002600083815260200190815260200160002060009054906101000a900473ffffffffffffffffffffffffffffffffffffffff169050919050565b8080611dc75750600073ffffffffffffffffffffffffffffffffffffffff168273ffffffffffffffffffffffffffffffffffffffff1614155b15611efb576000611dd784611388565b9050600073ffffffffffffffffffffffffffffffffffffffff168373ffffffffffffffffffffffffffffffffffffffff1614158015611e4257508273ffffffffffffffffffffffffffffffffffffffff168173ffffffffffffffffffffffffffffffffffffffff1614155b8015611e555750611e53818461116a565b155b15611e9757826040517fa9fbf51f000000000000000000000000000000000000000000000000000000008152600401611e8e9190612a17565b60405180910390fd5b8115611ef957838573ffffffffffffffffffffffffffffffffffffffff168273ffffffffffffffffffffffffffffffffffffffff167f8c5be1e5ebec7d5bd14f71427d1e84f3dd0314c0f7b2291e5b200ac8c7c3b92560405160405180910390a45b505b836004600085815260200190815260200160002060006101000a81548173ffffffffffffffffffffffffffffffffffffffff021916908373ffffffffffffffffffffffffffffffffffffffff16021790555050505050565b600080611f5f84611d51565b9050600073ffffffffffffffffffffffffffffffffffffffff168373ffffffffffffffffffffffffffffffffffffffff1614611fa157611fa0818486612574565b5b600073ffffffffffffffffffffffffffffffffffffffff168173ffffffffffffffffffffffffffffffffffffffff161461203257611fe3600085600080611d8e565b6001600360008373ffffffffffffffffffffffffffffffffffffffff1673ffffffffffffffffffffffffffffffffffffffff168152602001908152602001600020600082825403925050819055505b600073ffffffffffffffffffffffffffffffffffffffff168573ffffffffffffffffffffffffffffffffffffffff16146120b5576001600360008773ffffffffffffffffffffffffffffffffffffffff1673ffffffffffffffffffffffffffffffffffffffff168152602001908152602001600020600082825401925050819055505b846002600086815260200190815260200160002060006101000a81548173ffffffffffffffffffffffffffffffffffffffff021916908373ffffffffffffffffffffffffffffffffffffffff160217905550838573ffffffffffffffffffffffffffffffffffffffff168273ffffffffffffffffffffffffffffffffffffffff167fddf252ad1be2c89b69c2b068fc378daa952ba7f163c4a11628f55a4df523b3ef60405160405180910390a4809150509392505050565b6008805490506009600083815260200190815260200160002081905550600881908060018154018082558091505060019003906000526020600020016000909190919091505550565b60006121c183610d17565b90506000600760008481526020019081526020016000205490506000600660008673ffffffffffffffffffffffffffffffffffffffff1673ffffffffffffffffffffffffffffffffffffffff168152602001908152602001600020905082821461226d5760008160008581526020019081526020016000205490508082600085815260200190815260200160002081905550826007600083815260200190815260200160002081905550505b6007600085815260200190815260200160002060009055806000848152602001908152602001600020600090555050505050565b600060016008805490506122b591906131da565b90506000600960008481526020019081526020016000205490506000600883815481106122e5576122e4612ff0565b5b90600052602060002001549050806008838154811061230757612306612ff0565b5b90600052602060002001819055508160096000838152602001908152602001600020819055506009600085815260200190815260200160002060009055600880548061235657612355613380565b5b6001900381819060005260206000200160009055905550505050565b6000600161237f84610d17565b61238991906131da565b905081600660008573ffffffffffffffffffffffffffffffffffffffff1673ffffffffffffffffffffffffffffffffffffffff168152602001908152602001600020600083815260200190815260200160002081905550806007600084815260200190815260200160002081905550505050565b6124078383612638565b61241c61241261144d565b6000858585611a51565b505050565b600080600090507a184f03e93ff9f4daa797ed6e38ed64bf6a1f010000000000000000831061247f577a184f03e93ff9f4daa797ed6e38ed64bf6a1f010000000000000000838161247557612474613351565b5b0492506040810190505b6d04ee2d6d415b85acef810000000083106124bc576d04ee2d6d415b85acef810000000083816124b2576124b1613351565b5b0492506020810190505b662386f26fc1000083106124eb57662386f26fc1000083816124e1576124e0613351565b5b0492506010810190505b6305f5e1008310612514576305f5e100838161250a57612509613351565b5b0492506008810190505b612710831061253957612710838161252f5761252e613351565b5b0492506004810190505b6064831061255c576064838161255257612551613351565b5b0492506002810190505b600a831061256b576001810190505b80915050919050565b61257f838383612731565b61263357600073ffffffffffffffffffffffffffffffffffffffff168373ffffffffffffffffffffffffffffffffffffffff16036125f457806040517f7e2732890000000000000000000000000000000000000000000000000000000081526004016125eb9190612aad565b60405180910390fd5b81816040517f177e802f00000000000000000000000000000000000000000000000000000000815260040161262a929190612dac565b60405180910390fd5b505050565b600073ffffffffffffffffffffffffffffffffffffffff168273ffffffffffffffffffffffffffffffffffffffff16036126aa5760006040517f64a0ae920000000000000000000000000000000000000000000000000000000081526004016126a19190612a17565b60405180910390fd5b60006126b883836000611467565b9050600073ffffffffffffffffffffffffffffffffffffffff168173ffffffffffffffffffffffffffffffffffffffff161461272c5760006040517f73c6ac6e0000000000000000000000000000000000000000000000000000000081526004016127239190612a17565b60405180910390fd5b505050565b60008073ffffffffffffffffffffffffffffffffffffffff168373ffffffffffffffffffffffffffffffffffffffff16141580156127e957508273ffffffffffffffffffffffffffffffffffffffff168473ffffffffffffffffffffffffffffffffffffffff1614806127aa57506127a9848461116a565b5b806127e857508273ffffffffffffffffffffffffffffffffffffffff166127d083611410565b73ffffffffffffffffffffffffffffffffffffffff16145b5b90509392505050565b6000604051905090565b600080fd5b600080fd5b60007fffffffff0000000000000000000000000000000000000000000000000000000082169050919050565b61283b81612806565b811461284657600080fd5b50565b60008135905061285881612832565b92915050565b600060208284031215612874576128736127fc565b5b600061288284828501612849565b91505092915050565b60008115159050919050565b6128a08161288b565b82525050565b60006020820190506128bb6000830184612897565b92915050565b600081519050919050565b600082825260208201905092915050565b60005b838110156128fb5780820151818401526020810190506128e0565b60008484015250505050565b6000601f19601f8301169050919050565b6000612923826128c1565b61292d81856128cc565b935061293d8185602086016128dd565b61294681612907565b840191505092915050565b6000602082019050818103600083015261296b8184612918565b905092915050565b6000819050919050565b61298681612973565b811461299157600080fd5b50565b6000813590506129a38161297d565b92915050565b6000602082840312156129bf576129be6127fc565b5b60006129cd84828501612994565b91505092915050565b600073ffffffffffffffffffffffffffffffffffffffff82169050919050565b6000612a01826129d6565b9050919050565b612a11816129f6565b82525050565b6000602082019050612a2c6000830184612a08565b92915050565b612a3b816129f6565b8114612a4657600080fd5b50565b600081359050612a5881612a32565b92915050565b60008060408385031215612a7557612a746127fc565b5b6000612a8385828601612a49565b9250506020612a9485828601612994565b9150509250929050565b612aa781612973565b82525050565b6000602082019050612ac26000830184612a9e565b92915050565b600080600060608486031215612ae157612ae06127fc565b5b6000612aef86828701612a49565b9350506020612b0086828701612a49565b9250506040612b1186828701612994565b9150509250925092565b600060208284031215612b3157612b306127fc565b5b6000612b3f84828501612a49565b91505092915050565b60008060408385031215612b5f57612b5e6127fc565b5b6000612b6d85828601612994565b9250506020612b7e85828601612994565b9150509250929050565b612b918161288b565b8114612b9c57600080fd5b50565b600081359050612bae81612b88565b92915050565b60008060408385031215612bcb57612bca6127fc565b5b6000612bd985828601612a49565b9250506020612bea85828601612b9f565b9150509250929050565b600080fd5b600080fd5b7f4e487b7100000000000000000000000000000000000000000000000000000000600052604160045260246000fd5b612c3682612907565b810181811067ffffffffffffffff82111715612c5557612c54612bfe565b5b80604052505050565b6000612c686127f2565b9050612c748282612c2d565b919050565b600067ffffffffffffffff821115612c9457612c93612bfe565b5b612c9d82612907565b9050602081019050919050565b82818337600083830152505050565b6000612ccc612cc784612c79565b612c5e565b905082815260208101848484011115612ce857612ce7612bf9565b5b612cf3848285612caa565b509392505050565b600082601f830112612d1057612d0f612bf4565b5b8135612d20848260208601612cb9565b91505092915050565b60008060008060808587031215612d4357612d426127fc565b5b6000612d5187828801612a49565b9450506020612d6287828801612a49565b9350506040612d7387828801612994565b925050606085013567ffffffffffffffff811115612d9457612d93612801565b5b612da087828801612cfb565b91505092959194509250565b6000604082019050612dc16000830185612a08565b612dce6020830184612a9e565b9392505050565b60008060408385031215612dec57612deb6127fc565b5b6000612dfa85828601612a49565b9250506020612e0b85828601612a49565b9150509250929050565b7f4e487b7100000000000000000000000000000000000000000000000000000000600052602260045260246000fd5b60006002820490506001821680612e5c57607f821691505b602082108103612e6f57612e6e612e15565b5b50919050565b6000606082019050612e8a6000830186612a08565b612e976020830185612a9e565b612ea46040830184612a08565b949350505050565b7f546f6b656e206e6f7420666f722073616c650000000000000000000000000000600082015250565b6000612ee26012836128cc565b9150612eed82612eac565b602082019050919050565b60006020820190508181036000830152612f1181612ed5565b9050919050565b7f496e636f72726563742076616c75650000000000000000000000000000000000600082015250565b6000612f4e600f836128cc565b9150612f5982612f18565b602082019050919050565b60006020820190508181036000830152612f7d81612f41565b9050919050565b7f4e6f74207468652073656c6c6572000000000000000000000000000000000000600082015250565b6000612fba600e836128cc565b9150612fc582612f84565b602082019050919050565b60006020820190508181036000830152612fe981612fad565b9050919050565b7f4e487b7100000000000000000000000000000000000000000000000000000000600052603260045260246000fd5b7f4e487b7100000000000000000000000000000000000000000000000000000000600052601160045260246000fd5b600061305982612973565b91507fffffffffffffffffffffffffffffffffffffffffffffffffffffffffffffffff820361308b5761308a61301f565b5b600182019050919050565b7f4e6f7420746865206f776e657200000000000000000000000000000000000000600082015250565b60006130cc600d836128cc565b91506130d782613096565b602082019050919050565b600060208201905081810360008301526130fb816130bf565b9050919050565b7f5072696365206d75737420626520706f73697469766500000000000000000000600082015250565b60006131386016836128cc565b915061314382613102565b602082019050919050565b600060208201905081810360008301526131678161312b565b9050919050565b7f4e6f204e46547320746f206275726e2e00000000000000000000000000000000600082015250565b60006131a46010836128cc565b91506131af8261316e565b602082019050919050565b600060208201905081810360008301526131d381613197565b9050919050565b60006131e582612973565b91506131f083612973565b92508282039050818111156132085761320761301f565b5b92915050565b600081905092915050565b6000613224826128c1565b61322e818561320e565b935061323e8185602086016128dd565b80840191505092915050565b60006132568285613219565b91506132628284613219565b91508190509392505050565b600081519050919050565b600082825260208201905092915050565b60006132958261326e565b61329f8185613279565b93506132af8185602086016128dd565b6132b881612907565b840191505092915050565b60006080820190506132d86000830187612a08565b6132e56020830186612a08565b6132f26040830185612a9e565b8181036060830152613304818461328a565b905095945050505050565b60008151905061331e81612832565b92915050565b60006020828403121561333a576133396127fc565b5b60006133488482850161330f565b91505092915050565b7f4e487b7100000000000000000000000000000000000000000000000000000000600052601260045260246000fd5b7f4e487b7100000000000000000000000000000000000000000000000000000000600052603160045260246000fdfea264697066735822122048a9fd2d4fd8bac25644ddafc3b057744c53f3daf0f9901e1b032860e78b644a64736f6c63430008180033",
  "linkReferences": {},
  "deployedLinkReferences": {}
}