{
  "_format": "hh-sol-artifact-1",
  "contractName": "GameItemNFT721",
  "sourceName": "contracts/GameItemNFT721.sol",
  "abi": [
    {
      "inputs": [],
      "stateMutability": "nonpayable",
      "type": "constructor"
    },
    {
      "inputs": [],
      "name": "AccessControlBadConfirmation",
      "type": "error"
    },
    {
      "inputs": [
        {
          "internalType": "address",
          "name": "account",
          "type": "address"
        },
        {
          "internalType": "bytes32",
          "name": "neededRole",
          "type": "bytes32"
        }
      ],
      "name": "AccessControlUnauthorizedAccount",
      "type": "error"
    },
    {
      "inputs": [
        {
          "internalType": "address",
          "name": "sender",
          "type": "address"
        },
        {
          "internalType": "uint256",
          "name": "tokenId",
          "type": "uint256"
        },
        {
          "internalType": "address",
          "name": "owner",
          "type": "address"
        }
      ],
      "name": "ERC721IncorrectOwner",
      "type": "error"
    },
    {
      "inputs": [
        {
          "internalType": "address",
          "name": "operator",
          "type": "address"
        },
        {
          "internalType": "uint256",
          "name": "tokenId",
          "type": "uint256"
        }
      ],
      "name": "ERC721InsufficientApproval",
      "type": "error"
    },
    {
      "inputs": [
        {
          "internalType": "address",
          "name": "approver",
          "type": "address"
        }
      ],
      "name": "ERC721InvalidApprover",
      "type": "error"
    },
    {
      "inputs": [
        {
          "internalType": "address",
          "name": "operator",
          "type": "address"
        }
      ],
      "name": "ERC721InvalidOperator",
      "type": "error"
    },
    {
      "inputs": [
        {
          "internalType": "address",
          "name": "owner",
          "type": "address"
        }
      ],
      "name": "ERC721InvalidOwner",
      "type": "error"
    },
    {
      "inputs": [
        {
          "internalType": "address",
          "name": "receiver",
          "type": "address"
        }
      ],
      "name": "ERC721InvalidReceiver",
      "type": "error"
    },
    {
      "inputs": [
        {
          "internalType": "address",
          "name": "sender",
          "type": "address"
        }
      ],
      "name": "ERC721InvalidSender",
      "type": "error"
    },
    {
      "inputs": [
        {
          "internalType": "uint256",
          "name": "tokenId",
          "type": "uint256"
        }
      ],
      "name": "ERC721NonexistentToken",
      "type": "error"
    },
    {
      "inputs": [
        {
          "internalType": "uint256",
          "name": "tokenItemType",
          "type": "uint256"
        }
      ],
      "name": "InvalidTokenItemType",
      "type": "error"
    },
    {
      "anonymous": false,
      "inputs": [
        {
          "indexed": true,
          "internalType": "address",
          "name": "owner",
          "type": "address"
        },
        {
          "indexed": true,
          "internalType": "address",
          "name": "approved",
          "type": "address"
        },
        {
          "indexed": true,
          "internalType": "uint256",
          "name": "tokenId",
          "type": "uint256"
        }
      ],
      "name": "Approval",
      "type": "event"
    },
    {
      "anonymous": false,
      "inputs": [
        {
          "indexed": true,
          "internalType": "address",
          "name": "owner",
          "type": "address"
        },
        {
          "indexed": true,
          "internalType": "address",
          "name": "operator",
          "type": "address"
        },
        {
          "indexed": false,
          "internalType": "bool",
          "name": "approved",
          "type": "bool"
        }
      ],
      "name": "ApprovalForAll",
      "type": "event"
    },
    {
      "anonymous": false,
      "inputs": [
        {
          "indexed": false,
          "internalType": "uint256",
          "name": "_fromTokenId",
          "type": "uint256"
        },
        {
          "indexed": false,
          "internalType": "uint256",
          "name": "_toTokenId",
          "type": "uint256"
        }
      ],
      "name": "BatchMetadataUpdate",
      "type": "event"
    },
    {
      "anonymous": false,
      "inputs": [
        {
          "indexed": false,
          "internalType": "uint256",
          "name": "_tokenId",
          "type": "uint256"
        }
      ],
      "name": "MetadataUpdate",
      "type": "event"
    },
    {
      "anonymous": false,
      "inputs": [
        {
          "indexed": true,
          "internalType": "bytes32",
          "name": "role",
          "type": "bytes32"
        },
        {
          "indexed": true,
          "internalType": "bytes32",
          "name": "previousAdminRole",
          "type": "bytes32"
        },
        {
          "indexed": true,
          "internalType": "bytes32",
          "name": "newAdminRole",
          "type": "bytes32"
        }
      ],
      "name": "RoleAdminChanged",
      "type": "event"
    },
    {
      "anonymous": false,
      "inputs": [
        {
          "indexed": true,
          "internalType": "bytes32",
          "name": "role",
          "type": "bytes32"
        },
        {
          "indexed": true,
          "internalType": "address",
          "name": "account",
          "type": "address"
        },
        {
          "indexed": true,
          "internalType": "address",
          "name": "sender",
          "type": "address"
        }
      ],
      "name": "RoleGranted",
      "type": "event"
    },
    {
      "anonymous": false,
      "inputs": [
        {
          "indexed": true,
          "internalType": "bytes32",
          "name": "role",
          "type": "bytes32"
        },
        {
          "indexed": true,
          "internalType": "address",
          "name": "account",
          "type": "address"
        },
        {
          "indexed": true,
          "internalType": "address",
          "name": "sender",
          "type": "address"
        }
      ],
      "name": "RoleRevoked",
      "type": "event"
    },
    {
      "anonymous": false,
      "inputs": [
        {
          "indexed": true,
          "internalType": "address",
          "name": "from",
          "type": "address"
        },
        {
          "indexed": true,
          "internalType": "address",
          "name": "to",
          "type": "address"
        },
        {
          "indexed": true,
          "internalType": "uint256",
          "name": "tokenId",
          "type": "uint256"
        }
      ],
      "name": "Transfer",
      "type": "event"
    },
    {
      "inputs": [],
      "name": "ARMOR",
      "outputs": [
        {
          "internalType": "uint256",
          "name": "",
          "type": "uint256"
        }
      ],
      "stateMutability": "view",
      "type": "function"
    },
    {
      "inputs": [],
      "name": "BRACELET",
      "outputs": [
        {
          "internalType": "uint256",
          "name": "",
          "type": "uint256"
        }
      ],
      "stateMutability": "view",
      "type": "function"
    },
    {
      "inputs": [],
      "name": "BURNER_ROLE",
      "outputs": [
        {
          "internalType": "bytes32",
          "name": "",
          "type": "bytes32"
        }
      ],
      "stateMutability": "view",
      "type": "function"
    },
    {
      "inputs": [],
      "name": "DEFAULT_ADMIN_ROLE",
      "outputs": [
        {
          "internalType": "bytes32",
          "name": "",
          "type": "bytes32"
        }
      ],
      "stateMutability": "view",
      "type": "function"
    },
    {
      "inputs": [],
      "name": "MINTER_ROLE",
      "outputs": [
        {
          "internalType": "bytes32",
          "name": "",
          "type": "bytes32"
        }
      ],
      "stateMutability": "view",
      "type": "function"
    },
    {
      "inputs": [],
      "name": "SABER",
      "outputs": [
        {
          "internalType": "uint256",
          "name": "",
          "type": "uint256"
        }
      ],
      "stateMutability": "view",
      "type": "function"
    },
    {
      "inputs": [],
      "name": "STAFF",
      "outputs": [
        {
          "internalType": "uint256",
          "name": "",
          "type": "uint256"
        }
      ],
      "stateMutability": "view",
      "type": "function"
    },
    {
      "inputs": [
        {
          "internalType": "address",
          "name": "to",
          "type": "address"
        },
        {
          "internalType": "uint256",
          "name": "tokenId",
          "type": "uint256"
        }
      ],
      "name": "approve",
      "outputs": [],
      "stateMutability": "nonpayable",
      "type": "function"
    },
    {
      "inputs": [
        {
          "internalType": "address",
          "name": "owner",
          "type": "address"
        }
      ],
      "name": "balanceOf",
      "outputs": [
        {
          "internalType": "uint256",
          "name": "",
          "type": "uint256"
        }
      ],
      "stateMutability": "view",
      "type": "function"
    },
    {
      "inputs": [
        {
          "internalType": "uint256",
          "name": "id",
          "type": "uint256"
        }
      ],
      "name": "burn",
      "outputs": [],
      "stateMutability": "nonpayable",
      "type": "function"
    },
    {
      "inputs": [
        {
          "internalType": "uint256",
          "name": "tokenId",
          "type": "uint256"
        }
      ],
      "name": "getApproved",
      "outputs": [
        {
          "internalType": "address",
          "name": "",
          "type": "address"
        }
      ],
      "stateMutability": "view",
      "type": "function"
    },
    {
      "inputs": [
        {
          "internalType": "bytes32",
          "name": "role",
          "type": "bytes32"
        }
      ],
      "name": "getRoleAdmin",
      "outputs": [
        {
          "internalType": "bytes32",
          "name": "",
          "type": "bytes32"
        }
      ],
      "stateMutability": "view",
      "type": "function"
    },
    {
      "inputs": [
        {
          "internalType": "bytes32",
          "name": "role",
          "type": "bytes32"
        },
        {
          "internalType": "address",
          "name": "account",
          "type": "address"
        }
      ],
      "name": "grantRole",
      "outputs": [],
      "stateMutability": "nonpayable",
      "type": "function"
    },
    {
      "inputs": [
        {
          "internalType": "bytes32",
          "name": "role",
          "type": "bytes32"
        },
        {
          "internalType": "address",
          "name": "account",
          "type": "address"
        }
      ],
      "name": "hasRole",
      "outputs": [
        {
          "internalType": "bool",
          "name": "",
          "type": "bool"
        }
      ],
      "stateMutability": "view",
      "type": "function"
    },
    {
      "inputs": [
        {
          "internalType": "address",
          "name": "owner",
          "type": "address"
        },
        {
          "internalType": "address",
          "name": "operator",
          "type": "address"
        }
      ],
      "name": "isApprovedForAll",
      "outputs": [
        {
          "internalType": "bool",
          "name": "",
          "type": "bool"
        }
      ],
      "stateMutability": "view",
      "type": "function"
    },
    {
      "inputs": [
        {
          "internalType": "address",
          "name": "account",
          "type": "address"
        },
        {
          "internalType": "uint256",
          "name": "tokenItemType",
          "type": "uint256"
        }
      ],
      "name": "mint",
      "outputs": [],
      "stateMutability": "nonpayable",
      "type": "function"
    },
    {
      "inputs": [],
      "name": "name",
      "outputs": [
        {
          "internalType": "string",
          "name": "",
          "type": "string"
        }
      ],
      "stateMutability": "view",
      "type": "function"
    },
    {
      "inputs": [
        {
          "internalType": "uint256",
          "name": "tokenId",
          "type": "uint256"
        }
      ],
      "name": "ownerOf",
      "outputs": [
        {
          "internalType": "address",
          "name": "",
          "type": "address"
        }
      ],
      "stateMutability": "view",
      "type": "function"
    },
    {
      "inputs": [
        {
          "internalType": "bytes32",
          "name": "role",
          "type": "bytes32"
        },
        {
          "internalType": "address",
          "name": "callerConfirmation",
          "type": "address"
        }
      ],
      "name": "renounceRole",
      "outputs": [],
      "stateMutability": "nonpayable",
      "type": "function"
    },
    {
      "inputs": [
        {
          "internalType": "bytes32",
          "name": "role",
          "type": "bytes32"
        },
        {
          "internalType": "address",
          "name": "account",
          "type": "address"
        }
      ],
      "name": "revokeRole",
      "outputs": [],
      "stateMutability": "nonpayable",
      "type": "function"
    },
    {
      "inputs": [
        {
          "internalType": "address",
          "name": "from",
          "type": "address"
        },
        {
          "internalType": "address",
          "name": "to",
          "type": "address"
        },
        {
          "internalType": "uint256",
          "name": "tokenId",
          "type": "uint256"
        }
      ],
      "name": "safeTransferFrom",
      "outputs": [],
      "stateMutability": "nonpayable",
      "type": "function"
    },
    {
      "inputs": [
        {
          "internalType": "address",
          "name": "from",
          "type": "address"
        },
        {
          "internalType": "address",
          "name": "to",
          "type": "address"
        },
        {
          "internalType": "uint256",
          "name": "tokenId",
          "type": "uint256"
        },
        {
          "internalType": "bytes",
          "name": "data",
          "type": "bytes"
        }
      ],
      "name": "safeTransferFrom",
      "outputs": [],
      "stateMutability": "nonpayable",
      "type": "function"
    },
    {
      "inputs": [
        {
          "internalType": "address",
          "name": "operator",
          "type": "address"
        },
        {
          "internalType": "bool",
          "name": "approved",
          "type": "bool"
        }
      ],
      "name": "setApprovalForAll",
      "outputs": [],
      "stateMutability": "nonpayable",
      "type": "function"
    },
    {
      "inputs": [
        {
          "internalType": "bytes4",
          "name": "interfaceId",
          "type": "bytes4"
        }
      ],
      "name": "supportsInterface",
      "outputs": [
        {
          "internalType": "bool",
          "name": "",
          "type": "bool"
        }
      ],
      "stateMutability": "view",
      "type": "function"
    },
    {
      "inputs": [],
      "name": "symbol",
      "outputs": [
        {
          "internalType": "string",
          "name": "",
          "type": "string"
        }
      ],
      "stateMutability": "view",
      "type": "function"
    },
    {
      "inputs": [
        {
          "internalType": "uint256",
          "name": "",
          "type": "uint256"
        }
      ],
      "name": "tokenItemTypes",
      "outputs": [
        {
          "internalType": "uint256",
          "name": "",
          "type": "uint256"
        }
      ],
      "stateMutability": "view",
      "type": "function"
    },
    {
      "inputs": [
        {
          "internalType": "uint256",
          "name": "tokenId",
          "type": "uint256"
        }
      ],
      "name": "tokenURI",
      "outputs": [
        {
          "internalType": "string",
          "name": "",
          "type": "string"
        }
      ],
      "stateMutability": "view",
      "type": "function"
    },
    {
      "inputs": [
        {
          "internalType": "address",
          "name": "from",
          "type": "address"
        },
        {
          "internalType": "address",
          "name": "to",
          "type": "address"
        },
        {
          "internalType": "uint256",
          "name": "tokenId",
          "type": "uint256"
        }
      ],
      "name": "transferFrom",
      "outputs": [],
      "stateMutability": "nonpayable",
      "type": "function"
    }
  ],
  "bytecode": "0x608060405260006008553480156200001657600080fd5b506040518060400160405280601981526020017f436f7373616b20427573696e6573732047616d65204974656d000000000000008152506040518060400160405280600381526020016243474960e81b81525081600090816200007a9190620001fc565b506001620000898282620001fc565b506200009b91506000905033620000a2565b50620002c8565b60008281526007602090815260408083206001600160a01b038516845290915281205460ff166200014b5760008381526007602090815260408083206001600160a01b03861684529091529020805460ff19166001179055620001023390565b6001600160a01b0316826001600160a01b0316847f2f8788117e7eff1d82e926ec794901d17c78024a50270940304540a733656f0d60405160405180910390a45060016200014f565b5060005b92915050565b634e487b7160e01b600052604160045260246000fd5b600181811c908216806200018057607f821691505b602082108103620001a157634e487b7160e01b600052602260045260246000fd5b50919050565b601f821115620001f7576000816000526020600020601f850160051c81016020861015620001d25750805b601f850160051c820191505b81811015620001f357828155600101620001de565b5050505b505050565b81516001600160401b0381111562000218576200021862000155565b62000230816200022984546200016b565b84620001a7565b602080601f8311600181146200026857600084156200024f5750858301515b600019600386901b1c1916600185901b178555620001f3565b600085815260208120601f198616915b82811015620002995788860151825594840194600190910190840162000278565b5085821015620002b85787850151600019600388901b60f8161c191681555b5050505050600190811b01905550565b6118a480620002d86000396000f3fe608060405234801561001057600080fd5b50600436106101c45760003560e01c80636352211e116100f9578063b88d4fde11610097578063d547741f11610071578063d547741f146103e9578063de078248146103fc578063e08fc9de14610381578063e985e9c51461040457600080fd5b8063b88d4fde1461039c578063c87b56dd146103af578063d5391393146103c257600080fd5b806395d89b41116100d357806395d89b411461037157806397c6e24d14610379578063a217fddf14610381578063a22cb4651461038957600080fd5b80636352211e1461033857806370a082311461034b57806391d148541461035e57600080fd5b8063282c51f31161016657806340c10f191161014057806340c10f19146102df57806342842e0e146102f257806342966c68146103055780634fa298981461031857600080fd5b8063282c51f3146102925780632f2ff15d146102b957806336568abe146102cc57600080fd5b8063095ea7b3116101a2578063095ea7b31461023157806323b872dd1461024657806323c6dcf114610259578063248a9ca31461026f57600080fd5b806301ffc9a7146101c957806306fdde03146101f1578063081812fc14610206575b600080fd5b6101dc6101d736600461133d565b610417565b60405190151581526020015b60405180910390f35b6101f9610428565b6040516101e891906113aa565b6102196102143660046113bd565b6104ba565b6040516001600160a01b0390911681526020016101e8565b61024461023f3660046113f2565b6104e3565b005b61024461025436600461141c565b6104f2565b610261600181565b6040519081526020016101e8565b61026161027d3660046113bd565b60009081526007602052604090206001015490565b6102617f3c11d16cbaffd01df69ce1c404f6340ee057498f5f00246190ea54220576a84881565b6102446102c7366004611458565b610582565b6102446102da366004611458565b6105a7565b6102446102ed3660046113f2565b6105df565b61024461030036600461141c565b6106a0565b6102446103133660046113bd565b6106bb565b6102616103263660046113bd565b60096020526000908152604090205481565b6102196103463660046113bd565b6106ee565b610261610359366004611484565b6106f9565b6101dc61036c366004611458565b610741565b6101f961076c565b610261600281565b610261600081565b61024461039736600461149f565b61077b565b6102446103aa3660046114f1565b610786565b6101f96103bd3660046113bd565b61079e565b6102617f9f2df0fed2c77648de5860a4cc508cd0818c85b8b8a1ab4ceeef8d981c8956a681565b6102446103f7366004611458565b6108af565b610261600381565b6101dc6104123660046115cd565b6108d4565b600061042282610902565b92915050565b606060008054610437906115f7565b80601f0160208091040260200160405190810160405280929190818152602001828054610463906115f7565b80156104b05780601f10610485576101008083540402835291602001916104b0565b820191906000526020600020905b81548152906001019060200180831161049357829003601f168201915b5050505050905090565b60006104c582610927565b506000828152600460205260409020546001600160a01b0316610422565b6104ee828233610960565b5050565b6001600160a01b03821661052157604051633250574960e11b8152600060048201526024015b60405180910390fd5b600061052e83833361096d565b9050836001600160a01b0316816001600160a01b03161461057c576040516364283d7b60e01b81526001600160a01b0380861660048301526024820184905282166044820152606401610518565b50505050565b60008281526007602052604090206001015461059d81610a66565b61057c8383610a73565b6001600160a01b03811633146105d05760405163334bd91960e11b815260040160405180910390fd5b6105da8282610b07565b505050565b7f9f2df0fed2c77648de5860a4cc508cd0818c85b8b8a1ab4ceeef8d981c8956a661060981610a66565b600382111561062e5760405163cb9fb36960e01b815260048101839052602401610518565b600880546000918261063f83611631565b91905055905061064f8482610b74565b61068a8161065c85610bd9565b61066584610c77565b604051602001610676929190611658565b604051602081830303815290604052610d0a565b6000908152600960205260409020919091555050565b6105da83838360405180602001604052806000815250610786565b7f3c11d16cbaffd01df69ce1c404f6340ee057498f5f00246190ea54220576a8486106e581610a66565b6104ee82610d5a565b600061042282610927565b60006001600160a01b038216610725576040516322718ad960e21b815260006004820152602401610518565b506001600160a01b031660009081526003602052604090205490565b60009182526007602090815260408084206001600160a01b0393909316845291905290205460ff1690565b606060018054610437906115f7565b6104ee338383610d95565b6107918484846104f2565b61057c3385858585610e34565b60606107a982610927565b50600082815260066020526040812080546107c3906115f7565b80601f01602080910402602001604051908101604052809291908181526020018280546107ef906115f7565b801561083c5780601f106108115761010080835404028352916020019161083c565b820191906000526020600020905b81548152906001019060200180831161081f57829003601f168201915b50505050509050600061085a60408051602081019091526000815290565b9050805160000361086c575092915050565b81511561089e5780826040516020016108869291906116dd565b60405160208183030381529060405292505050919050565b6108a784610f5f565b949350505050565b6000828152600760205260409020600101546108ca81610a66565b61057c8383610b07565b6001600160a01b03918216600090815260056020908152604080832093909416825291909152205460ff1690565b60006001600160e01b03198216637965db0b60e01b1480610422575061042282610fd4565b6000818152600260205260408120546001600160a01b03168061042257604051637e27328960e01b815260048101849052602401610518565b6105da8383836001610ff9565b6000828152600260205260408120546001600160a01b039081169083161561099a5761099a8184866110ff565b6001600160a01b038116156109d8576109b7600085600080610ff9565b6001600160a01b038116600090815260036020526040902080546000190190555b6001600160a01b03851615610a07576001600160a01b0385166000908152600360205260409020805460010190555b60008481526002602052604080822080546001600160a01b0319166001600160a01b0389811691821790925591518793918516917fddf252ad1be2c89b69c2b068fc378daa952ba7f163c4a11628f55a4df523b3ef91a4949350505050565b610a708133611163565b50565b6000610a7f8383610741565b610aff5760008381526007602090815260408083206001600160a01b03861684529091529020805460ff19166001179055610ab73390565b6001600160a01b0316826001600160a01b0316847f2f8788117e7eff1d82e926ec794901d17c78024a50270940304540a733656f0d60405160405180910390a4506001610422565b506000610422565b6000610b138383610741565b15610aff5760008381526007602090815260408083206001600160a01b0386168085529252808320805460ff1916905551339286917ff6391f5c32d9c69d2a47ea670b442974b53935d1edc7fd64eb21e047a839171b9190a4506001610422565b6001600160a01b038216610b9e57604051633250574960e11b815260006004820152602401610518565b6000610bac8383600061096d565b90506001600160a01b038116156105da576040516339e3563760e11b815260006004820152602401610518565b606081610c0157505060408051808201909152600581526439b0b132b960d91b602082015290565b60018203610c2a57505060408051808201909152600581526439ba30b33360d91b602082015290565b60028203610c5357505060408051808201909152600581526430b936b7b960d91b602082015290565b5050604080518082019091526008815267189c9858d95b195d60c21b602082015290565b60606000610c848361119c565b600101905060008167ffffffffffffffff811115610ca457610ca46114db565b6040519080825280601f01601f191660200182016040528015610cce576020820181803683370190505b5090508181016020015b600019016f181899199a1a9b1b9c1cb0b131b232b360811b600a86061a8153600a8504945084610cd857509392505050565b6000828152600660205260409020610d228282611754565b506040518281527ff8e1a15aba9398e019f0b49df1a4fde98ee17ae345cb5f6b5e2c27f5033e8ce79060200160405180910390a15050565b6000610d69600083600061096d565b90506001600160a01b0381166104ee57604051637e27328960e01b815260048101839052602401610518565b6001600160a01b038216610dc757604051630b61174360e31b81526001600160a01b0383166004820152602401610518565b6001600160a01b03838116600081815260056020908152604080832094871680845294825291829020805460ff191686151590811790915591519182527f17307eab39ab6107e8899845ad3d59bd9653f200f220920489ca2b5937696c31910160405180910390a3505050565b6001600160a01b0383163b15610f5857604051630a85bd0160e11b81526001600160a01b0384169063150b7a0290610e76908890889087908790600401611814565b6020604051808303816000875af1925050508015610eb1575060408051601f3d908101601f19168201909252610eae91810190611851565b60015b610f1a573d808015610edf576040519150601f19603f3d011682016040523d82523d6000602084013e610ee4565b606091505b508051600003610f1257604051633250574960e11b81526001600160a01b0385166004820152602401610518565b805181602001fd5b6001600160e01b03198116630a85bd0160e11b14610f5657604051633250574960e11b81526001600160a01b0385166004820152602401610518565b505b5050505050565b6060610f6a82610927565b506000610f8260408051602081019091526000815290565b90506000815111610fa25760405180602001604052806000815250610fcd565b80610fac84610c77565b604051602001610fbd9291906116dd565b6040516020818303038152906040525b9392505050565b60006001600160e01b03198216632483248360e11b1480610422575061042282611274565b808061100d57506001600160a01b03821615155b156110cf57600061101d84610927565b90506001600160a01b038316158015906110495750826001600160a01b0316816001600160a01b031614155b801561105c575061105a81846108d4565b155b156110855760405163a9fbf51f60e01b81526001600160a01b0384166004820152602401610518565b81156110cd5783856001600160a01b0316826001600160a01b03167f8c5be1e5ebec7d5bd14f71427d1e84f3dd0314c0f7b2291e5b200ac8c7c3b92560405160405180910390a45b505b5050600090815260046020526040902080546001600160a01b0319166001600160a01b0392909216919091179055565b61110a8383836112c4565b6105da576001600160a01b03831661113857604051637e27328960e01b815260048101829052602401610518565b60405163177e802f60e01b81526001600160a01b038316600482015260248101829052604401610518565b61116d8282610741565b6104ee5760405163e2517d3f60e01b81526001600160a01b038216600482015260248101839052604401610518565b60008072184f03e93ff9f4daa797ed6e38ed64bf6a1f0160401b83106111db5772184f03e93ff9f4daa797ed6e38ed64bf6a1f0160401b830492506040015b6d04ee2d6d415b85acef81000000008310611207576d04ee2d6d415b85acef8100000000830492506020015b662386f26fc10000831061122557662386f26fc10000830492506010015b6305f5e100831061123d576305f5e100830492506008015b612710831061125157612710830492506004015b60648310611263576064830492506002015b600a83106104225760010192915050565b60006001600160e01b031982166380ac58cd60e01b14806112a557506001600160e01b03198216635b5e139f60e01b145b8061042257506301ffc9a760e01b6001600160e01b0319831614610422565b60006001600160a01b038316158015906108a75750826001600160a01b0316846001600160a01b031614806112fe57506112fe84846108d4565b806108a75750506000908152600460205260409020546001600160a01b03908116911614919050565b6001600160e01b031981168114610a7057600080fd5b60006020828403121561134f57600080fd5b8135610fcd81611327565b60005b8381101561137557818101518382015260200161135d565b50506000910152565b6000815180845261139681602086016020860161135a565b601f01601f19169290920160200192915050565b602081526000610fcd602083018461137e565b6000602082840312156113cf57600080fd5b5035919050565b80356001600160a01b03811681146113ed57600080fd5b919050565b6000806040838503121561140557600080fd5b61140e836113d6565b946020939093013593505050565b60008060006060848603121561143157600080fd5b61143a846113d6565b9250611448602085016113d6565b9150604084013590509250925092565b6000806040838503121561146b57600080fd5b8235915061147b602084016113d6565b90509250929050565b60006020828403121561149657600080fd5b610fcd826113d6565b600080604083850312156114b257600080fd5b6114bb836113d6565b9150602083013580151581146114d057600080fd5b809150509250929050565b634e487b7160e01b600052604160045260246000fd5b6000806000806080858703121561150757600080fd5b611510856113d6565b935061151e602086016113d6565b925060408501359150606085013567ffffffffffffffff8082111561154257600080fd5b818701915087601f83011261155657600080fd5b813581811115611568576115686114db565b604051601f8201601f19908116603f01168101908382118183101715611590576115906114db565b816040528281528a60208487010111156115a957600080fd5b82602086016020830137600060208483010152809550505050505092959194509250565b600080604083850312156115e057600080fd5b6115e9836113d6565b915061147b602084016113d6565b600181811c9082168061160b57607f821691505b60208210810361162b57634e487b7160e01b600052602260045260246000fd5b50919050565b60006001820161165157634e487b7160e01b600052601160045260246000fd5b5060010190565b7f68747470733a2f2f636f7373616b2d627573696e6573732e636f6d2e75612f6981526474656d732f60d81b60208201526000835161169e81602585016020880161135a565b602f60f81b60259184019182015283516116bf81602684016020880161135a565b64173539b7b760d91b60269290910191820152602b01949350505050565b600083516116ef81846020880161135a565b83519083019061170381836020880161135a565b01949350505050565b601f8211156105da576000816000526020600020601f850160051c810160208610156117355750805b601f850160051c820191505b81811015610f5657828155600101611741565b815167ffffffffffffffff81111561176e5761176e6114db565b6117828161177c84546115f7565b8461170c565b602080601f8311600181146117b7576000841561179f5750858301515b600019600386901b1c1916600185901b178555610f56565b600085815260208120601f198616915b828110156117e6578886015182559484019460019091019084016117c7565b50858210156118045787850151600019600388901b60f8161c191681555b5050505050600190811b01905550565b6001600160a01b03858116825284166020820152604081018390526080606082018190526000906118479083018461137e565b9695505050505050565b60006020828403121561186357600080fd5b8151610fcd8161132756fea2646970667358221220d9aa64d1f6162d4a885f1899ddc264f76491b86831ff808b1c5a20771b5d1dcb64736f6c63430008180033",
  "linkReferences": {},
  "deployedLinkReferences": {}
}