{
  "_format": "hh-sol-artifact-1",
  "contractName": "ResourceSearch",
  "sourceName": "contracts/ResourceSearch.sol",
  "abi": [
    {
      "inputs": [
        {
          "internalType": "address",
          "name": "_resourceContract",
          "type": "address"
        }
      ],
      "stateMutability": "nonpayable",
      "type": "constructor"
    },
    {
      "inputs": [
        {
          "internalType": "address",
          "name": "owner",
          "type": "address"
        }
      ],
      "name": "OwnableInvalidOwner",
      "type": "error"
    },
    {
      "inputs": [
        {
          "internalType": "address",
          "name": "account",
          "type": "address"
        }
      ],
      "name": "OwnableUnauthorizedAccount",
      "type": "error"
    },
    {
      "inputs": [],
      "name": "TooManyAttempts",
      "type": "error"
    },
    {
      "anonymous": false,
      "inputs": [
        {
          "indexed": true,
          "internalType": "address",
          "name": "previousOwner",
          "type": "address"
        },
        {
          "indexed": true,
          "internalType": "address",
          "name": "newOwner",
          "type": "address"
        }
      ],
      "name": "OwnershipTransferred",
      "type": "event"
    },
    {
      "inputs": [
        {
          "internalType": "address",
          "name": "",
          "type": "address"
        }
      ],
      "name": "lastSearchedResources",
      "outputs": [
        {
          "internalType": "uint256",
          "name": "",
          "type": "uint256"
        }
      ],
      "stateMutability": "view",
      "type": "function"
    },
    {
      "inputs": [],
      "name": "owner",
      "outputs": [
        {
          "internalType": "address",
          "name": "",
          "type": "address"
        }
      ],
      "stateMutability": "view",
      "type": "function"
    },
    {
      "inputs": [],
      "name": "renounceOwnership",
      "outputs": [],
      "stateMutability": "nonpayable",
      "type": "function"
    },
    {
      "inputs": [],
      "name": "resourceContract",
      "outputs": [
        {
          "internalType": "contract ResourceNFT1155",
          "name": "",
          "type": "address"
        }
      ],
      "stateMutability": "view",
      "type": "function"
    },
    {
      "inputs": [],
      "name": "resourceSearchCooldown",
      "outputs": [
        {
          "internalType": "uint256",
          "name": "",
          "type": "uint256"
        }
      ],
      "stateMutability": "view",
      "type": "function"
    },
    {
      "inputs": [],
      "name": "resourcesPerSearch",
      "outputs": [
        {
          "internalType": "uint256",
          "name": "",
          "type": "uint256"
        }
      ],
      "stateMutability": "view",
      "type": "function"
    },
    {
      "inputs": [],
      "name": "searchResources",
      "outputs": [
        {
          "internalType": "uint256[]",
          "name": "",
          "type": "uint256[]"
        }
      ],
      "stateMutability": "nonpayable",
      "type": "function"
    },
    {
      "inputs": [
        {
          "internalType": "address",
          "name": "_resourceContract",
          "type": "address"
        }
      ],
      "name": "setResourceContract",
      "outputs": [],
      "stateMutability": "nonpayable",
      "type": "function"
    },
    {
      "inputs": [
        {
          "internalType": "uint256",
          "name": "_resourceSearchCooldown",
          "type": "uint256"
        }
      ],
      "name": "setResourceSearchCooldown",
      "outputs": [],
      "stateMutability": "nonpayable",
      "type": "function"
    },
    {
      "inputs": [
        {
          "internalType": "uint256",
          "name": "_resourcesPerSearch",
          "type": "uint256"
        }
      ],
      "name": "setResourcesPerSearch",
      "outputs": [],
      "stateMutability": "nonpayable",
      "type": "function"
    },
    {
      "inputs": [
        {
          "internalType": "address",
          "name": "newOwner",
          "type": "address"
        }
      ],
      "name": "transferOwnership",
      "outputs": [],
      "stateMutability": "nonpayable",
      "type": "function"
    }
  ],
  "bytecode": "0x60806040526003600155603c60025534801561001a57600080fd5b506040516106f43803806106f4833981016040819052610039916100de565b338061005f57604051631e4fbdf760e01b81526000600482015260240160405180910390fd5b6100688161008e565b50600380546001600160a01b0319166001600160a01b039290921691909117905561010e565b600080546001600160a01b038381166001600160a01b0319831681178455604051919092169283917f8be0079c531659141344cd1fd0a4f28419497f9722a3daafe3b4186f6b6457e09190a35050565b6000602082840312156100f057600080fd5b81516001600160a01b038116811461010757600080fd5b9392505050565b6105d78061011d6000396000f3fe608060405234801561001057600080fd5b50600436106100a95760003560e01c8063746616cd11610071578063746616cd146101035780638da5cb5b1461011857806396c3cd7e1461013d578063c19c589b14610150578063f2fde38b14610163578063f803530a1461017657600080fd5b806317a54c5a146100ae5780631f22980e146100c357806347504ddb146100d65780636d067153146100f2578063715018a6146100fb575b600080fd5b6100c16100bc366004610494565b610196565b005b6100c16100d13660046104ad565b6101a3565b6100df60025481565b6040519081526020015b60405180910390f35b6100df60015481565b6100c16101cd565b61010b6101e1565b6040516100e991906104dd565b6000546001600160a01b03165b6040516001600160a01b0390911681526020016100e9565b600354610125906001600160a01b031681565b6100c161015e366004610494565b6103c7565b6100c16101713660046104ad565b6103d4565b6100df6101843660046104ad565b60046020526000908152604090205481565b61019e610417565b600255565b6101ab610417565b600380546001600160a01b0319166001600160a01b0392909216919091179055565b6101d5610417565b6101df6000610444565b565b6002543360009081526004602052604090205460609142916102039190610537565b111561022257604051631a55ed8d60e01b815260040160405180910390fd5b3360009081526004602090815260408083204290558051600680825260e0820190925291820160c08036833701905050905060005b6001548110156102eb5760006006423360405160200161029392919091825260601b6bffffffffffffffffffffffff1916602082015260340190565b6040516020818303038152906040528051906020012060001c6102b69190610550565b90508281815181106102ca576102ca610572565b6020026020010180518091906102df90610588565b90525050600101610257565b5060005b81518110156103c157600082828151811061030c5761030c610572565b602002602001015111156103b95760035482516001600160a01b039091169063156e29f6903390849086908290811061034757610347610572565b60209081029190910101516040516001600160e01b031960e086901b1681526001600160a01b03909316600484015260248301919091526044820152606401600060405180830381600087803b1580156103a057600080fd5b505af11580156103b4573d6000803e3d6000fd5b505050505b6001016102ef565b50919050565b6103cf610417565b600155565b6103dc610417565b6001600160a01b03811661040b57604051631e4fbdf760e01b8152600060048201526024015b60405180910390fd5b61041481610444565b50565b6000546001600160a01b031633146101df5760405163118cdaa760e01b8152336004820152602401610402565b600080546001600160a01b038381166001600160a01b0319831681178455604051919092169283917f8be0079c531659141344cd1fd0a4f28419497f9722a3daafe3b4186f6b6457e09190a35050565b6000602082840312156104a657600080fd5b5035919050565b6000602082840312156104bf57600080fd5b81356001600160a01b03811681146104d657600080fd5b9392505050565b6020808252825182820181905260009190848201906040850190845b81811015610515578351835292840192918401916001016104f9565b50909695505050505050565b634e487b7160e01b600052601160045260246000fd5b8082018082111561054a5761054a610521565b92915050565b60008261056d57634e487b7160e01b600052601260045260246000fd5b500690565b634e487b7160e01b600052603260045260246000fd5b60006001820161059a5761059a610521565b506001019056fea26469706673582212206663192604f1908546d358b1e5c531a5d2d8418f5c0e39cd86b530e9be1efa4c64736f6c63430008180033",
  "linkReferences": {},
  "deployedLinkReferences": {}
}