{
  "_format": "hh-sol-artifact-1",
  "contractName": "GameItemsMarketplace",
  "sourceName": "contracts/GameItemsMarketplace.sol",
  "abi": [
    {
      "inputs": [
        {
          "internalType": "address",
          "name": "_gameItemContract",
          "type": "address"
        },
        {
          "internalType": "address",
          "name": "_magicTokenContract",
          "type": "address"
        }
      ],
      "stateMutability": "nonpayable",
      "type": "constructor"
    },
    {
      "inputs": [],
      "name": "MarketplaceInsufficientBalance",
      "type": "error"
    },
    {
      "inputs": [],
      "name": "NotTheOwnerOfItem",
      "type": "error"
    },
    {
      "inputs": [
        {
          "internalType": "address",
          "name": "owner",
          "type": "address"
        }
      ],
      "name": "OwnableInvalidOwner",
      "type": "error"
    },
    {
      "inputs": [
        {
          "internalType": "address",
          "name": "account",
          "type": "address"
        }
      ],
      "name": "OwnableUnauthorizedAccount",
      "type": "error"
    },
    {
      "anonymous": false,
      "inputs": [
        {
          "indexed": true,
          "internalType": "address",
          "name": "previousOwner",
          "type": "address"
        },
        {
          "indexed": true,
          "internalType": "address",
          "name": "newOwner",
          "type": "address"
        }
      ],
      "name": "OwnershipTransferred",
      "type": "event"
    },
    {
      "inputs": [],
      "name": "gameItemContract",
      "outputs": [
        {
          "internalType": "contract GameItemNFT721",
          "name": "",
          "type": "address"
        }
      ],
      "stateMutability": "view",
      "type": "function"
    },
    {
      "inputs": [
        {
          "internalType": "uint256",
          "name": "",
          "type": "uint256"
        }
      ],
      "name": "itemsTypesPrices",
      "outputs": [
        {
          "internalType": "uint256",
          "name": "",
          "type": "uint256"
        }
      ],
      "stateMutability": "view",
      "type": "function"
    },
    {
      "inputs": [],
      "name": "magicTokenContract",
      "outputs": [
        {
          "internalType": "contract MagicToken",
          "name": "",
          "type": "address"
        }
      ],
      "stateMutability": "view",
      "type": "function"
    },
    {
      "inputs": [],
      "name": "owner",
      "outputs": [
        {
          "internalType": "address",
          "name": "",
          "type": "address"
        }
      ],
      "stateMutability": "view",
      "type": "function"
    },
    {
      "inputs": [],
      "name": "renounceOwnership",
      "outputs": [],
      "stateMutability": "nonpayable",
      "type": "function"
    },
    {
      "inputs": [
        {
          "internalType": "uint256",
          "name": "tokenId",
          "type": "uint256"
        }
      ],
      "name": "sellItem",
      "outputs": [],
      "stateMutability": "nonpayable",
      "type": "function"
    },
    {
      "inputs": [
        {
          "internalType": "uint256",
          "name": "tokenItemType",
          "type": "uint256"
        },
        {
          "internalType": "uint256",
          "name": "price",
          "type": "uint256"
        }
      ],
      "name": "setItemTypesPrices",
      "outputs": [],
      "stateMutability": "nonpayable",
      "type": "function"
    },
    {
      "inputs": [
        {
          "internalType": "address",
          "name": "newOwner",
          "type": "address"
        }
      ],
      "name": "transferOwnership",
      "outputs": [],
      "stateMutability": "nonpayable",
      "type": "function"
    }
  ],
  "bytecode": "0x60806040523480156200001157600080fd5b5060405162000b3838038062000b3883398101604081905262000034916200044e565b33806200005b57604051631e4fbdf760e01b81526000600482015260240160405180910390fd5b6200006681620003e1565b50600180546001600160a01b038085166001600160a01b0319928316179092556002805492841692909116821790556040805163313ce56760e01b815290516000929163313ce5679160048083019260209291908290030181865afa158015620000d4573d6000803e3d6000fd5b505050506040513d601f19601f82011682018060405250810190620000fa919062000486565b60ff1690506200010c600282620004c8565b6200011990600a620005e1565b62000126906001620005ef565b60036000600160009054906101000a90046001600160a01b03166001600160a01b031663e08fc9de6040518163ffffffff1660e01b8152600401602060405180830381865afa1580156200017e573d6000803e3d6000fd5b505050506040513d601f19601f82011682018060405250810190620001a4919062000609565b8152602081019190915260400160002055620001c2600282620004c8565b620001cf90600a620005e1565b620001dc906002620005ef565b60036000600160009054906101000a90046001600160a01b03166001600160a01b03166323c6dcf16040518163ffffffff1660e01b8152600401602060405180830381865afa15801562000234573d6000803e3d6000fd5b505050506040513d601f19601f820116820180604052508101906200025a919062000609565b815260208101919091526040016000205562000278600282620004c8565b6200028590600a620005e1565b62000292906003620005ef565b60036000600160009054906101000a90046001600160a01b03166001600160a01b03166397c6e24d6040518163ffffffff1660e01b8152600401602060405180830381865afa158015620002ea573d6000803e3d6000fd5b505050506040513d601f19601f8201168201806040525081019062000310919062000609565b81526020810191909152604001600020556200032e600282620004c8565b6200033b90600a620005e1565b62000348906004620005ef565b60036000600160009054906101000a90046001600160a01b03166001600160a01b031663de0782486040518163ffffffff1660e01b8152600401602060405180830381865afa158015620003a0573d6000803e3d6000fd5b505050506040513d601f19601f82011682018060405250810190620003c6919062000609565b81526020019081526020016000208190555050505062000623565b600080546001600160a01b038381166001600160a01b0319831681178455604051919092169283917f8be0079c531659141344cd1fd0a4f28419497f9722a3daafe3b4186f6b6457e09190a35050565b80516001600160a01b03811681146200044957600080fd5b919050565b600080604083850312156200046257600080fd5b6200046d8362000431565b91506200047d6020840162000431565b90509250929050565b6000602082840312156200049957600080fd5b815160ff81168114620004ab57600080fd5b9392505050565b634e487b7160e01b600052601160045260246000fd5b81810381811115620004de57620004de620004b2565b92915050565b600181815b8085111562000525578160001904821115620005095762000509620004b2565b808516156200051757918102915b93841c9390800290620004e9565b509250929050565b6000826200053e57506001620004de565b816200054d57506000620004de565b8160018114620005665760028114620005715762000591565b6001915050620004de565b60ff841115620005855762000585620004b2565b50506001821b620004de565b5060208310610133831016604e8410600b8410161715620005b6575081810a620004de565b620005c28383620004e4565b8060001904821115620005d957620005d9620004b2565b029392505050565b6000620004ab83836200052d565b8082028115828204841417620004de57620004de620004b2565b6000602082840312156200061c57600080fd5b5051919050565b61050580620006336000396000f3fe608060405234801561001057600080fd5b50600436106100885760003560e01c806391b6be9a1161005b57806391b6be9a14610106578063dd7bd16614610119578063f2fde38b1461012c578063f9be04ca1461013f57600080fd5b8063250fd4a71461008d578063297237b7146100bd578063715018a6146100eb5780638da5cb5b146100f5575b600080fd5b6002546100a0906001600160a01b031681565b6040516001600160a01b0390911681526020015b60405180910390f35b6100dd6100cb366004610425565b60036020526000908152604090205481565b6040519081526020016100b4565b6100f3610152565b005b6000546001600160a01b03166100a0565b6100f3610114366004610425565b610166565b6100f361012736600461043e565b61034b565b6100f361013a366004610475565b610365565b6001546100a0906001600160a01b031681565b61015a6103a8565b61016460006103d5565b565b6001546040516331a9108f60e11b8152600481018390526000916001600160a01b031690636352211e90602401602060405180830381865afa1580156101b0573d6000803e3d6000fd5b505050506040513d601f19601f820116820180604052508101906101d49190610499565b90506001600160a01b03811633146101ff57604051634786f4db60e11b815260040160405180910390fd5b6001546040516309f4531360e31b8152600481018490526000916001600160a01b031690634fa2989890602401602060405180830381865afa158015610249573d6000803e3d6000fd5b505050506040513d601f19601f8201168201806040525081019061026d91906104b6565b60008181526003602052604090819020546001549151630852cd8d60e31b815260048101879052929350916001600160a01b03909116906342966c6890602401600060405180830381600087803b1580156102c757600080fd5b505af11580156102db573d6000803e3d6000fd5b50506002546040516340c10f1960e01b81526001600160a01b0387811660048301526024820186905290911692506340c10f199150604401600060405180830381600087803b15801561032d57600080fd5b505af1158015610341573d6000803e3d6000fd5b5050505050505050565b6103536103a8565b60009182526003602052604090912055565b61036d6103a8565b6001600160a01b03811661039c57604051631e4fbdf760e01b8152600060048201526024015b60405180910390fd5b6103a5816103d5565b50565b6000546001600160a01b031633146101645760405163118cdaa760e01b8152336004820152602401610393565b600080546001600160a01b038381166001600160a01b0319831681178455604051919092169283917f8be0079c531659141344cd1fd0a4f28419497f9722a3daafe3b4186f6b6457e09190a35050565b60006020828403121561043757600080fd5b5035919050565b6000806040838503121561045157600080fd5b50508035926020909101359150565b6001600160a01b03811681146103a557600080fd5b60006020828403121561048757600080fd5b813561049281610460565b9392505050565b6000602082840312156104ab57600080fd5b815161049281610460565b6000602082840312156104c857600080fd5b505191905056fea26469706673582212206af0aa2f601501ba3e9147d715eb93aba6fb14cb2b9143ff5fc60f7e316e178064736f6c63430008180033",
  "linkReferences": {},
  "deployedLinkReferences": {}
}