{
  "_format": "hh-sol-artifact-1",
  "contractName": "ResourceCrafting",
  "sourceName": "contracts/ResourceCrafting.sol",
  "abi": [
    {
      "inputs": [
        {
          "internalType": "address",
          "name": "_resourceContract",
          "type": "address"
        },
        {
          "internalType": "address",
          "name": "_gameItemContract",
          "type": "address"
        }
      ],
      "stateMutability": "nonpayable",
      "type": "constructor"
    },
    {
      "inputs": [
        {
          "internalType": "uint256",
          "name": "resourceId",
          "type": "uint256"
        },
        {
          "internalType": "uint256",
          "name": "requiredAmount",
          "type": "uint256"
        },
        {
          "internalType": "uint256",
          "name": "availableAmount",
          "type": "uint256"
        }
      ],
      "name": "InsufficientResources",
      "type": "error"
    },
    {
      "inputs": [
        {
          "internalType": "uint256",
          "name": "recipeId",
          "type": "uint256"
        }
      ],
      "name": "InvalidRecipeIndex",
      "type": "error"
    },
    {
      "inputs": [
        {
          "internalType": "uint256",
          "name": "recipeId",
          "type": "uint256"
        }
      ],
      "name": "craftItem",
      "outputs": [],
      "stateMutability": "nonpayable",
      "type": "function"
    },
    {
      "inputs": [],
      "name": "gameItemContract",
      "outputs": [
        {
          "internalType": "contract GameItemNFT721",
          "name": "",
          "type": "address"
        }
      ],
      "stateMutability": "view",
      "type": "function"
    },
    {
      "inputs": [
        {
          "internalType": "uint256",
          "name": "",
          "type": "uint256"
        },
        {
          "internalType": "uint256",
          "name": "",
          "type": "uint256"
        }
      ],
      "name": "recipesResources",
      "outputs": [
        {
          "internalType": "uint256",
          "name": "resourceId",
          "type": "uint256"
        },
        {
          "internalType": "uint256",
          "name": "amount",
          "type": "uint256"
        }
      ],
      "stateMutability": "view",
      "type": "function"
    },
    {
      "inputs": [],
      "name": "resourceContract",
      "outputs": [
        {
          "internalType": "contract ResourceNFT1155",
          "name": "",
          "type": "address"
        }
      ],
      "stateMutability": "view",
      "type": "function"
    }
  ],
  "bytecode": "0x608060405234801561001057600080fd5b50604051610bb1380380610bb183398101604081905261002f916106f9565b600080546001600160a01b03199081166001600160a01b038581169182178455600180549093169085161790915560408051631fd81bcd60e01b81529051631fd81bcd916004808201926020929091908290030181865afa158015610098573d6000803e3d6000fd5b505050506040513d601f19601f820116820180604052508101906100bc919061072c565b905060008060009054906101000a90046001600160a01b03166001600160a01b0316635653e3ac6040518163ffffffff1660e01b8152600401602060405180830381865afa158015610112573d6000803e3d6000fd5b505050506040513d601f19601f82011682018060405250810190610136919061072c565b905060008060009054906101000a90046001600160a01b03166001600160a01b0316637c491b256040518163ffffffff1660e01b8152600401602060405180830381865afa15801561018c573d6000803e3d6000fd5b505050506040513d601f19601f820116820180604052508101906101b0919061072c565b905060008060009054906101000a90046001600160a01b03166001600160a01b0316633e4bee386040518163ffffffff1660e01b8152600401602060405180830381865afa158015610206573d6000803e3d6000fd5b505050506040513d601f19601f8201168201806040525081019061022a919061072c565b905060008060009054906101000a90046001600160a01b03166001600160a01b031663206545c26040518163ffffffff1660e01b8152600401602060405180830381865afa158015610280573d6000803e3d6000fd5b505050506040513d601f19601f820116820180604052508101906102a4919061072c565b90506000600160009054906101000a90046001600160a01b03166001600160a01b031663e08fc9de6040518163ffffffff1660e01b8152600401602060405180830381865afa1580156102fb573d6000803e3d6000fd5b505050506040513d601f19601f8201168201806040525081019061031f919061072c565b90506000600160009054906101000a90046001600160a01b03166001600160a01b03166323c6dcf16040518163ffffffff1660e01b8152600401602060405180830381865afa158015610376573d6000803e3d6000fd5b505050506040513d601f19601f8201168201806040525081019061039a919061072c565b90506000600160009054906101000a90046001600160a01b03166001600160a01b03166397c6e24d6040518163ffffffff1660e01b8152600401602060405180830381865afa1580156103f1573d6000803e3d6000fd5b505050506040513d601f19601f82011682018060405250810190610415919061072c565b90506000600160009054906101000a90046001600160a01b03166001600160a01b031663de0782486040518163ffffffff1660e01b8152600401602060405180830381865afa15801561046c573d6000803e3d6000fd5b505050506040513d601f19601f82011682018060405250810190610490919061072c565b6000948552600260208181526040808820815180830183528e81526003818501908152825460018181018555848d52868d2093519188028401918255915190820155835180850185528f815280860182815284548084018655858e52915191880284019182555190820155835180850185528e815280860182815284548084018655948d529051938702909201928355905191810191909155968852828252808820815180830183529c8d528c83018481528154808a018355828b52848b209e519086028f01908155905190890155815180830183528b81528084018981528254808b018455838c5291519186028f019182555190890155815180830183528a81528084018981528254808b018455928b529051918502909d019081559b519b87019b909b559386528084528986208a51808c018c52998a5260048a860181815282548089018455838a52878a209c519085028d019081559051908801558b51808d018d528d81528087018481528354808a018555848b5291519185028d0191825551908801558b51808d018d528a81528087018881528354808a018555938a529051928402909b019182559951908601559085528083528885208951808b018b529a8b528a8401988952805480860182558187528487209b519083028c019081559851988501989098558851808a018a5296875286830181815288548086018a5589875297519782028b01978855519684019690965550865180880190975292865291850183815284548084018655949091529351929091029093019081559051910155506107459050565b80516001600160a01b03811681146106f457600080fd5b919050565b6000806040838503121561070c57600080fd5b610715836106dd565b9150610723602084016106dd565b90509250929050565b60006020828403121561073e57600080fd5b5051919050565b61045d806107546000396000f3fe608060405234801561001057600080fd5b506004361061004c5760003560e01c80637309cbbd1461005157806396c3cd7e14610066578063b42fdd0d14610096578063f9be04ca146100be575b600080fd5b61006461005f3660046103bd565b6100d1565b005b600054610079906001600160a01b031681565b6040516001600160a01b0390911681526020015b60405180910390f35b6100a96100a43660046103d6565b610381565b6040805192835260208301919091520161008d565b600154610079906001600160a01b031681565b600081815260026020908152604080832080548251818502810185019093528083529192909190849084015b82821015610143578382906000526020600020906002020160405180604001604052908160008201548152602001600182015481525050815260200190600101906100fd565b5050505090508051600003610173576040516334f64f5360e21b8152600481018390526024015b60405180910390fd5b60005b815181101561030a576000828281518110610193576101936103f8565b602090810291909101015160008054919250906001600160a01b031662fdd58e338686815181106101c6576101c66103f8565b6020908102919091010151516040516001600160e01b031960e085901b1681526001600160a01b0390921660048301526024820152604401602060405180830381865afa15801561021b573d6000803e3d6000fd5b505050506040513d601f19601f8201168201806040525081019061023f919061040e565b9050816020015181101561027d5781516020830151604051633e0adab560e11b8152600481019290925260248201526044810182905260640161016a565b6000546001600160a01b031663f5298aca338451602086015160405160e085901b6001600160e01b03191681526001600160a01b03909316600484015260248301919091526044820152606401600060405180830381600087803b1580156102e457600080fd5b505af11580156102f8573d6000803e3d6000fd5b50506001909401935061017692505050565b506001546001600160a01b03166340c10f19336040516001600160e01b031960e084901b1681526001600160a01b03909116600482015260248101859052604401600060405180830381600087803b15801561036557600080fd5b505af1158015610379573d6000803e3d6000fd5b505050505050565b6002602052816000526040600020818154811061039d57600080fd5b600091825260209091206002909102018054600190910154909250905082565b6000602082840312156103cf57600080fd5b5035919050565b600080604083850312156103e957600080fd5b50508035926020909101359150565b634e487b7160e01b600052603260045260246000fd5b60006020828403121561042057600080fd5b505191905056fea26469706673582212207ba1425ea48c1817202d0af87c65bfd6693ebbb92691688aa922073faced96b164736f6c63430008180033",
  "linkReferences": {},
  "deployedLinkReferences": {}
}