{
  "_format": "hh-sol-artifact-1",
  "contractName": "ResourceNFT1155",
  "sourceName": "contracts/ResourceNFT1155.sol",
  "abi": [
    {
      "inputs": [],
      "stateMutability": "nonpayable",
      "type": "constructor"
    },
    {
      "inputs": [],
      "name": "AccessControlBadConfirmation",
      "type": "error"
    },
    {
      "inputs": [
        {
          "internalType": "address",
          "name": "account",
          "type": "address"
        },
        {
          "internalType": "bytes32",
          "name": "neededRole",
          "type": "bytes32"
        }
      ],
      "name": "AccessControlUnauthorizedAccount",
      "type": "error"
    },
    {
      "inputs": [
        {
          "internalType": "address",
          "name": "sender",
          "type": "address"
        },
        {
          "internalType": "uint256",
          "name": "balance",
          "type": "uint256"
        },
        {
          "internalType": "uint256",
          "name": "needed",
          "type": "uint256"
        },
        {
          "internalType": "uint256",
          "name": "tokenId",
          "type": "uint256"
        }
      ],
      "name": "ERC1155InsufficientBalance",
      "type": "error"
    },
    {
      "inputs": [
        {
          "internalType": "address",
          "name": "approver",
          "type": "address"
        }
      ],
      "name": "ERC1155InvalidApprover",
      "type": "error"
    },
    {
      "inputs": [
        {
          "internalType": "uint256",
          "name": "idsLength",
          "type": "uint256"
        },
        {
          "internalType": "uint256",
          "name": "valuesLength",
          "type": "uint256"
        }
      ],
      "name": "ERC1155InvalidArrayLength",
      "type": "error"
    },
    {
      "inputs": [
        {
          "internalType": "address",
          "name": "operator",
          "type": "address"
        }
      ],
      "name": "ERC1155InvalidOperator",
      "type": "error"
    },
    {
      "inputs": [
        {
          "internalType": "address",
          "name": "receiver",
          "type": "address"
        }
      ],
      "name": "ERC1155InvalidReceiver",
      "type": "error"
    },
    {
      "inputs": [
        {
          "internalType": "address",
          "name": "sender",
          "type": "address"
        }
      ],
      "name": "ERC1155InvalidSender",
      "type": "error"
    },
    {
      "inputs": [
        {
          "internalType": "address",
          "name": "operator",
          "type": "address"
        },
        {
          "internalType": "address",
          "name": "owner",
          "type": "address"
        }
      ],
      "name": "ERC1155MissingApprovalForAll",
      "type": "error"
    },
    {
      "anonymous": false,
      "inputs": [
        {
          "indexed": true,
          "internalType": "address",
          "name": "account",
          "type": "address"
        },
        {
          "indexed": true,
          "internalType": "address",
          "name": "operator",
          "type": "address"
        },
        {
          "indexed": false,
          "internalType": "bool",
          "name": "approved",
          "type": "bool"
        }
      ],
      "name": "ApprovalForAll",
      "type": "event"
    },
    {
      "anonymous": false,
      "inputs": [
        {
          "indexed": true,
          "internalType": "bytes32",
          "name": "role",
          "type": "bytes32"
        },
        {
          "indexed": true,
          "internalType": "bytes32",
          "name": "previousAdminRole",
          "type": "bytes32"
        },
        {
          "indexed": true,
          "internalType": "bytes32",
          "name": "newAdminRole",
          "type": "bytes32"
        }
      ],
      "name": "RoleAdminChanged",
      "type": "event"
    },
    {
      "anonymous": false,
      "inputs": [
        {
          "indexed": true,
          "internalType": "bytes32",
          "name": "role",
          "type": "bytes32"
        },
        {
          "indexed": true,
          "internalType": "address",
          "name": "account",
          "type": "address"
        },
        {
          "indexed": true,
          "internalType": "address",
          "name": "sender",
          "type": "address"
        }
      ],
      "name": "RoleGranted",
      "type": "event"
    },
    {
      "anonymous": false,
      "inputs": [
        {
          "indexed": true,
          "internalType": "bytes32",
          "name": "role",
          "type": "bytes32"
        },
        {
          "indexed": true,
          "internalType": "address",
          "name": "account",
          "type": "address"
        },
        {
          "indexed": true,
          "internalType": "address",
          "name": "sender",
          "type": "address"
        }
      ],
      "name": "RoleRevoked",
      "type": "event"
    },
    {
      "anonymous": false,
      "inputs": [
        {
          "indexed": true,
          "internalType": "address",
          "name": "operator",
          "type": "address"
        },
        {
          "indexed": true,
          "internalType": "address",
          "name": "from",
          "type": "address"
        },
        {
          "indexed": true,
          "internalType": "address",
          "name": "to",
          "type": "address"
        },
        {
          "indexed": false,
          "internalType": "uint256[]",
          "name": "ids",
          "type": "uint256[]"
        },
        {
          "indexed": false,
          "internalType": "uint256[]",
          "name": "values",
          "type": "uint256[]"
        }
      ],
      "name": "TransferBatch",
      "type": "event"
    },
    {
      "anonymous": false,
      "inputs": [
        {
          "indexed": true,
          "internalType": "address",
          "name": "operator",
          "type": "address"
        },
        {
          "indexed": true,
          "internalType": "address",
          "name": "from",
          "type": "address"
        },
        {
          "indexed": true,
          "internalType": "address",
          "name": "to",
          "type": "address"
        },
        {
          "indexed": false,
          "internalType": "uint256",
          "name": "id",
          "type": "uint256"
        },
        {
          "indexed": false,
          "internalType": "uint256",
          "name": "value",
          "type": "uint256"
        }
      ],
      "name": "TransferSingle",
      "type": "event"
    },
    {
      "anonymous": false,
      "inputs": [
        {
          "indexed": false,
          "internalType": "string",
          "name": "value",
          "type": "string"
        },
        {
          "indexed": true,
          "internalType": "uint256",
          "name": "id",
          "type": "uint256"
        }
      ],
      "name": "URI",
      "type": "event"
    },
    {
      "inputs": [],
      "name": "BURNER_ROLE",
      "outputs": [
        {
          "internalType": "bytes32",
          "name": "",
          "type": "bytes32"
        }
      ],
      "stateMutability": "view",
      "type": "function"
    },
    {
      "inputs": [],
      "name": "DEFAULT_ADMIN_ROLE",
      "outputs": [
        {
          "internalType": "bytes32",
          "name": "",
          "type": "bytes32"
        }
      ],
      "stateMutability": "view",
      "type": "function"
    },
    {
      "inputs": [],
      "name": "DIAMOND",
      "outputs": [
        {
          "internalType": "uint256",
          "name": "",
          "type": "uint256"
        }
      ],
      "stateMutability": "view",
      "type": "function"
    },
    {
      "inputs": [],
      "name": "GOLD",
      "outputs": [
        {
          "internalType": "uint256",
          "name": "",
          "type": "uint256"
        }
      ],
      "stateMutability": "view",
      "type": "function"
    },
    {
      "inputs": [],
      "name": "IRON",
      "outputs": [
        {
          "internalType": "uint256",
          "name": "",
          "type": "uint256"
        }
      ],
      "stateMutability": "view",
      "type": "function"
    },
    {
      "inputs": [],
      "name": "LEATHER",
      "outputs": [
        {
          "internalType": "uint256",
          "name": "",
          "type": "uint256"
        }
      ],
      "stateMutability": "view",
      "type": "function"
    },
    {
      "inputs": [],
      "name": "MINTER_ROLE",
      "outputs": [
        {
          "internalType": "bytes32",
          "name": "",
          "type": "bytes32"
        }
      ],
      "stateMutability": "view",
      "type": "function"
    },
    {
      "inputs": [],
      "name": "STONE",
      "outputs": [
        {
          "internalType": "uint256",
          "name": "",
          "type": "uint256"
        }
      ],
      "stateMutability": "view",
      "type": "function"
    },
    {
      "inputs": [],
      "name": "WOOD",
      "outputs": [
        {
          "internalType": "uint256",
          "name": "",
          "type": "uint256"
        }
      ],
      "stateMutability": "view",
      "type": "function"
    },
    {
      "inputs": [
        {
          "internalType": "address",
          "name": "account",
          "type": "address"
        },
        {
          "internalType": "uint256",
          "name": "id",
          "type": "uint256"
        }
      ],
      "name": "balanceOf",
      "outputs": [
        {
          "internalType": "uint256",
          "name": "",
          "type": "uint256"
        }
      ],
      "stateMutability": "view",
      "type": "function"
    },
    {
      "inputs": [
        {
          "internalType": "address[]",
          "name": "accounts",
          "type": "address[]"
        },
        {
          "internalType": "uint256[]",
          "name": "ids",
          "type": "uint256[]"
        }
      ],
      "name": "balanceOfBatch",
      "outputs": [
        {
          "internalType": "uint256[]",
          "name": "",
          "type": "uint256[]"
        }
      ],
      "stateMutability": "view",
      "type": "function"
    },
    {
      "inputs": [
        {
          "internalType": "address",
          "name": "account",
          "type": "address"
        },
        {
          "internalType": "uint256",
          "name": "id",
          "type": "uint256"
        },
        {
          "internalType": "uint256",
          "name": "amount",
          "type": "uint256"
        }
      ],
      "name": "burn",
      "outputs": [],
      "stateMutability": "nonpayable",
      "type": "function"
    },
    {
      "inputs": [
        {
          "internalType": "bytes32",
          "name": "role",
          "type": "bytes32"
        }
      ],
      "name": "getRoleAdmin",
      "outputs": [
        {
          "internalType": "bytes32",
          "name": "",
          "type": "bytes32"
        }
      ],
      "stateMutability": "view",
      "type": "function"
    },
    {
      "inputs": [
        {
          "internalType": "bytes32",
          "name": "role",
          "type": "bytes32"
        },
        {
          "internalType": "address",
          "name": "account",
          "type": "address"
        }
      ],
      "name": "grantRole",
      "outputs": [],
      "stateMutability": "nonpayable",
      "type": "function"
    },
    {
      "inputs": [
        {
          "internalType": "bytes32",
          "name": "role",
          "type": "bytes32"
        },
        {
          "internalType": "address",
          "name": "account",
          "type": "address"
        }
      ],
      "name": "hasRole",
      "outputs": [
        {
          "internalType": "bool",
          "name": "",
          "type": "bool"
        }
      ],
      "stateMutability": "view",
      "type": "function"
    },
    {
      "inputs": [
        {
          "internalType": "address",
          "name": "account",
          "type": "address"
        },
        {
          "internalType": "address",
          "name": "operator",
          "type": "address"
        }
      ],
      "name": "isApprovedForAll",
      "outputs": [
        {
          "internalType": "bool",
          "name": "",
          "type": "bool"
        }
      ],
      "stateMutability": "view",
      "type": "function"
    },
    {
      "inputs": [
        {
          "internalType": "address",
          "name": "account",
          "type": "address"
        },
        {
          "internalType": "uint256",
          "name": "id",
          "type": "uint256"
        },
        {
          "internalType": "uint256",
          "name": "amount",
          "type": "uint256"
        }
      ],
      "name": "mint",
      "outputs": [],
      "stateMutability": "nonpayable",
      "type": "function"
    },
    {
      "inputs": [
        {
          "internalType": "bytes32",
          "name": "role",
          "type": "bytes32"
        },
        {
          "internalType": "address",
          "name": "callerConfirmation",
          "type": "address"
        }
      ],
      "name": "renounceRole",
      "outputs": [],
      "stateMutability": "nonpayable",
      "type": "function"
    },
    {
      "inputs": [
        {
          "internalType": "bytes32",
          "name": "role",
          "type": "bytes32"
        },
        {
          "internalType": "address",
          "name": "account",
          "type": "address"
        }
      ],
      "name": "revokeRole",
      "outputs": [],
      "stateMutability": "nonpayable",
      "type": "function"
    },
    {
      "inputs": [
        {
          "internalType": "address",
          "name": "from",
          "type": "address"
        },
        {
          "internalType": "address",
          "name": "to",
          "type": "address"
        },
        {
          "internalType": "uint256[]",
          "name": "ids",
          "type": "uint256[]"
        },
        {
          "internalType": "uint256[]",
          "name": "values",
          "type": "uint256[]"
        },
        {
          "internalType": "bytes",
          "name": "data",
          "type": "bytes"
        }
      ],
      "name": "safeBatchTransferFrom",
      "outputs": [],
      "stateMutability": "nonpayable",
      "type": "function"
    },
    {
      "inputs": [
        {
          "internalType": "address",
          "name": "from",
          "type": "address"
        },
        {
          "internalType": "address",
          "name": "to",
          "type": "address"
        },
        {
          "internalType": "uint256",
          "name": "id",
          "type": "uint256"
        },
        {
          "internalType": "uint256",
          "name": "value",
          "type": "uint256"
        },
        {
          "internalType": "bytes",
          "name": "data",
          "type": "bytes"
        }
      ],
      "name": "safeTransferFrom",
      "outputs": [],
      "stateMutability": "nonpayable",
      "type": "function"
    },
    {
      "inputs": [
        {
          "internalType": "address",
          "name": "operator",
          "type": "address"
        },
        {
          "internalType": "bool",
          "name": "approved",
          "type": "bool"
        }
      ],
      "name": "setApprovalForAll",
      "outputs": [],
      "stateMutability": "nonpayable",
      "type": "function"
    },
    {
      "inputs": [
        {
          "internalType": "bytes4",
          "name": "interfaceId",
          "type": "bytes4"
        }
      ],
      "name": "supportsInterface",
      "outputs": [
        {
          "internalType": "bool",
          "name": "",
          "type": "bool"
        }
      ],
      "stateMutability": "view",
      "type": "function"
    },
    {
      "inputs": [
        {
          "internalType": "uint256",
          "name": "",
          "type": "uint256"
        }
      ],
      "name": "uri",
      "outputs": [
        {
          "internalType": "string",
          "name": "",
          "type": "string"
        }
      ],
      "stateMutability": "view",
      "type": "function"
    }
  ],
  "bytecode": "0x60806040523480156200001157600080fd5b50604051806060016040528060328152602001620018d76032913962000037816200004c565b50620000456000336200005e565b5062000284565b60026200005a8282620001b8565b5050565b60008281526003602090815260408083206001600160a01b038516845290915281205460ff16620001075760008381526003602090815260408083206001600160a01b03861684529091529020805460ff19166001179055620000be3390565b6001600160a01b0316826001600160a01b0316847f2f8788117e7eff1d82e926ec794901d17c78024a50270940304540a733656f0d60405160405180910390a45060016200010b565b5060005b92915050565b634e487b7160e01b600052604160045260246000fd5b600181811c908216806200013c57607f821691505b6020821081036200015d57634e487b7160e01b600052602260045260246000fd5b50919050565b601f821115620001b3576000816000526020600020601f850160051c810160208610156200018e5750805b601f850160051c820191505b81811015620001af578281556001016200019a565b5050505b505050565b81516001600160401b03811115620001d457620001d462000111565b620001ec81620001e5845462000127565b8462000163565b602080601f8311600181146200022457600084156200020b5750858301515b600019600386901b1c1916600185901b178555620001af565b600085815260208120601f198616915b82811015620002555788860151825594840194600190910190840162000234565b5085821015620002745787850151600019600388901b60f8161c191681555b5050505050600190811b01905550565b61164380620002946000396000f3fe608060405234801561001057600080fd5b50600436106101575760003560e01c80634e1273f4116100c3578063a22cb4651161007c578063a22cb465146102c0578063d5391393146102d3578063d547741f146102fa578063e985e9c51461030d578063f242432a14610320578063f5298aca1461033357600080fd5b80634e1273f4146102755780635653e3ac1461029557806369f9901e1461029d5780637c491b25146102a557806391d14854146102ad578063a217fddf1461029557600080fd5b8063248a9ca311610115578063248a9ca3146101ea578063282c51f31461020d5780632eb2c2d6146102345780632f2ff15d1461024757806336568abe1461025a5780633e4bee381461026d57600080fd5b8062fdd58e1461015c57806301ffc9a7146101825780630e89341c146101a5578063156e29f6146101c55780631fd81bcd146101da578063206545c2146101e2575b600080fd5b61016f61016a366004610fab565b610346565b6040519081526020015b60405180910390f35b610195610190366004610feb565b61036e565b6040519015158152602001610179565b6101b86101b336600461100f565b610379565b604051610179919061106e565b6101d86101d3366004611081565b61040d565b005b61016f600181565b61016f600581565b61016f6101f836600461100f565b60009081526003602052604090206001015490565b61016f7f3c11d16cbaffd01df69ce1c404f6340ee057498f5f00246190ea54220576a84881565b6101d86102423660046111fe565b610458565b6101d86102553660046112a8565b6104c4565b6101d86102683660046112a8565b6104e9565b61016f600281565b6102886102833660046112d4565b610521565b60405161017991906113d0565b61016f600081565b61016f600481565b61016f600381565b6101956102bb3660046112a8565b6105ee565b6101d86102ce3660046113e3565b610619565b61016f7f9f2df0fed2c77648de5860a4cc508cd0818c85b8b8a1ab4ceeef8d981c8956a681565b6101d86103083660046112a8565b610628565b61019561031b36600461141f565b61064d565b6101d861032e366004611449565b61067b565b6101d8610341366004611081565b6106da565b6000818152602081815260408083206001600160a01b03861684529091529020545b92915050565b60006103688261070f565b606060028054610388906114ae565b80601f01602080910402602001604051908101604052809291908181526020018280546103b4906114ae565b80156104015780601f106103d657610100808354040283529160200191610401565b820191906000526020600020905b8154815290600101906020018083116103e457829003601f168201915b50505050509050919050565b7f9f2df0fed2c77648de5860a4cc508cd0818c85b8b8a1ab4ceeef8d981c8956a661043781610734565b61045284848460405180602001604052806000815250610741565b50505050565b336001600160a01b03861681148015906104795750610477868261064d565b155b156104af5760405163711bec9160e11b81526001600160a01b038083166004830152871660248201526044015b60405180910390fd5b6104bc868686868661079e565b505050505050565b6000828152600360205260409020600101546104df81610734565b6104528383610805565b6001600160a01b03811633146105125760405163334bd91960e11b815260040160405180910390fd5b61051c8282610899565b505050565b606081518351146105525781518351604051635b05999160e01b8152600481019290925260248201526044016104a6565b6000835167ffffffffffffffff81111561056e5761056e6110b4565b604051908082528060200260200182016040528015610597578160200160208202803683370190505b50905060005b84518110156105e6576020808202860101516105c190602080840287010151610346565b8282815181106105d3576105d36114e8565b602090810291909101015260010161059d565b509392505050565b60009182526003602090815260408084206001600160a01b0393909316845291905290205460ff1690565b610624338383610906565b5050565b60008281526003602052604090206001015461064381610734565b6104528383610899565b6001600160a01b03918216600090815260016020908152604080832093909416825291909152205460ff1690565b336001600160a01b038616811480159061069c575061069a868261064d565b155b156106cd5760405163711bec9160e11b81526001600160a01b038083166004830152871660248201526044016104a6565b6104bc868686868661099c565b7f3c11d16cbaffd01df69ce1c404f6340ee057498f5f00246190ea54220576a84861070481610734565b610452848484610a2a565b60006001600160e01b03198216637965db0b60e01b1480610368575061036882610a92565b61073e8133610ae2565b50565b6001600160a01b03841661076b57604051632bfa23e760e11b8152600060048201526024016104a6565b604080516001808252602082018690528183019081526060820185905260808201909252906104bc600087848487610b1b565b6001600160a01b0384166107c857604051632bfa23e760e11b8152600060048201526024016104a6565b6001600160a01b0385166107f157604051626a0d4560e21b8152600060048201526024016104a6565b6107fe8585858585610b1b565b5050505050565b600061081183836105ee565b6108915760008381526003602090815260408083206001600160a01b03861684529091529020805460ff191660011790556108493390565b6001600160a01b0316826001600160a01b0316847f2f8788117e7eff1d82e926ec794901d17c78024a50270940304540a733656f0d60405160405180910390a4506001610368565b506000610368565b60006108a583836105ee565b156108915760008381526003602090815260408083206001600160a01b0386168085529252808320805460ff1916905551339286917ff6391f5c32d9c69d2a47ea670b442974b53935d1edc7fd64eb21e047a839171b9190a4506001610368565b6001600160a01b03821661092f5760405162ced3e160e81b8152600060048201526024016104a6565b6001600160a01b03838116600081815260016020908152604080832094871680845294825291829020805460ff191686151590811790915591519182527f17307eab39ab6107e8899845ad3d59bd9653f200f220920489ca2b5937696c31910160405180910390a3505050565b6001600160a01b0384166109c657604051632bfa23e760e11b8152600060048201526024016104a6565b6001600160a01b0385166109ef57604051626a0d4560e21b8152600060048201526024016104a6565b60408051600180825260208201869052818301908152606082018590526080820190925290610a218787848487610b1b565b50505050505050565b6001600160a01b038316610a5357604051626a0d4560e21b8152600060048201526024016104a6565b604080516001808252602082018590528183019081526060820184905260a082019092526000608082018181529192916107fe91879185908590610b1b565b60006001600160e01b03198216636cdb3d1360e11b1480610ac357506001600160e01b031982166303a24d0760e21b145b8061036857506301ffc9a760e01b6001600160e01b0319831614610368565b610aec82826105ee565b6106245760405163e2517d3f60e01b81526001600160a01b0382166004820152602481018390526044016104a6565b610b2785858585610b6e565b6001600160a01b038416156107fe5782513390600103610b605760208481015190840151610b59838989858589610d82565b50506104bc565b6104bc818787878787610ea6565b8051825114610b9d5781518151604051635b05999160e01b8152600481019290925260248201526044016104a6565b3360005b8351811015610ca3576020818102858101820151908501909101516001600160a01b03881615610c54576000828152602081815260408083206001600160a01b038c16845290915290205481811015610c2d576040516303dee4c560e01b81526001600160a01b038a1660048201526024810182905260448101839052606481018490526084016104a6565b6000838152602081815260408083206001600160a01b038d16845290915290209082900390555b6001600160a01b03871615610c99576000828152602081815260408083206001600160a01b038b16845290915281208054839290610c939084906114fe565b90915550505b5050600101610ba1565b508251600103610d245760208301516000906020840151909150856001600160a01b0316876001600160a01b0316846001600160a01b03167fc3d58168c5ae7397731d063d5bbf3d657854427343f4c083240f7aacaa2d0f628585604051610d15929190918252602082015260400190565b60405180910390a450506107fe565b836001600160a01b0316856001600160a01b0316826001600160a01b03167f4a39dc06d4c0dbc64b70af90fd698a233a518aa5d07e595d983b8c0526c8f7fb8686604051610d7392919061151f565b60405180910390a45050505050565b6001600160a01b0384163b156104bc5760405163f23a6e6160e01b81526001600160a01b0385169063f23a6e6190610dc6908990899088908890889060040161154d565b6020604051808303816000875af1925050508015610e01575060408051601f3d908101601f19168201909252610dfe91810190611592565b60015b610e6a573d808015610e2f576040519150601f19603f3d011682016040523d82523d6000602084013e610e34565b606091505b508051600003610e6257604051632bfa23e760e11b81526001600160a01b03861660048201526024016104a6565b805181602001fd5b6001600160e01b0319811663f23a6e6160e01b14610a2157604051632bfa23e760e11b81526001600160a01b03861660048201526024016104a6565b6001600160a01b0384163b156104bc5760405163bc197c8160e01b81526001600160a01b0385169063bc197c8190610eea90899089908890889088906004016115af565b6020604051808303816000875af1925050508015610f25575060408051601f3d908101601f19168201909252610f2291810190611592565b60015b610f53573d808015610e2f576040519150601f19603f3d011682016040523d82523d6000602084013e610e34565b6001600160e01b0319811663bc197c8160e01b14610a2157604051632bfa23e760e11b81526001600160a01b03861660048201526024016104a6565b80356001600160a01b0381168114610fa657600080fd5b919050565b60008060408385031215610fbe57600080fd5b610fc783610f8f565b946020939093013593505050565b6001600160e01b03198116811461073e57600080fd5b600060208284031215610ffd57600080fd5b813561100881610fd5565b9392505050565b60006020828403121561102157600080fd5b5035919050565b6000815180845260005b8181101561104e57602081850181015186830182015201611032565b506000602082860101526020601f19601f83011685010191505092915050565b6020815260006110086020830184611028565b60008060006060848603121561109657600080fd5b61109f84610f8f565b95602085013595506040909401359392505050565b634e487b7160e01b600052604160045260246000fd5b604051601f8201601f1916810167ffffffffffffffff811182821017156110f3576110f36110b4565b604052919050565b600067ffffffffffffffff821115611115576111156110b4565b5060051b60200190565b600082601f83011261113057600080fd5b81356020611145611140836110fb565b6110ca565b8083825260208201915060208460051b87010193508684111561116757600080fd5b602086015b84811015611183578035835291830191830161116c565b509695505050505050565b600082601f83011261119f57600080fd5b813567ffffffffffffffff8111156111b9576111b96110b4565b6111cc601f8201601f19166020016110ca565b8181528460208386010111156111e157600080fd5b816020850160208301376000918101602001919091529392505050565b600080600080600060a0868803121561121657600080fd5b61121f86610f8f565b945061122d60208701610f8f565b9350604086013567ffffffffffffffff8082111561124a57600080fd5b61125689838a0161111f565b9450606088013591508082111561126c57600080fd5b61127889838a0161111f565b9350608088013591508082111561128e57600080fd5b5061129b8882890161118e565b9150509295509295909350565b600080604083850312156112bb57600080fd5b823591506112cb60208401610f8f565b90509250929050565b600080604083850312156112e757600080fd5b823567ffffffffffffffff808211156112ff57600080fd5b818501915085601f83011261131357600080fd5b81356020611323611140836110fb565b82815260059290921b8401810191818101908984111561134257600080fd5b948201945b838610156113675761135886610f8f565b82529482019490820190611347565b9650508601359250508082111561137d57600080fd5b5061138a8582860161111f565b9150509250929050565b60008151808452602080850194506020840160005b838110156113c5578151875295820195908201906001016113a9565b509495945050505050565b6020815260006110086020830184611394565b600080604083850312156113f657600080fd5b6113ff83610f8f565b91506020830135801515811461141457600080fd5b809150509250929050565b6000806040838503121561143257600080fd5b61143b83610f8f565b91506112cb60208401610f8f565b600080600080600060a0868803121561146157600080fd5b61146a86610f8f565b945061147860208701610f8f565b93506040860135925060608601359150608086013567ffffffffffffffff8111156114a257600080fd5b61129b8882890161118e565b600181811c908216806114c257607f821691505b6020821081036114e257634e487b7160e01b600052602260045260246000fd5b50919050565b634e487b7160e01b600052603260045260246000fd5b8082018082111561036857634e487b7160e01b600052601160045260246000fd5b6040815260006115326040830185611394565b82810360208401526115448185611394565b95945050505050565b6001600160a01b03868116825285166020820152604081018490526060810183905260a06080820181905260009061158790830184611028565b979650505050505050565b6000602082840312156115a457600080fd5b815161100881610fd5565b6001600160a01b0386811682528516602082015260a0604082018190526000906115db90830186611394565b82810360608401526115ed8186611394565b905082810360808401526116018185611028565b9897505050505050505056fea2646970667358221220e35648512892a539c5c91870afd06696ac22a1bfa99bd3a44bce72aa0041bb5864736f6c6343000818003368747470733a2f2f636f7373616b2d627573696e6573732e636f6d2e75612f7265736f75726365732f7b69647d2e6a736f6e",
  "linkReferences": {},
  "deployedLinkReferences": {}
}