{
  "_format": "hh-sol-artifact-1",
  "contractName": "VotingRegistry",
  "sourceName": "contracts/VotingRegistry.sol",
  "abi": [
    {
      "inputs": [],
      "stateMutability": "nonpayable",
      "type": "constructor"
    },
    {
      "anonymous": false,
      "inputs": [
        {
          "indexed": false,
          "internalType": "address",
          "name": "contractAddr",
          "type": "address"
        }
      ],
      "name": "ContractRegistered",
      "type": "event"
    },
    {
      "anonymous": false,
      "inputs": [
        {
          "indexed": false,
          "internalType": "address",
          "name": "contractAddr",
          "type": "address"
        }
      ],
      "name": "ContractUnregistered",
      "type": "event"
    },
    {
      "anonymous": false,
      "inputs": [
        {
          "indexed": false,
          "internalType": "address",
          "name": "contractAddr",
          "type": "address"
        },
        {
          "indexed": false,
          "internalType": "uint256",
          "name": "voteId",
          "type": "uint256"
        }
      ],
      "name": "VoteRecorded",
      "type": "event"
    },
    {
      "anonymous": false,
      "inputs": [
        {
          "indexed": false,
          "internalType": "address",
          "name": "contractAddr",
          "type": "address"
        },
        {
          "indexed": false,
          "internalType": "uint256",
          "name": "voteId",
          "type": "uint256"
        }
      ],
      "name": "VoteRemoved",
      "type": "event"
    },
    {
      "inputs": [
        {
          "internalType": "uint256",
          "name": "",
          "type": "uint256"
        }
      ],
      "name": "allVotes",
      "outputs": [
        {
          "internalType": "address",
          "name": "votingContract",
          "type": "address"
        },
        {
          "internalType": "uint256",
          "name": "voteId",
          "type": "uint256"
        }
      ],
      "stateMutability": "view",
      "type": "function"
    },
    {
      "inputs": [],
      "name": "getAllVotes",
      "outputs": [
        {
          "components": [
            {
              "internalType": "address",
              "name": "votingContract",
              "type": "address"
            },
            {
              "internalType": "uint256",
              "name": "voteId",
              "type": "uint256"
            }
          ],
          "internalType": "struct VotingRegistry.VoteInfo[]",
          "name": "",
          "type": "tuple[]"
        }
      ],
      "stateMutability": "view",
      "type": "function"
    },
    {
      "inputs": [
        {
          "internalType": "address",
          "name": "contractAddr",
          "type": "address"
        }
      ],
      "name": "getVotesByContract",
      "outputs": [
        {
          "components": [
            {
              "internalType": "address",
              "name": "votingContract",
              "type": "address"
            },
            {
              "internalType": "uint256",
              "name": "voteId",
              "type": "uint256"
            }
          ],
          "internalType": "struct VotingRegistry.VoteInfo[]",
          "name": "",
          "type": "tuple[]"
        }
      ],
      "stateMutability": "view",
      "type": "function"
    },
    {
      "inputs": [],
      "name": "owner",
      "outputs": [
        {
          "internalType": "address",
          "name": "",
          "type": "address"
        }
      ],
      "stateMutability": "view",
      "type": "function"
    },
    {
      "inputs": [
        {
          "internalType": "address",
          "name": "votingContract",
          "type": "address"
        },
        {
          "internalType": "uint256",
          "name": "voteId",
          "type": "uint256"
        }
      ],
      "name": "recordVote",
      "outputs": [],
      "stateMutability": "nonpayable",
      "type": "function"
    },
    {
      "inputs": [
        {
          "internalType": "address",
          "name": "contractAddr",
          "type": "address"
        }
      ],
      "name": "registerVotingContract",
      "outputs": [],
      "stateMutability": "nonpayable",
      "type": "function"
    },
    {
      "inputs": [
        {
          "internalType": "address",
          "name": "",
          "type": "address"
        }
      ],
      "name": "registeredVotingContracts",
      "outputs": [
        {
          "internalType": "bool",
          "name": "",
          "type": "bool"
        }
      ],
      "stateMutability": "view",
      "type": "function"
    },
    {
      "inputs": [
        {
          "internalType": "uint256",
          "name": "voteId",
          "type": "uint256"
        }
      ],
      "name": "removeVote",
      "outputs": [],
      "stateMutability": "nonpayable",
      "type": "function"
    },
    {
      "inputs": [
        {
          "internalType": "address",
          "name": "contractAddr",
          "type": "address"
        }
      ],
      "name": "unregisterVotingContract",
      "outputs": [],
      "stateMutability": "nonpayable",
      "type": "function"
    },
    {
      "inputs": [
        {
          "internalType": "address",
          "name": "",
          "type": "address"
        },
        {
          "internalType": "uint256",
          "name": "",
          "type": "uint256"
        }
      ],
      "name": "votesByContract",
      "outputs": [
        {
          "internalType": "address",
          "name": "votingContract",
          "type": "address"
        },
        {
          "internalType": "uint256",
          "name": "voteId",
          "type": "uint256"
        }
      ],
      "stateMutability": "view",
      "type": "function"
    }
  ],
  "bytecode": "0x608060405234801561001057600080fd5b50336000806101000a81548173ffffffffffffffffffffffffffffffffffffffff021916908373ffffffffffffffffffffffffffffffffffffffff1602179055506112be806100606000396000f3fe608060405234801561001057600080fd5b506004361061009e5760003560e01c80638da5cb5b116100665780638da5cb5b1461015a578063a446b90014610178578063b61cd00d14610194578063de63f432146101b0578063ef88613e146101e15761009e565b80630f2ca0b2146100a3578063181fe10f146100d35780631e5a9895146100ef5780633f68fde414610120578063851b6ef21461013c575b600080fd5b6100bd60048036038101906100b89190610e10565b610211565b6040516100ca9190610e58565b60405180910390f35b6100ed60048036038101906100e89190610e10565b610231565b005b61010960048036038101906101049190610ea9565b610350565b604051610117929190610f07565b60405180910390f35b61013a60048036038101906101359190610f30565b6103b1565b005b610144610824565b6040516101519190611059565b60405180910390f35b6101626108e3565b60405161016f919061107b565b60405180910390f35b610192600480360381019061018d9190610ea9565b610907565b005b6101ae60048036038101906101a99190610e10565b610b3b565b005b6101ca60048036038101906101c59190610f30565b610c5b565b6040516101d8929190610f07565b60405180910390f35b6101fb60048036038101906101f69190610e10565b610caf565b6040516102089190611059565b60405180910390f35b60016020528060005260406000206000915054906101000a900460ff1681565b60008054906101000a900473ffffffffffffffffffffffffffffffffffffffff1673ffffffffffffffffffffffffffffffffffffffff163373ffffffffffffffffffffffffffffffffffffffff16146102bf576040517f08c379a00000000000000000000000000000000000000000000000000000000081526004016102b6906110f3565b60405180910390fd5b60018060008373ffffffffffffffffffffffffffffffffffffffff1673ffffffffffffffffffffffffffffffffffffffff16815260200190815260200160002060006101000a81548160ff0219169083151502179055507fc25d1d022102ce7b344c33d14de2893a248fabd34bb630dc982e2fbc20f2954381604051610345919061107b565b60405180910390a150565b6002602052816000526040600020818154811061036c57600080fd5b9060005260206000209060020201600091509150508060000160009054906101000a900473ffffffffffffffffffffffffffffffffffffffff16908060010154905082565b600160003373ffffffffffffffffffffffffffffffffffffffff1673ffffffffffffffffffffffffffffffffffffffff16815260200190815260200160002060009054906101000a900460ff1661043d576040517f08c379a00000000000000000000000000000000000000000000000000000000081526004016104349061115f565b60405180910390fd5b6000600260003373ffffffffffffffffffffffffffffffffffffffff1673ffffffffffffffffffffffffffffffffffffffff168152602001908152602001600020905060005b818054905081101561062a57828282815481106104a3576104a261117f565b5b906000526020600020906002020160010154036106175781600183805490506104cc91906111dd565b815481106104dd576104dc61117f565b5b90600052602060002090600202018282815481106104fe576104fd61117f565b5b90600052602060002090600202016000820160009054906101000a900473ffffffffffffffffffffffffffffffffffffffff168160000160006101000a81548173ffffffffffffffffffffffffffffffffffffffff021916908373ffffffffffffffffffffffffffffffffffffffff160217905550600182015481600101559050508180548061059157610590611211565b5b6001900381819060005260206000209060020201600080820160006101000a81549073ffffffffffffffffffffffffffffffffffffffff02191690556001820160009055505090557f902ad268b76c5e8306753f0d1df0485c0ddec7deea570275b1e7a623749b4bc6338460405161060a929190610f07565b60405180910390a161062a565b808061062290611240565b915050610483565b5060005b60038054905081101561081f5782600382815481106106505761064f61117f565b5b9060005260206000209060020201600101541480156106df57503373ffffffffffffffffffffffffffffffffffffffff16600382815481106106955761069461117f565b5b906000526020600020906002020160000160009054906101000a900473ffffffffffffffffffffffffffffffffffffffff1673ffffffffffffffffffffffffffffffffffffffff16145b1561080c57600360016003805490506106f891906111dd565b815481106107095761070861117f565b5b90600052602060002090600202016003828154811061072b5761072a61117f565b5b90600052602060002090600202016000820160009054906101000a900473ffffffffffffffffffffffffffffffffffffffff168160000160006101000a81548173ffffffffffffffffffffffffffffffffffffffff021916908373ffffffffffffffffffffffffffffffffffffffff1602179055506001820154816001015590505060038054806107bf576107be611211565b5b6001900381819060005260206000209060020201600080820160006101000a81549073ffffffffffffffffffffffffffffffffffffffff021916905560018201600090555050905561081f565b808061081790611240565b91505061062e565b505050565b60606003805480602002602001604051908101604052809291908181526020016000905b828210156108da57838290600052602060002090600202016040518060400160405290816000820160009054906101000a900473ffffffffffffffffffffffffffffffffffffffff1673ffffffffffffffffffffffffffffffffffffffff1673ffffffffffffffffffffffffffffffffffffffff16815260200160018201548152505081526020019060010190610848565b50505050905090565b60008054906101000a900473ffffffffffffffffffffffffffffffffffffffff1681565b600160003373ffffffffffffffffffffffffffffffffffffffff1673ffffffffffffffffffffffffffffffffffffffff16815260200190815260200160002060009054906101000a900460ff16610993576040517f08c379a000000000000000000000000000000000000000000000000000000000815260040161098a9061115f565b60405180910390fd5b600060405180604001604052808473ffffffffffffffffffffffffffffffffffffffff168152602001838152509050600381908060018154018082558091505060019003906000526020600020906002020160009091909190915060008201518160000160006101000a81548173ffffffffffffffffffffffffffffffffffffffff021916908373ffffffffffffffffffffffffffffffffffffffff160217905550602082015181600101555050600260008473ffffffffffffffffffffffffffffffffffffffff1673ffffffffffffffffffffffffffffffffffffffff16815260200190815260200160002081908060018154018082558091505060019003906000526020600020906002020160009091909190915060008201518160000160006101000a81548173ffffffffffffffffffffffffffffffffffffffff021916908373ffffffffffffffffffffffffffffffffffffffff1602179055506020820151816001015550507f8526c3debc05fa47d452deff6098c92355df470ccfdaeaf2c357db45e4451a2c8383604051610b2e929190610f07565b60405180910390a1505050565b60008054906101000a900473ffffffffffffffffffffffffffffffffffffffff1673ffffffffffffffffffffffffffffffffffffffff163373ffffffffffffffffffffffffffffffffffffffff1614610bc9576040517f08c379a0000000000000000000000000000000000000000000000000000000008152600401610bc0906110f3565b60405180910390fd5b6000600160008373ffffffffffffffffffffffffffffffffffffffff1673ffffffffffffffffffffffffffffffffffffffff16815260200190815260200160002060006101000a81548160ff0219169083151502179055507f3475b9891ecf29e996feed01eeb42a860ec225283a439d214ffaeac5e006be7d81604051610c50919061107b565b60405180910390a150565b60038181548110610c6b57600080fd5b90600052602060002090600202016000915090508060000160009054906101000a900473ffffffffffffffffffffffffffffffffffffffff16908060010154905082565b6060600260008373ffffffffffffffffffffffffffffffffffffffff1673ffffffffffffffffffffffffffffffffffffffff168152602001908152602001600020805480602002602001604051908101604052809291908181526020016000905b82821015610da257838290600052602060002090600202016040518060400160405290816000820160009054906101000a900473ffffffffffffffffffffffffffffffffffffffff1673ffffffffffffffffffffffffffffffffffffffff1673ffffffffffffffffffffffffffffffffffffffff16815260200160018201548152505081526020019060010190610d10565b505050509050919050565b600080fd5b600073ffffffffffffffffffffffffffffffffffffffff82169050919050565b6000610ddd82610db2565b9050919050565b610ded81610dd2565b8114610df857600080fd5b50565b600081359050610e0a81610de4565b92915050565b600060208284031215610e2657610e25610dad565b5b6000610e3484828501610dfb565b91505092915050565b60008115159050919050565b610e5281610e3d565b82525050565b6000602082019050610e6d6000830184610e49565b92915050565b6000819050919050565b610e8681610e73565b8114610e9157600080fd5b50565b600081359050610ea381610e7d565b92915050565b60008060408385031215610ec057610ebf610dad565b5b6000610ece85828601610dfb565b9250506020610edf85828601610e94565b9150509250929050565b610ef281610dd2565b82525050565b610f0181610e73565b82525050565b6000604082019050610f1c6000830185610ee9565b610f296020830184610ef8565b9392505050565b600060208284031215610f4657610f45610dad565b5b6000610f5484828501610e94565b91505092915050565b600081519050919050565b600082825260208201905092915050565b6000819050602082019050919050565b610f9281610dd2565b82525050565b610fa181610e73565b82525050565b604082016000820151610fbd6000850182610f89565b506020820151610fd06020850182610f98565b50505050565b6000610fe28383610fa7565b60408301905092915050565b6000602082019050919050565b600061100682610f5d565b6110108185610f68565b935061101b83610f79565b8060005b8381101561104c5781516110338882610fd6565b975061103e83610fee565b92505060018101905061101f565b5085935050505092915050565b600060208201905081810360008301526110738184610ffb565b905092915050565b60006020820190506110906000830184610ee9565b92915050565b600082825260208201905092915050565b7f4f6e6c79206f776e657200000000000000000000000000000000000000000000600082015250565b60006110dd600a83611096565b91506110e8826110a7565b602082019050919050565b6000602082019050818103600083015261110c816110d0565b9050919050565b7f4e6f742061207265676973746572656420636f6e747261637400000000000000600082015250565b6000611149601983611096565b915061115482611113565b602082019050919050565b600060208201905081810360008301526111788161113c565b9050919050565b7f4e487b7100000000000000000000000000000000000000000000000000000000600052603260045260246000fd5b7f4e487b7100000000000000000000000000000000000000000000000000000000600052601160045260246000fd5b60006111e882610e73565b91506111f383610e73565b925082820390508181111561120b5761120a6111ae565b5b92915050565b7f4e487b7100000000000000000000000000000000000000000000000000000000600052603160045260246000fd5b600061124b82610e73565b91507fffffffffffffffffffffffffffffffffffffffffffffffffffffffffffffffff820361127d5761127c6111ae565b5b60018201905091905056fea26469706673582212200b842409c24aced3de637171d6d3dab0ed90d2b35487c82a6492766accb52aa564736f6c63430008140033",
  "linkReferences": {},
  "deployedLinkReferences": {}
}