{
  "_format": "hh-sol-artifact-1",
  "contractName": "RewardNFT",
  "sourceName": "contracts/RewardNFT.sol",
  "abi": [
    {
      "inputs": [],
      "stateMutability": "nonpayable",
      "type": "constructor"
    },
    {
      "inputs": [
        {
          "internalType": "address",
          "name": "sender",
          "type": "address"
        },
        {
          "internalType": "uint256",
          "name": "tokenId",
          "type": "uint256"
        },
        {
          "internalType": "address",
          "name": "owner",
          "type": "address"
        }
      ],
      "name": "ERC721IncorrectOwner",
      "type": "error"
    },
    {
      "inputs": [
        {
          "internalType": "address",
          "name": "operator",
          "type": "address"
        },
        {
          "internalType": "uint256",
          "name": "tokenId",
          "type": "uint256"
        }
      ],
      "name": "ERC721InsufficientApproval",
      "type": "error"
    },
    {
      "inputs": [
        {
          "internalType": "address",
          "name": "approver",
          "type": "address"
        }
      ],
      "name": "ERC721InvalidApprover",
      "type": "error"
    },
    {
      "inputs": [
        {
          "internalType": "address",
          "name": "operator",
          "type": "address"
        }
      ],
      "name": "ERC721InvalidOperator",
      "type": "error"
    },
    {
      "inputs": [
        {
          "internalType": "address",
          "name": "owner",
          "type": "address"
        }
      ],
      "name": "ERC721InvalidOwner",
      "type": "error"
    },
    {
      "inputs": [
        {
          "internalType": "address",
          "name": "receiver",
          "type": "address"
        }
      ],
      "name": "ERC721InvalidReceiver",
      "type": "error"
    },
    {
      "inputs": [
        {
          "internalType": "address",
          "name": "sender",
          "type": "address"
        }
      ],
      "name": "ERC721InvalidSender",
      "type": "error"
    },
    {
      "inputs": [
        {
          "internalType": "uint256",
          "name": "tokenId",
          "type": "uint256"
        }
      ],
      "name": "ERC721NonexistentToken",
      "type": "error"
    },
    {
      "inputs": [
        {
          "internalType": "address",
          "name": "owner",
          "type": "address"
        }
      ],
      "name": "OwnableInvalidOwner",
      "type": "error"
    },
    {
      "inputs": [
        {
          "internalType": "address",
          "name": "account",
          "type": "address"
        }
      ],
      "name": "OwnableUnauthorizedAccount",
      "type": "error"
    },
    {
      "anonymous": false,
      "inputs": [
        {
          "indexed": true,
          "internalType": "address",
          "name": "owner",
          "type": "address"
        },
        {
          "indexed": true,
          "internalType": "address",
          "name": "approved",
          "type": "address"
        },
        {
          "indexed": true,
          "internalType": "uint256",
          "name": "tokenId",
          "type": "uint256"
        }
      ],
      "name": "Approval",
      "type": "event"
    },
    {
      "anonymous": false,
      "inputs": [
        {
          "indexed": true,
          "internalType": "address",
          "name": "owner",
          "type": "address"
        },
        {
          "indexed": true,
          "internalType": "address",
          "name": "operator",
          "type": "address"
        },
        {
          "indexed": false,
          "internalType": "bool",
          "name": "approved",
          "type": "bool"
        }
      ],
      "name": "ApprovalForAll",
      "type": "event"
    },
    {
      "anonymous": false,
      "inputs": [
        {
          "indexed": false,
          "internalType": "uint256",
          "name": "_fromTokenId",
          "type": "uint256"
        },
        {
          "indexed": false,
          "internalType": "uint256",
          "name": "_toTokenId",
          "type": "uint256"
        }
      ],
      "name": "BatchMetadataUpdate",
      "type": "event"
    },
    {
      "anonymous": false,
      "inputs": [
        {
          "indexed": false,
          "internalType": "uint256",
          "name": "_tokenId",
          "type": "uint256"
        }
      ],
      "name": "MetadataUpdate",
      "type": "event"
    },
    {
      "anonymous": false,
      "inputs": [
        {
          "indexed": true,
          "internalType": "address",
          "name": "previousOwner",
          "type": "address"
        },
        {
          "indexed": true,
          "internalType": "address",
          "name": "newOwner",
          "type": "address"
        }
      ],
      "name": "OwnershipTransferred",
      "type": "event"
    },
    {
      "anonymous": false,
      "inputs": [
        {
          "indexed": true,
          "internalType": "address",
          "name": "from",
          "type": "address"
        },
        {
          "indexed": true,
          "internalType": "address",
          "name": "to",
          "type": "address"
        },
        {
          "indexed": true,
          "internalType": "uint256",
          "name": "tokenId",
          "type": "uint256"
        }
      ],
      "name": "Transfer",
      "type": "event"
    },
    {
      "inputs": [
        {
          "internalType": "address",
          "name": "to",
          "type": "address"
        },
        {
          "internalType": "uint256",
          "name": "tokenId",
          "type": "uint256"
        }
      ],
      "name": "approve",
      "outputs": [],
      "stateMutability": "nonpayable",
      "type": "function"
    },
    {
      "inputs": [
        {
          "internalType": "address",
          "name": "owner",
          "type": "address"
        }
      ],
      "name": "balanceOf",
      "outputs": [
        {
          "internalType": "uint256",
          "name": "",
          "type": "uint256"
        }
      ],
      "stateMutability": "view",
      "type": "function"
    },
    {
      "inputs": [
        {
          "internalType": "uint256",
          "name": "tokenId",
          "type": "uint256"
        }
      ],
      "name": "getApproved",
      "outputs": [
        {
          "internalType": "address",
          "name": "",
          "type": "address"
        }
      ],
      "stateMutability": "view",
      "type": "function"
    },
    {
      "inputs": [
        {
          "internalType": "address",
          "name": "owner",
          "type": "address"
        },
        {
          "internalType": "address",
          "name": "operator",
          "type": "address"
        }
      ],
      "name": "isApprovedForAll",
      "outputs": [
        {
          "internalType": "bool",
          "name": "",
          "type": "bool"
        }
      ],
      "stateMutability": "view",
      "type": "function"
    },
    {
      "inputs": [
        {
          "internalType": "address",
          "name": "to",
          "type": "address"
        }
      ],
      "name": "mint",
      "outputs": [
        {
          "internalType": "uint256",
          "name": "",
          "type": "uint256"
        }
      ],
      "stateMutability": "nonpayable",
      "type": "function"
    },
    {
      "inputs": [],
      "name": "name",
      "outputs": [
        {
          "internalType": "string",
          "name": "",
          "type": "string"
        }
      ],
      "stateMutability": "view",
      "type": "function"
    },
    {
      "inputs": [],
      "name": "owner",
      "outputs": [
        {
          "internalType": "address",
          "name": "",
          "type": "address"
        }
      ],
      "stateMutability": "view",
      "type": "function"
    },
    {
      "inputs": [
        {
          "internalType": "uint256",
          "name": "tokenId",
          "type": "uint256"
        }
      ],
      "name": "ownerOf",
      "outputs": [
        {
          "internalType": "address",
          "name": "",
          "type": "address"
        }
      ],
      "stateMutability": "view",
      "type": "function"
    },
    {
      "inputs": [],
      "name": "renounceOwnership",
      "outputs": [],
      "stateMutability": "nonpayable",
      "type": "function"
    },
    {
      "inputs": [
        {
          "internalType": "address",
          "name": "from",
          "type": "address"
        },
        {
          "internalType": "address",
          "name": "to",
          "type": "address"
        },
        {
          "internalType": "uint256",
          "name": "tokenId",
          "type": "uint256"
        }
      ],
      "name": "safeTransferFrom",
      "outputs": [],
      "stateMutability": "nonpayable",
      "type": "function"
    },
    {
      "inputs": [
        {
          "internalType": "address",
          "name": "from",
          "type": "address"
        },
        {
          "internalType": "address",
          "name": "to",
          "type": "address"
        },
        {
          "internalType": "uint256",
          "name": "tokenId",
          "type": "uint256"
        },
        {
          "internalType": "bytes",
          "name": "data",
          "type": "bytes"
        }
      ],
      "name": "safeTransferFrom",
      "outputs": [],
      "stateMutability": "nonpayable",
      "type": "function"
    },
    {
      "inputs": [
        {
          "internalType": "address",
          "name": "operator",
          "type": "address"
        },
        {
          "internalType": "bool",
          "name": "approved",
          "type": "bool"
        }
      ],
      "name": "setApprovalForAll",
      "outputs": [],
      "stateMutability": "nonpayable",
      "type": "function"
    },
    {
      "inputs": [
        {
          "internalType": "bytes4",
          "name": "interfaceId",
          "type": "bytes4"
        }
      ],
      "name": "supportsInterface",
      "outputs": [
        {
          "internalType": "bool",
          "name": "",
          "type": "bool"
        }
      ],
      "stateMutability": "view",
      "type": "function"
    },
    {
      "inputs": [],
      "name": "symbol",
      "outputs": [
        {
          "internalType": "string",
          "name": "",
          "type": "string"
        }
      ],
      "stateMutability": "view",
      "type": "function"
    },
    {
      "inputs": [
        {
          "internalType": "uint256",
          "name": "tokenId",
          "type": "uint256"
        }
      ],
      "name": "tokenURI",
      "outputs": [
        {
          "internalType": "string",
          "name": "",
          "type": "string"
        }
      ],
      "stateMutability": "view",
      "type": "function"
    },
    {
      "inputs": [
        {
          "internalType": "address",
          "name": "from",
          "type": "address"
        },
        {
          "internalType": "address",
          "name": "to",
          "type": "address"
        },
        {
          "internalType": "uint256",
          "name": "tokenId",
          "type": "uint256"
        }
      ],
      "name": "transferFrom",
      "outputs": [],
      "stateMutability": "nonpayable",
      "type": "function"
    },
    {
      "inputs": [
        {
          "internalType": "address",
          "name": "newOwner",
          "type": "address"
        }
      ],
      "name": "transferOwnership",
      "outputs": [],
      "stateMutability": "nonpayable",
      "type": "function"
    }
  ],
  "bytecode": "0x60806040523480156200001157600080fd5b50336040518060400160405280600f81526020017f566f74696e675265776172644e465400000000000000000000000000000000008152506040518060400160405280600581526020017f56524e4654000000000000000000000000000000000000000000000000000000815250816000908162000090919062000472565b508060019081620000a2919062000472565b505050600073ffffffffffffffffffffffffffffffffffffffff168173ffffffffffffffffffffffffffffffffffffffff16036200011a5760006040517f1e4fbdf70000000000000000000000000000000000000000000000000000000081526004016200011191906200059e565b60405180910390fd5b6200012b816200013260201b60201c565b50620005bb565b6000600760009054906101000a900473ffffffffffffffffffffffffffffffffffffffff16905081600760006101000a81548173ffffffffffffffffffffffffffffffffffffffff021916908373ffffffffffffffffffffffffffffffffffffffff1602179055508173ffffffffffffffffffffffffffffffffffffffff168173ffffffffffffffffffffffffffffffffffffffff167f8be0079c531659141344cd1fd0a4f28419497f9722a3daafe3b4186f6b6457e060405160405180910390a35050565b600081519050919050565b7f4e487b7100000000000000000000000000000000000000000000000000000000600052604160045260246000fd5b7f4e487b7100000000000000000000000000000000000000000000000000000000600052602260045260246000fd5b600060028204905060018216806200027a57607f821691505b60208210810362000290576200028f62000232565b5b50919050565b60008190508160005260206000209050919050565b60006020601f8301049050919050565b600082821b905092915050565b600060088302620002fa7fffffffffffffffffffffffffffffffffffffffffffffffffffffffffffffffff82620002bb565b620003068683620002bb565b95508019841693508086168417925050509392505050565b6000819050919050565b6000819050919050565b6000620003536200034d62000347846200031e565b62000328565b6200031e565b9050919050565b6000819050919050565b6200036f8362000332565b620003876200037e826200035a565b848454620002c8565b825550505050565b600090565b6200039e6200038f565b620003ab81848462000364565b505050565b5b81811015620003d357620003c760008262000394565b600181019050620003b1565b5050565b601f8211156200042257620003ec8162000296565b620003f784620002ab565b8101602085101562000407578190505b6200041f6200041685620002ab565b830182620003b0565b50505b505050565b600082821c905092915050565b6000620004476000198460080262000427565b1980831691505092915050565b600062000462838362000434565b9150826002028217905092915050565b6200047d82620001f8565b67ffffffffffffffff81111562000499576200049862000203565b5b620004a5825462000261565b620004b2828285620003d7565b600060209050601f831160018114620004ea5760008415620004d5578287015190505b620004e1858262000454565b86555062000551565b601f198416620004fa8662000296565b60005b828110156200052457848901518255600182019150602085019450602081019050620004fd565b8683101562000544578489015162000540601f89168262000434565b8355505b6001600288020188555050505b505050505050565b600073ffffffffffffffffffffffffffffffffffffffff82169050919050565b6000620005868262000559565b9050919050565b620005988162000579565b82525050565b6000602082019050620005b560008301846200058d565b92915050565b61259b80620005cb6000396000f3fe608060405234801561001057600080fd5b506004361061010b5760003560e01c806370a08231116100a2578063a22cb46511610071578063a22cb465146102b8578063b88d4fde146102d4578063c87b56dd146102f0578063e985e9c514610320578063f2fde38b146103505761010b565b806370a0823114610242578063715018a6146102725780638da5cb5b1461027c57806395d89b411461029a5761010b565b806323b872dd116100de57806323b872dd146101aa57806342842e0e146101c65780636352211e146101e25780636a627842146102125761010b565b806301ffc9a71461011057806306fdde0314610140578063081812fc1461015e578063095ea7b31461018e575b600080fd5b61012a60048036038101906101259190611aae565b61036c565b6040516101379190611af6565b60405180910390f35b6101486103cd565b6040516101559190611ba1565b60405180910390f35b61017860048036038101906101739190611bf9565b61045f565b6040516101859190611c67565b60405180910390f35b6101a860048036038101906101a39190611cae565b61047b565b005b6101c460048036038101906101bf9190611cee565b610491565b005b6101e060048036038101906101db9190611cee565b610593565b005b6101fc60048036038101906101f79190611bf9565b6105b3565b6040516102099190611c67565b60405180910390f35b61022c60048036038101906102279190611d41565b6105c5565b6040516102399190611d7d565b60405180910390f35b61025c60048036038101906102579190611d41565b610621565b6040516102699190611d7d565b60405180910390f35b61027a6106db565b005b6102846106ef565b6040516102919190611c67565b60405180910390f35b6102a2610719565b6040516102af9190611ba1565b60405180910390f35b6102d260048036038101906102cd9190611dc4565b6107ab565b005b6102ee60048036038101906102e99190611f39565b6107c1565b005b61030a60048036038101906103059190611bf9565b6107e6565b6040516103179190611ba1565b60405180910390f35b61033a60048036038101906103359190611fbc565b6108f9565b6040516103479190611af6565b60405180910390f35b61036a60048036038101906103659190611d41565b61098d565b005b6000634906490660e01b7bffffffffffffffffffffffffffffffffffffffffffffffffffffffff1916827bffffffffffffffffffffffffffffffffffffffffffffffffffffffff191614806103c657506103c582610a13565b5b9050919050565b6060600080546103dc9061202b565b80601f01602080910402602001604051908101604052809291908181526020018280546104089061202b565b80156104555780601f1061042a57610100808354040283529160200191610455565b820191906000526020600020905b81548152906001019060200180831161043857829003601f168201915b5050505050905090565b600061046a82610af5565b5061047482610b7d565b9050919050565b61048d8282610488610bba565b610bc2565b5050565b600073ffffffffffffffffffffffffffffffffffffffff168273ffffffffffffffffffffffffffffffffffffffff16036105035760006040517f64a0ae920000000000000000000000000000000000000000000000000000000081526004016104fa9190611c67565b60405180910390fd5b60006105178383610512610bba565b610bd4565b90508373ffffffffffffffffffffffffffffffffffffffff168173ffffffffffffffffffffffffffffffffffffffff161461058d578382826040517f64283d7b0000000000000000000000000000000000000000000000000000000081526004016105849392919061205c565b60405180910390fd5b50505050565b6105ae838383604051806020016040528060008152506107c1565b505050565b60006105be82610af5565b9050919050565b60006105cf610dee565b600860008154809291906105e2906120c2565b91905055506105f382600854610e75565b61061760085460405180608001604052806042815260200161252460429139610f6e565b6008549050919050565b60008073ffffffffffffffffffffffffffffffffffffffff168273ffffffffffffffffffffffffffffffffffffffff16036106945760006040517f89c62b6400000000000000000000000000000000000000000000000000000000815260040161068b9190611c67565b60405180910390fd5b600360008373ffffffffffffffffffffffffffffffffffffffff1673ffffffffffffffffffffffffffffffffffffffff168152602001908152602001600020549050919050565b6106e3610dee565b6106ed6000610fca565b565b6000600760009054906101000a900473ffffffffffffffffffffffffffffffffffffffff16905090565b6060600180546107289061202b565b80601f01602080910402602001604051908101604052809291908181526020018280546107549061202b565b80156107a15780601f10610776576101008083540402835291602001916107a1565b820191906000526020600020905b81548152906001019060200180831161078457829003601f168201915b5050505050905090565b6107bd6107b6610bba565b8383611090565b5050565b6107cc848484610491565b6107e06107d7610bba565b858585856111ff565b50505050565b60606107f182610af5565b5060006006600084815260200190815260200160002080546108129061202b565b80601f016020809104026020016040519081016040528092919081815260200182805461083e9061202b565b801561088b5780601f106108605761010080835404028352916020019161088b565b820191906000526020600020905b81548152906001019060200180831161086e57829003601f168201915b50505050509050600061089c6113b0565b905060008151036108b15781925050506108f4565b6000825111156108e65780826040516020016108ce929190612146565b604051602081830303815290604052925050506108f4565b6108ef846113c7565b925050505b919050565b6000600560008473ffffffffffffffffffffffffffffffffffffffff1673ffffffffffffffffffffffffffffffffffffffff16815260200190815260200160002060008373ffffffffffffffffffffffffffffffffffffffff1673ffffffffffffffffffffffffffffffffffffffff16815260200190815260200160002060009054906101000a900460ff16905092915050565b610995610dee565b600073ffffffffffffffffffffffffffffffffffffffff168173ffffffffffffffffffffffffffffffffffffffff1603610a075760006040517f1e4fbdf70000000000000000000000000000000000000000000000000000000081526004016109fe9190611c67565b60405180910390fd5b610a1081610fca565b50565b60007f80ac58cd000000000000000000000000000000000000000000000000000000007bffffffffffffffffffffffffffffffffffffffffffffffffffffffff1916827bffffffffffffffffffffffffffffffffffffffffffffffffffffffff19161480610ade57507f5b5e139f000000000000000000000000000000000000000000000000000000007bffffffffffffffffffffffffffffffffffffffffffffffffffffffff1916827bffffffffffffffffffffffffffffffffffffffffffffffffffffffff1916145b80610aee5750610aed82611430565b5b9050919050565b600080610b018361149a565b9050600073ffffffffffffffffffffffffffffffffffffffff168173ffffffffffffffffffffffffffffffffffffffff1603610b7457826040517f7e273289000000000000000000000000000000000000000000000000000000008152600401610b6b9190611d7d565b60405180910390fd5b80915050919050565b60006004600083815260200190815260200160002060009054906101000a900473ffffffffffffffffffffffffffffffffffffffff169050919050565b600033905090565b610bcf83838360016114d7565b505050565b600080610be08461149a565b9050600073ffffffffffffffffffffffffffffffffffffffff168373ffffffffffffffffffffffffffffffffffffffff1614610c2257610c2181848661169c565b5b600073ffffffffffffffffffffffffffffffffffffffff168173ffffffffffffffffffffffffffffffffffffffff1614610cb357610c646000856000806114d7565b6001600360008373ffffffffffffffffffffffffffffffffffffffff1673ffffffffffffffffffffffffffffffffffffffff168152602001908152602001600020600082825403925050819055505b600073ffffffffffffffffffffffffffffffffffffffff168573ffffffffffffffffffffffffffffffffffffffff1614610d36576001600360008773ffffffffffffffffffffffffffffffffffffffff1673ffffffffffffffffffffffffffffffffffffffff168152602001908152602001600020600082825401925050819055505b846002600086815260200190815260200160002060006101000a81548173ffffffffffffffffffffffffffffffffffffffff021916908373ffffffffffffffffffffffffffffffffffffffff160217905550838573ffffffffffffffffffffffffffffffffffffffff168273ffffffffffffffffffffffffffffffffffffffff167fddf252ad1be2c89b69c2b068fc378daa952ba7f163c4a11628f55a4df523b3ef60405160405180910390a4809150509392505050565b610df6610bba565b73ffffffffffffffffffffffffffffffffffffffff16610e146106ef565b73ffffffffffffffffffffffffffffffffffffffff1614610e7357610e37610bba565b6040517f118cdaa7000000000000000000000000000000000000000000000000000000008152600401610e6a9190611c67565b60405180910390fd5b565b600073ffffffffffffffffffffffffffffffffffffffff168273ffffffffffffffffffffffffffffffffffffffff1603610ee75760006040517f64a0ae92000000000000000000000000000000000000000000000000000000008152600401610ede9190611c67565b60405180910390fd5b6000610ef583836000610bd4565b9050600073ffffffffffffffffffffffffffffffffffffffff168173ffffffffffffffffffffffffffffffffffffffff1614610f695760006040517f73c6ac6e000000000000000000000000000000000000000000000000000000008152600401610f609190611c67565b60405180910390fd5b505050565b80600660008481526020019081526020016000209081610f8e9190612316565b507ff8e1a15aba9398e019f0b49df1a4fde98ee17ae345cb5f6b5e2c27f5033e8ce782604051610fbe9190611d7d565b60405180910390a15050565b6000600760009054906101000a900473ffffffffffffffffffffffffffffffffffffffff16905081600760006101000a81548173ffffffffffffffffffffffffffffffffffffffff021916908373ffffffffffffffffffffffffffffffffffffffff1602179055508173ffffffffffffffffffffffffffffffffffffffff168173ffffffffffffffffffffffffffffffffffffffff167f8be0079c531659141344cd1fd0a4f28419497f9722a3daafe3b4186f6b6457e060405160405180910390a35050565b600073ffffffffffffffffffffffffffffffffffffffff168273ffffffffffffffffffffffffffffffffffffffff160361110157816040517f5b08ba180000000000000000000000000000000000000000000000000000000081526004016110f89190611c67565b60405180910390fd5b80600560008573ffffffffffffffffffffffffffffffffffffffff1673ffffffffffffffffffffffffffffffffffffffff16815260200190815260200160002060008473ffffffffffffffffffffffffffffffffffffffff1673ffffffffffffffffffffffffffffffffffffffff16815260200190815260200160002060006101000a81548160ff0219169083151502179055508173ffffffffffffffffffffffffffffffffffffffff168373ffffffffffffffffffffffffffffffffffffffff167f17307eab39ab6107e8899845ad3d59bd9653f200f220920489ca2b5937696c31836040516111f29190611af6565b60405180910390a3505050565b60008373ffffffffffffffffffffffffffffffffffffffff163b11156113a9578273ffffffffffffffffffffffffffffffffffffffff1663150b7a02868685856040518563ffffffff1660e01b815260040161125e949392919061243d565b6020604051808303816000875af192505050801561129a57506040513d601f19601f82011682018060405250810190611297919061249e565b60015b61131e573d80600081146112ca576040519150601f19603f3d011682016040523d82523d6000602084013e6112cf565b606091505b50600081510361131657836040517f64a0ae9200000000000000000000000000000000000000000000000000000000815260040161130d9190611c67565b60405180910390fd5b805181602001fd5b63150b7a0260e01b7bffffffffffffffffffffffffffffffffffffffffffffffffffffffff1916817bffffffffffffffffffffffffffffffffffffffffffffffffffffffff1916146113a757836040517f64a0ae9200000000000000000000000000000000000000000000000000000000815260040161139e9190611c67565b60405180910390fd5b505b5050505050565b606060405180602001604052806000815250905090565b60606113d282610af5565b5060006113dd6113b0565b905060008151116113fd5760405180602001604052806000815250611428565b8061140784611760565b604051602001611418929190612146565b6040516020818303038152906040525b915050919050565b60007f01ffc9a7000000000000000000000000000000000000000000000000000000007bffffffffffffffffffffffffffffffffffffffffffffffffffffffff1916827bffffffffffffffffffffffffffffffffffffffffffffffffffffffff1916149050919050565b60006002600083815260200190815260200160002060009054906101000a900473ffffffffffffffffffffffffffffffffffffffff169050919050565b80806115105750600073ffffffffffffffffffffffffffffffffffffffff168273ffffffffffffffffffffffffffffffffffffffff1614155b1561164457600061152084610af5565b9050600073ffffffffffffffffffffffffffffffffffffffff168373ffffffffffffffffffffffffffffffffffffffff161415801561158b57508273ffffffffffffffffffffffffffffffffffffffff168173ffffffffffffffffffffffffffffffffffffffff1614155b801561159e575061159c81846108f9565b155b156115e057826040517fa9fbf51f0000000000000000000000000000000000000000000000000000000081526004016115d79190611c67565b60405180910390fd5b811561164257838573ffffffffffffffffffffffffffffffffffffffff168273ffffffffffffffffffffffffffffffffffffffff167f8c5be1e5ebec7d5bd14f71427d1e84f3dd0314c0f7b2291e5b200ac8c7c3b92560405160405180910390a45b505b836004600085815260200190815260200160002060006101000a81548173ffffffffffffffffffffffffffffffffffffffff021916908373ffffffffffffffffffffffffffffffffffffffff16021790555050505050565b6116a783838361182e565b61175b57600073ffffffffffffffffffffffffffffffffffffffff168373ffffffffffffffffffffffffffffffffffffffff160361171c57806040517f7e2732890000000000000000000000000000000000000000000000000000000081526004016117139190611d7d565b60405180910390fd5b81816040517f177e802f0000000000000000000000000000000000000000000000000000000081526004016117529291906124cb565b60405180910390fd5b505050565b60606000600161176f846118ef565b01905060008167ffffffffffffffff81111561178e5761178d611e0e565b5b6040519080825280601f01601f1916602001820160405280156117c05781602001600182028036833780820191505090505b509050600082602001820190505b600115611823578080600190039150507f3031323334353637383961626364656600000000000000000000000000000000600a86061a8153600a8581611817576118166124f4565b5b049450600085036117ce575b819350505050919050565b60008073ffffffffffffffffffffffffffffffffffffffff168373ffffffffffffffffffffffffffffffffffffffff16141580156118e657508273ffffffffffffffffffffffffffffffffffffffff168473ffffffffffffffffffffffffffffffffffffffff1614806118a757506118a684846108f9565b5b806118e557508273ffffffffffffffffffffffffffffffffffffffff166118cd83610b7d565b73ffffffffffffffffffffffffffffffffffffffff16145b5b90509392505050565b600080600090507a184f03e93ff9f4daa797ed6e38ed64bf6a1f010000000000000000831061194d577a184f03e93ff9f4daa797ed6e38ed64bf6a1f0100000000000000008381611943576119426124f4565b5b0492506040810190505b6d04ee2d6d415b85acef8100000000831061198a576d04ee2d6d415b85acef810000000083816119805761197f6124f4565b5b0492506020810190505b662386f26fc1000083106119b957662386f26fc1000083816119af576119ae6124f4565b5b0492506010810190505b6305f5e10083106119e2576305f5e10083816119d8576119d76124f4565b5b0492506008810190505b6127108310611a075761271083816119fd576119fc6124f4565b5b0492506004810190505b60648310611a2a5760648381611a2057611a1f6124f4565b5b0492506002810190505b600a8310611a39576001810190505b80915050919050565b6000604051905090565b600080fd5b600080fd5b60007fffffffff0000000000000000000000000000000000000000000000000000000082169050919050565b611a8b81611a56565b8114611a9657600080fd5b50565b600081359050611aa881611a82565b92915050565b600060208284031215611ac457611ac3611a4c565b5b6000611ad284828501611a99565b91505092915050565b60008115159050919050565b611af081611adb565b82525050565b6000602082019050611b0b6000830184611ae7565b92915050565b600081519050919050565b600082825260208201905092915050565b60005b83811015611b4b578082015181840152602081019050611b30565b60008484015250505050565b6000601f19601f8301169050919050565b6000611b7382611b11565b611b7d8185611b1c565b9350611b8d818560208601611b2d565b611b9681611b57565b840191505092915050565b60006020820190508181036000830152611bbb8184611b68565b905092915050565b6000819050919050565b611bd681611bc3565b8114611be157600080fd5b50565b600081359050611bf381611bcd565b92915050565b600060208284031215611c0f57611c0e611a4c565b5b6000611c1d84828501611be4565b91505092915050565b600073ffffffffffffffffffffffffffffffffffffffff82169050919050565b6000611c5182611c26565b9050919050565b611c6181611c46565b82525050565b6000602082019050611c7c6000830184611c58565b92915050565b611c8b81611c46565b8114611c9657600080fd5b50565b600081359050611ca881611c82565b92915050565b60008060408385031215611cc557611cc4611a4c565b5b6000611cd385828601611c99565b9250506020611ce485828601611be4565b9150509250929050565b600080600060608486031215611d0757611d06611a4c565b5b6000611d1586828701611c99565b9350506020611d2686828701611c99565b9250506040611d3786828701611be4565b9150509250925092565b600060208284031215611d5757611d56611a4c565b5b6000611d6584828501611c99565b91505092915050565b611d7781611bc3565b82525050565b6000602082019050611d926000830184611d6e565b92915050565b611da181611adb565b8114611dac57600080fd5b50565b600081359050611dbe81611d98565b92915050565b60008060408385031215611ddb57611dda611a4c565b5b6000611de985828601611c99565b9250506020611dfa85828601611daf565b9150509250929050565b600080fd5b600080fd5b7f4e487b7100000000000000000000000000000000000000000000000000000000600052604160045260246000fd5b611e4682611b57565b810181811067ffffffffffffffff82111715611e6557611e64611e0e565b5b80604052505050565b6000611e78611a42565b9050611e848282611e3d565b919050565b600067ffffffffffffffff821115611ea457611ea3611e0e565b5b611ead82611b57565b9050602081019050919050565b82818337600083830152505050565b6000611edc611ed784611e89565b611e6e565b905082815260208101848484011115611ef857611ef7611e09565b5b611f03848285611eba565b509392505050565b600082601f830112611f2057611f1f611e04565b5b8135611f30848260208601611ec9565b91505092915050565b60008060008060808587031215611f5357611f52611a4c565b5b6000611f6187828801611c99565b9450506020611f7287828801611c99565b9350506040611f8387828801611be4565b925050606085013567ffffffffffffffff811115611fa457611fa3611a51565b5b611fb087828801611f0b565b91505092959194509250565b60008060408385031215611fd357611fd2611a4c565b5b6000611fe185828601611c99565b9250506020611ff285828601611c99565b9150509250929050565b7f4e487b7100000000000000000000000000000000000000000000000000000000600052602260045260246000fd5b6000600282049050600182168061204357607f821691505b60208210810361205657612055611ffc565b5b50919050565b60006060820190506120716000830186611c58565b61207e6020830185611d6e565b61208b6040830184611c58565b949350505050565b7f4e487b7100000000000000000000000000000000000000000000000000000000600052601160045260246000fd5b60006120cd82611bc3565b91507fffffffffffffffffffffffffffffffffffffffffffffffffffffffffffffffff82036120ff576120fe612093565b5b600182019050919050565b600081905092915050565b600061212082611b11565b61212a818561210a565b935061213a818560208601611b2d565b80840191505092915050565b60006121528285612115565b915061215e8284612115565b91508190509392505050565b60008190508160005260206000209050919050565b60006020601f8301049050919050565b600082821b905092915050565b6000600883026121cc7fffffffffffffffffffffffffffffffffffffffffffffffffffffffffffffffff8261218f565b6121d6868361218f565b95508019841693508086168417925050509392505050565b6000819050919050565b600061221361220e61220984611bc3565b6121ee565b611bc3565b9050919050565b6000819050919050565b61222d836121f8565b6122416122398261221a565b84845461219c565b825550505050565b600090565b612256612249565b612261818484612224565b505050565b5b818110156122855761227a60008261224e565b600181019050612267565b5050565b601f8211156122ca5761229b8161216a565b6122a48461217f565b810160208510156122b3578190505b6122c76122bf8561217f565b830182612266565b50505b505050565b600082821c905092915050565b60006122ed600019846008026122cf565b1980831691505092915050565b600061230683836122dc565b9150826002028217905092915050565b61231f82611b11565b67ffffffffffffffff81111561233857612337611e0e565b5b612342825461202b565b61234d828285612289565b600060209050601f831160018114612380576000841561236e578287015190505b61237885826122fa565b8655506123e0565b601f19841661238e8661216a565b60005b828110156123b657848901518255600182019150602085019450602081019050612391565b868310156123d357848901516123cf601f8916826122dc565b8355505b6001600288020188555050505b505050505050565b600081519050919050565b600082825260208201905092915050565b600061240f826123e8565b61241981856123f3565b9350612429818560208601611b2d565b61243281611b57565b840191505092915050565b60006080820190506124526000830187611c58565b61245f6020830186611c58565b61246c6040830185611d6e565b818103606083015261247e8184612404565b905095945050505050565b60008151905061249881611a82565b92915050565b6000602082840312156124b4576124b3611a4c565b5b60006124c284828501612489565b91505092915050565b60006040820190506124e06000830185611c58565b6124ed6020830184611d6e565b9392505050565b7f4e487b7100000000000000000000000000000000000000000000000000000000600052601260045260246000fdfe697066733a2f2f6261666b72656963356f737277627374706169786a72646f78636975676a33666a77337a676e71766d6d337a62766e71636b376e6e676236616161a2646970667358221220f665fcdcedb3aff78d24a30c64b367dce3dd26f979c08a803d66bd5f416cd4e764736f6c63430008140033",
  "linkReferences": {},
  "deployedLinkReferences": {}
}