{
  "_format": "hh-sol-artifact-1",
  "contractName": "VotingContractNFTReward",
  "sourceName": "contracts/VotingContractNFTReward.sol",
  "abi": [
    {
      "inputs": [
        {
          "internalType": "address",
          "name": "_nft",
          "type": "address"
        },
        {
          "internalType": "address",
          "name": "_registry",
          "type": "address"
        }
      ],
      "stateMutability": "nonpayable",
      "type": "constructor"
    },
    {
      "inputs": [
        {
          "internalType": "string[]",
          "name": "_options",
          "type": "string[]"
        },
        {
          "internalType": "uint256",
          "name": "durationSeconds",
          "type": "uint256"
        }
      ],
      "name": "createVote",
      "outputs": [],
      "stateMutability": "nonpayable",
      "type": "function"
    },
    {
      "inputs": [],
      "name": "currentVoteId",
      "outputs": [
        {
          "internalType": "uint256",
          "name": "",
          "type": "uint256"
        }
      ],
      "stateMutability": "view",
      "type": "function"
    },
    {
      "inputs": [
        {
          "internalType": "uint256",
          "name": "voteId",
          "type": "uint256"
        }
      ],
      "name": "getOptions",
      "outputs": [
        {
          "internalType": "string[]",
          "name": "",
          "type": "string[]"
        }
      ],
      "stateMutability": "view",
      "type": "function"
    },
    {
      "inputs": [
        {
          "internalType": "uint256",
          "name": "voteId",
          "type": "uint256"
        }
      ],
      "name": "getResults",
      "outputs": [
        {
          "internalType": "uint256[]",
          "name": "",
          "type": "uint256[]"
        }
      ],
      "stateMutability": "view",
      "type": "function"
    },
    {
      "inputs": [],
      "name": "nft",
      "outputs": [
        {
          "internalType": "contract RewardNFT",
          "name": "",
          "type": "address"
        }
      ],
      "stateMutability": "view",
      "type": "function"
    },
    {
      "inputs": [],
      "name": "owner",
      "outputs": [
        {
          "internalType": "address",
          "name": "",
          "type": "address"
        }
      ],
      "stateMutability": "view",
      "type": "function"
    },
    {
      "inputs": [],
      "name": "registry",
      "outputs": [
        {
          "internalType": "contract VotingRegistry",
          "name": "",
          "type": "address"
        }
      ],
      "stateMutability": "view",
      "type": "function"
    },
    {
      "inputs": [
        {
          "internalType": "uint256",
          "name": "voteId",
          "type": "uint256"
        },
        {
          "internalType": "uint256",
          "name": "optionIndex",
          "type": "uint256"
        }
      ],
      "name": "vote",
      "outputs": [],
      "stateMutability": "nonpayable",
      "type": "function"
    },
    {
      "inputs": [
        {
          "internalType": "uint256",
          "name": "",
          "type": "uint256"
        }
      ],
      "name": "votes",
      "outputs": [
        {
          "internalType": "uint256",
          "name": "endTime",
          "type": "uint256"
        },
        {
          "internalType": "bool",
          "name": "exists",
          "type": "bool"
        }
      ],
      "stateMutability": "view",
      "type": "function"
    }
  ],
  "bytecode": "0x60806040523480156200001157600080fd5b5060405162001a1b38038062001a1b8339818101604052810190620000379190620001fc565b81600260006101000a81548173ffffffffffffffffffffffffffffffffffffffff021916908373ffffffffffffffffffffffffffffffffffffffff16021790555080600160006101000a81548173ffffffffffffffffffffffffffffffffffffffff021916908373ffffffffffffffffffffffffffffffffffffffff160217905550336000806101000a81548173ffffffffffffffffffffffffffffffffffffffff021916908373ffffffffffffffffffffffffffffffffffffffff160217905550600160009054906101000a900473ffffffffffffffffffffffffffffffffffffffff1673ffffffffffffffffffffffffffffffffffffffff1663181fe10f306040518263ffffffff1660e01b815260040162000156919062000254565b600060405180830381600087803b1580156200017157600080fd5b505af115801562000186573d6000803e3d6000fd5b50505050505062000271565b600080fd5b600073ffffffffffffffffffffffffffffffffffffffff82169050919050565b6000620001c48262000197565b9050919050565b620001d681620001b7565b8114620001e257600080fd5b50565b600081519050620001f681620001cb565b92915050565b6000806040838503121562000216576200021562000192565b5b60006200022685828601620001e5565b92505060206200023985828601620001e5565b9150509250929050565b6200024e81620001b7565b82525050565b60006020820190506200026b600083018462000243565b92915050565b61179a80620002816000396000f3fe608060405234801561001057600080fd5b50600436106100935760003560e01c806381a60c0d1161006657806381a60c0d146101215780638915b3fb146101515780638da5cb5b146101815780639100b5dd1461019f578063b384abef146101bd57610093565b8063311c3bb01461009857806347ccca02146100b45780635df81330146100d25780637b10399914610103575b600080fd5b6100b260048036038101906100ad9190610c26565b6101d9565b005b6100bc610378565b6040516100c99190610d01565b60405180910390f35b6100ec60048036038101906100e79190610d1c565b61039e565b6040516100fa929190610d73565b60405180910390f35b61010b6103cf565b6040516101189190610dbd565b60405180910390f35b61013b60048036038101906101369190610d1c565b6103f5565b6040516101489190610e96565b60405180910390f35b61016b60048036038101906101669190610d1c565b61050e565b6040516101789190610ff9565b60405180910390f35b6101896105fd565b604051610196919061103c565b60405180910390f35b6101a7610621565b6040516101b49190611057565b60405180910390f35b6101d760048036038101906101d29190611072565b610627565b005b60008054906101000a900473ffffffffffffffffffffffffffffffffffffffff1673ffffffffffffffffffffffffffffffffffffffff163373ffffffffffffffffffffffffffffffffffffffff1614610267576040517f08c379a000000000000000000000000000000000000000000000000000000000815260040161025e9061110f565b60405180910390fd5b6003600081548092919061027a9061115e565b919050555060006004600060035481526020019081526020016000209050828160000190805190602001906102b09291906108d6565b5081426102bd91906111a6565b816003018190555060018160040160006101000a81548160ff021916908315150217905550600160009054906101000a900473ffffffffffffffffffffffffffffffffffffffff1673ffffffffffffffffffffffffffffffffffffffff1663a446b900306003546040518363ffffffff1660e01b81526004016103419291906111da565b600060405180830381600087803b15801561035b57600080fd5b505af115801561036f573d6000803e3d6000fd5b50505050505050565b600260009054906101000a900473ffffffffffffffffffffffffffffffffffffffff1681565b60046020528060005260406000206000915090508060030154908060040160009054906101000a900460ff16905082565b600160009054906101000a900473ffffffffffffffffffffffffffffffffffffffff1681565b606060006004600084815260200190815260200160002090508060030154421015610455576040517f08c379a000000000000000000000000000000000000000000000000000000000815260040161044c9061124f565b60405180910390fd5b6000816000018054905067ffffffffffffffff811115610478576104776109da565b5b6040519080825280602002602001820160405280156104a65781602001602082028036833780820191505090505b50905060005b826000018054905081101561050357826001016000828152602001908152602001600020548282815181106104e4576104e361126f565b5b60200260200101818152505080806104fb9061115e565b9150506104ac565b508092505050919050565b606060046000838152602001908152602001600020600001805480602002602001604051908101604052809291908181526020016000905b828210156105f2578382906000526020600020018054610565906112cd565b80601f0160208091040260200160405190810160405280929190818152602001828054610591906112cd565b80156105de5780601f106105b3576101008083540402835291602001916105de565b820191906000526020600020905b8154815290600101906020018083116105c157829003601f168201915b505050505081526020019060010190610546565b505050509050919050565b60008054906101000a900473ffffffffffffffffffffffffffffffffffffffff1681565b60035481565b60006004600084815260200190815260200160002090508060040160009054906101000a900460ff1661068f576040517f08c379a00000000000000000000000000000000000000000000000000000000081526004016106869061134a565b60405180910390fd5b806003015442106106d5576040517f08c379a00000000000000000000000000000000000000000000000000000000081526004016106cc906113b6565b60405180910390fd5b8060020160003373ffffffffffffffffffffffffffffffffffffffff1673ffffffffffffffffffffffffffffffffffffffff16815260200190815260200160002060009054906101000a900460ff1615610764576040517f08c379a000000000000000000000000000000000000000000000000000000000815260040161075b90611422565b60405180910390fd5b806000018054905082106107ad576040517f08c379a00000000000000000000000000000000000000000000000000000000081526004016107a49061148e565b60405180910390fd5b60018160020160003373ffffffffffffffffffffffffffffffffffffffff1673ffffffffffffffffffffffffffffffffffffffff16815260200190815260200160002060006101000a81548160ff021916908315150217905550806001016000838152602001908152602001600020600081548092919061082d9061115e565b9190505550600260009054906101000a900473ffffffffffffffffffffffffffffffffffffffff1673ffffffffffffffffffffffffffffffffffffffff16636a627842336040518263ffffffff1660e01b815260040161088d919061103c565b6020604051808303816000875af11580156108ac573d6000803e3d6000fd5b505050506040513d601f19601f820116820180604052508101906108d091906114c3565b50505050565b82805482825590600052602060002090810192821561091e579160200282015b8281111561091d57825182908161090d9190611692565b50916020019190600101906108f6565b5b50905061092b919061092f565b5090565b5b8082111561094f57600081816109469190610953565b50600101610930565b5090565b50805461095f906112cd565b6000825580601f106109715750610990565b601f01602090049060005260206000209081019061098f9190610993565b5b50565b5b808211156109ac576000816000905550600101610994565b5090565b6000604051905090565b600080fd5b600080fd5b600080fd5b6000601f19601f8301169050919050565b7f4e487b7100000000000000000000000000000000000000000000000000000000600052604160045260246000fd5b610a12826109c9565b810181811067ffffffffffffffff82111715610a3157610a306109da565b5b80604052505050565b6000610a446109b0565b9050610a508282610a09565b919050565b600067ffffffffffffffff821115610a7057610a6f6109da565b5b602082029050602081019050919050565b600080fd5b600080fd5b600067ffffffffffffffff821115610aa657610aa56109da565b5b610aaf826109c9565b9050602081019050919050565b82818337600083830152505050565b6000610ade610ad984610a8b565b610a3a565b905082815260208101848484011115610afa57610af9610a86565b5b610b05848285610abc565b509392505050565b600082601f830112610b2257610b216109c4565b5b8135610b32848260208601610acb565b91505092915050565b6000610b4e610b4984610a55565b610a3a565b90508083825260208201905060208402830185811115610b7157610b70610a81565b5b835b81811015610bb857803567ffffffffffffffff811115610b9657610b956109c4565b5b808601610ba38982610b0d565b85526020850194505050602081019050610b73565b5050509392505050565b600082601f830112610bd757610bd66109c4565b5b8135610be7848260208601610b3b565b91505092915050565b6000819050919050565b610c0381610bf0565b8114610c0e57600080fd5b50565b600081359050610c2081610bfa565b92915050565b60008060408385031215610c3d57610c3c6109ba565b5b600083013567ffffffffffffffff811115610c5b57610c5a6109bf565b5b610c6785828601610bc2565b9250506020610c7885828601610c11565b9150509250929050565b600073ffffffffffffffffffffffffffffffffffffffff82169050919050565b6000819050919050565b6000610cc7610cc2610cbd84610c82565b610ca2565b610c82565b9050919050565b6000610cd982610cac565b9050919050565b6000610ceb82610cce565b9050919050565b610cfb81610ce0565b82525050565b6000602082019050610d166000830184610cf2565b92915050565b600060208284031215610d3257610d316109ba565b5b6000610d4084828501610c11565b91505092915050565b610d5281610bf0565b82525050565b60008115159050919050565b610d6d81610d58565b82525050565b6000604082019050610d886000830185610d49565b610d956020830184610d64565b9392505050565b6000610da782610cce565b9050919050565b610db781610d9c565b82525050565b6000602082019050610dd26000830184610dae565b92915050565b600081519050919050565b600082825260208201905092915050565b6000819050602082019050919050565b610e0d81610bf0565b82525050565b6000610e1f8383610e04565b60208301905092915050565b6000602082019050919050565b6000610e4382610dd8565b610e4d8185610de3565b9350610e5883610df4565b8060005b83811015610e89578151610e708882610e13565b9750610e7b83610e2b565b925050600181019050610e5c565b5085935050505092915050565b60006020820190508181036000830152610eb08184610e38565b905092915050565b600081519050919050565b600082825260208201905092915050565b6000819050602082019050919050565b600081519050919050565b600082825260208201905092915050565b60005b83811015610f1e578082015181840152602081019050610f03565b60008484015250505050565b6000610f3582610ee4565b610f3f8185610eef565b9350610f4f818560208601610f00565b610f58816109c9565b840191505092915050565b6000610f6f8383610f2a565b905092915050565b6000602082019050919050565b6000610f8f82610eb8565b610f998185610ec3565b935083602082028501610fab85610ed4565b8060005b85811015610fe75784840389528151610fc88582610f63565b9450610fd383610f77565b925060208a01995050600181019050610faf565b50829750879550505050505092915050565b600060208201905081810360008301526110138184610f84565b905092915050565b600061102682610c82565b9050919050565b6110368161101b565b82525050565b6000602082019050611051600083018461102d565b92915050565b600060208201905061106c6000830184610d49565b92915050565b60008060408385031215611089576110886109ba565b5b600061109785828601610c11565b92505060206110a885828601610c11565b9150509250929050565b600082825260208201905092915050565b7f4e6f74206f776e65720000000000000000000000000000000000000000000000600082015250565b60006110f96009836110b2565b9150611104826110c3565b602082019050919050565b60006020820190508181036000830152611128816110ec565b9050919050565b7f4e487b7100000000000000000000000000000000000000000000000000000000600052601160045260246000fd5b600061116982610bf0565b91507fffffffffffffffffffffffffffffffffffffffffffffffffffffffffffffffff820361119b5761119a61112f565b5b600182019050919050565b60006111b182610bf0565b91506111bc83610bf0565b92508282019050808211156111d4576111d361112f565b5b92915050565b60006040820190506111ef600083018561102d565b6111fc6020830184610d49565b9392505050565b7f566f74696e67207374696c6c206f6e676f696e67000000000000000000000000600082015250565b60006112396014836110b2565b915061124482611203565b602082019050919050565b600060208201905081810360008301526112688161122c565b9050919050565b7f4e487b7100000000000000000000000000000000000000000000000000000000600052603260045260246000fd5b7f4e487b7100000000000000000000000000000000000000000000000000000000600052602260045260246000fd5b600060028204905060018216806112e557607f821691505b6020821081036112f8576112f761129e565b5b50919050565b7f566f746520646f6573206e6f7420657869737400000000000000000000000000600082015250565b60006113346013836110b2565b915061133f826112fe565b602082019050919050565b6000602082019050818103600083015261136381611327565b9050919050565b7f566f74696e6720656e6465640000000000000000000000000000000000000000600082015250565b60006113a0600c836110b2565b91506113ab8261136a565b602082019050919050565b600060208201905081810360008301526113cf81611393565b9050919050565b7f416c726561647920766f74656400000000000000000000000000000000000000600082015250565b600061140c600d836110b2565b9150611417826113d6565b602082019050919050565b6000602082019050818103600083015261143b816113ff565b9050919050565b7f496e76616c6964206f7074696f6e000000000000000000000000000000000000600082015250565b6000611478600e836110b2565b915061148382611442565b602082019050919050565b600060208201905081810360008301526114a78161146b565b9050919050565b6000815190506114bd81610bfa565b92915050565b6000602082840312156114d9576114d86109ba565b5b60006114e7848285016114ae565b91505092915050565b60008190508160005260206000209050919050565b60006020601f8301049050919050565b600082821b905092915050565b6000600883026115527fffffffffffffffffffffffffffffffffffffffffffffffffffffffffffffffff82611515565b61155c8683611515565b95508019841693508086168417925050509392505050565b600061158f61158a61158584610bf0565b610ca2565b610bf0565b9050919050565b6000819050919050565b6115a983611574565b6115bd6115b582611596565b848454611522565b825550505050565b600090565b6115d26115c5565b6115dd8184846115a0565b505050565b5b81811015611601576115f66000826115ca565b6001810190506115e3565b5050565b601f82111561164657611617816114f0565b61162084611505565b8101602085101561162f578190505b61164361163b85611505565b8301826115e2565b50505b505050565b600082821c905092915050565b60006116696000198460080261164b565b1980831691505092915050565b60006116828383611658565b9150826002028217905092915050565b61169b82610ee4565b67ffffffffffffffff8111156116b4576116b36109da565b5b6116be82546112cd565b6116c9828285611605565b600060209050601f8311600181146116fc57600084156116ea578287015190505b6116f48582611676565b86555061175c565b601f19841661170a866114f0565b60005b828110156117325784890151825560018201915060208501945060208101905061170d565b8683101561174f578489015161174b601f891682611658565b8355505b6001600288020188555050505b50505050505056fea2646970667358221220ac7659368318cf9b9e5250ac08d67681f9a8679b46c2b288932548be9aca4e3b64736f6c63430008140033",
  "linkReferences": {},
  "deployedLinkReferences": {}
}