{
  "_format": "hh-sol-artifact-1",
  "contractName": "NFTContract",
  "sourceName": "contracts/NFTContract.sol",
  "abi": [
    {
      "inputs": [
        {
          "internalType": "string",
          "name": "name",
          "type": "string"
        },
        {
          "internalType": "string",
          "name": "symbol",
          "type": "string"
        },
        {
          "internalType": "string",
          "name": "_baseTokenURI",
          "type": "string"
        }
      ],
      "stateMutability": "nonpayable",
      "type": "constructor"
    },
    {
      "inputs": [
        {
          "internalType": "address",
          "name": "sender",
          "type": "address"
        },
        {
          "internalType": "uint256",
          "name": "tokenId",
          "type": "uint256"
        },
        {
          "internalType": "address",
          "name": "owner",
          "type": "address"
        }
      ],
      "name": "ERC721IncorrectOwner",
      "type": "error"
    },
    {
      "inputs": [
        {
          "internalType": "address",
          "name": "operator",
          "type": "address"
        },
        {
          "internalType": "uint256",
          "name": "tokenId",
          "type": "uint256"
        }
      ],
      "name": "ERC721InsufficientApproval",
      "type": "error"
    },
    {
      "inputs": [
        {
          "internalType": "address",
          "name": "approver",
          "type": "address"
        }
      ],
      "name": "ERC721InvalidApprover",
      "type": "error"
    },
    {
      "inputs": [
        {
          "internalType": "address",
          "name": "operator",
          "type": "address"
        }
      ],
      "name": "ERC721InvalidOperator",
      "type": "error"
    },
    {
      "inputs": [
        {
          "internalType": "address",
          "name": "owner",
          "type": "address"
        }
      ],
      "name": "ERC721InvalidOwner",
      "type": "error"
    },
    {
      "inputs": [
        {
          "internalType": "address",
          "name": "receiver",
          "type": "address"
        }
      ],
      "name": "ERC721InvalidReceiver",
      "type": "error"
    },
    {
      "inputs": [
        {
          "internalType": "address",
          "name": "sender",
          "type": "address"
        }
      ],
      "name": "ERC721InvalidSender",
      "type": "error"
    },
    {
      "inputs": [
        {
          "internalType": "uint256",
          "name": "tokenId",
          "type": "uint256"
        }
      ],
      "name": "ERC721NonexistentToken",
      "type": "error"
    },
    {
      "inputs": [
        {
          "internalType": "address",
          "name": "owner",
          "type": "address"
        }
      ],
      "name": "OwnableInvalidOwner",
      "type": "error"
    },
    {
      "inputs": [
        {
          "internalType": "address",
          "name": "account",
          "type": "address"
        }
      ],
      "name": "OwnableUnauthorizedAccount",
      "type": "error"
    },
    {
      "anonymous": false,
      "inputs": [
        {
          "indexed": true,
          "internalType": "address",
          "name": "owner",
          "type": "address"
        },
        {
          "indexed": true,
          "internalType": "address",
          "name": "approved",
          "type": "address"
        },
        {
          "indexed": true,
          "internalType": "uint256",
          "name": "tokenId",
          "type": "uint256"
        }
      ],
      "name": "Approval",
      "type": "event"
    },
    {
      "anonymous": false,
      "inputs": [
        {
          "indexed": true,
          "internalType": "address",
          "name": "owner",
          "type": "address"
        },
        {
          "indexed": true,
          "internalType": "address",
          "name": "operator",
          "type": "address"
        },
        {
          "indexed": false,
          "internalType": "bool",
          "name": "approved",
          "type": "bool"
        }
      ],
      "name": "ApprovalForAll",
      "type": "event"
    },
    {
      "anonymous": false,
      "inputs": [
        {
          "indexed": false,
          "internalType": "uint256",
          "name": "_fromTokenId",
          "type": "uint256"
        },
        {
          "indexed": false,
          "internalType": "uint256",
          "name": "_toTokenId",
          "type": "uint256"
        }
      ],
      "name": "BatchMetadataUpdate",
      "type": "event"
    },
    {
      "anonymous": false,
      "inputs": [
        {
          "indexed": true,
          "internalType": "address",
          "name": "marketplace",
          "type": "address"
        }
      ],
      "name": "MarketplaceUpdated",
      "type": "event"
    },
    {
      "anonymous": false,
      "inputs": [
        {
          "indexed": false,
          "internalType": "uint256",
          "name": "_tokenId",
          "type": "uint256"
        }
      ],
      "name": "MetadataUpdate",
      "type": "event"
    },
    {
      "anonymous": false,
      "inputs": [
        {
          "indexed": true,
          "internalType": "address",
          "name": "minter",
          "type": "address"
        }
      ],
      "name": "MinterAdded",
      "type": "event"
    },
    {
      "anonymous": false,
      "inputs": [
        {
          "indexed": true,
          "internalType": "address",
          "name": "minter",
          "type": "address"
        }
      ],
      "name": "MinterRemoved",
      "type": "event"
    },
    {
      "anonymous": false,
      "inputs": [
        {
          "indexed": false,
          "internalType": "uint256",
          "name": "tokenId",
          "type": "uint256"
        }
      ],
      "name": "NFTBurned",
      "type": "event"
    },
    {
      "anonymous": false,
      "inputs": [
        {
          "indexed": true,
          "internalType": "address",
          "name": "to",
          "type": "address"
        },
        {
          "indexed": false,
          "internalType": "uint256",
          "name": "tokenId",
          "type": "uint256"
        }
      ],
      "name": "NFTMinted",
      "type": "event"
    },
    {
      "anonymous": false,
      "inputs": [
        {
          "indexed": true,
          "internalType": "address",
          "name": "previousOwner",
          "type": "address"
        },
        {
          "indexed": true,
          "internalType": "address",
          "name": "newOwner",
          "type": "address"
        }
      ],
      "name": "OwnershipTransferred",
      "type": "event"
    },
    {
      "anonymous": false,
      "inputs": [
        {
          "indexed": true,
          "internalType": "address",
          "name": "from",
          "type": "address"
        },
        {
          "indexed": true,
          "internalType": "address",
          "name": "to",
          "type": "address"
        },
        {
          "indexed": true,
          "internalType": "uint256",
          "name": "tokenId",
          "type": "uint256"
        }
      ],
      "name": "Transfer",
      "type": "event"
    },
    {
      "inputs": [
        {
          "internalType": "address",
          "name": "minter",
          "type": "address"
        }
      ],
      "name": "addMinter",
      "outputs": [],
      "stateMutability": "nonpayable",
      "type": "function"
    },
    {
      "inputs": [
        {
          "internalType": "address",
          "name": "to",
          "type": "address"
        },
        {
          "internalType": "uint256",
          "name": "tokenId",
          "type": "uint256"
        }
      ],
      "name": "approve",
      "outputs": [],
      "stateMutability": "nonpayable",
      "type": "function"
    },
    {
      "inputs": [
        {
          "internalType": "address",
          "name": "owner",
          "type": "address"
        }
      ],
      "name": "balanceOf",
      "outputs": [
        {
          "internalType": "uint256",
          "name": "",
          "type": "uint256"
        }
      ],
      "stateMutability": "view",
      "type": "function"
    },
    {
      "inputs": [],
      "name": "baseTokenURI",
      "outputs": [
        {
          "internalType": "string",
          "name": "",
          "type": "string"
        }
      ],
      "stateMutability": "view",
      "type": "function"
    },
    {
      "inputs": [
        {
          "internalType": "uint256",
          "name": "tokenId",
          "type": "uint256"
        }
      ],
      "name": "burn",
      "outputs": [],
      "stateMutability": "nonpayable",
      "type": "function"
    },
    {
      "inputs": [
        {
          "internalType": "uint256",
          "name": "tokenId",
          "type": "uint256"
        }
      ],
      "name": "getApproved",
      "outputs": [
        {
          "internalType": "address",
          "name": "",
          "type": "address"
        }
      ],
      "stateMutability": "view",
      "type": "function"
    },
    {
      "inputs": [],
      "name": "getTotalSupply",
      "outputs": [
        {
          "internalType": "uint256",
          "name": "",
          "type": "uint256"
        }
      ],
      "stateMutability": "view",
      "type": "function"
    },
    {
      "inputs": [
        {
          "internalType": "address",
          "name": "owner",
          "type": "address"
        },
        {
          "internalType": "address",
          "name": "operator",
          "type": "address"
        }
      ],
      "name": "isApprovedForAll",
      "outputs": [
        {
          "internalType": "bool",
          "name": "",
          "type": "bool"
        }
      ],
      "stateMutability": "view",
      "type": "function"
    },
    {
      "inputs": [
        {
          "internalType": "address",
          "name": "minter",
          "type": "address"
        }
      ],
      "name": "isMinter",
      "outputs": [
        {
          "internalType": "bool",
          "name": "",
          "type": "bool"
        }
      ],
      "stateMutability": "view",
      "type": "function"
    },
    {
      "inputs": [
        {
          "internalType": "address",
          "name": "to",
          "type": "address"
        }
      ],
      "name": "mintReward",
      "outputs": [
        {
          "internalType": "uint256",
          "name": "",
          "type": "uint256"
        }
      ],
      "stateMutability": "nonpayable",
      "type": "function"
    },
    {
      "inputs": [],
      "name": "name",
      "outputs": [
        {
          "internalType": "string",
          "name": "",
          "type": "string"
        }
      ],
      "stateMutability": "view",
      "type": "function"
    },
    {
      "inputs": [],
      "name": "owner",
      "outputs": [
        {
          "internalType": "address",
          "name": "",
          "type": "address"
        }
      ],
      "stateMutability": "view",
      "type": "function"
    },
    {
      "inputs": [
        {
          "internalType": "uint256",
          "name": "tokenId",
          "type": "uint256"
        }
      ],
      "name": "ownerOf",
      "outputs": [
        {
          "internalType": "address",
          "name": "",
          "type": "address"
        }
      ],
      "stateMutability": "view",
      "type": "function"
    },
    {
      "inputs": [
        {
          "internalType": "address",
          "name": "minter",
          "type": "address"
        }
      ],
      "name": "removeMinter",
      "outputs": [],
      "stateMutability": "nonpayable",
      "type": "function"
    },
    {
      "inputs": [],
      "name": "renounceOwnership",
      "outputs": [],
      "stateMutability": "nonpayable",
      "type": "function"
    },
    {
      "inputs": [
        {
          "internalType": "address",
          "name": "from",
          "type": "address"
        },
        {
          "internalType": "address",
          "name": "to",
          "type": "address"
        },
        {
          "internalType": "uint256",
          "name": "tokenId",
          "type": "uint256"
        }
      ],
      "name": "safeTransferFrom",
      "outputs": [],
      "stateMutability": "nonpayable",
      "type": "function"
    },
    {
      "inputs": [
        {
          "internalType": "address",
          "name": "from",
          "type": "address"
        },
        {
          "internalType": "address",
          "name": "to",
          "type": "address"
        },
        {
          "internalType": "uint256",
          "name": "tokenId",
          "type": "uint256"
        },
        {
          "internalType": "bytes",
          "name": "data",
          "type": "bytes"
        }
      ],
      "name": "safeTransferFrom",
      "outputs": [],
      "stateMutability": "nonpayable",
      "type": "function"
    },
    {
      "inputs": [
        {
          "internalType": "address",
          "name": "operator",
          "type": "address"
        },
        {
          "internalType": "bool",
          "name": "approved",
          "type": "bool"
        }
      ],
      "name": "setApprovalForAll",
      "outputs": [],
      "stateMutability": "nonpayable",
      "type": "function"
    },
    {
      "inputs": [
        {
          "internalType": "string",
          "name": "_baseTokenURI",
          "type": "string"
        }
      ],
      "name": "setBaseURI",
      "outputs": [],
      "stateMutability": "nonpayable",
      "type": "function"
    },
    {
      "inputs": [
        {
          "internalType": "address",
          "name": "marketplace",
          "type": "address"
        }
      ],
      "name": "setMarketplace",
      "outputs": [],
      "stateMutability": "nonpayable",
      "type": "function"
    },
    {
      "inputs": [
        {
          "internalType": "bytes4",
          "name": "interfaceId",
          "type": "bytes4"
        }
      ],
      "name": "supportsInterface",
      "outputs": [
        {
          "internalType": "bool",
          "name": "",
          "type": "bool"
        }
      ],
      "stateMutability": "view",
      "type": "function"
    },
    {
      "inputs": [],
      "name": "symbol",
      "outputs": [
        {
          "internalType": "string",
          "name": "",
          "type": "string"
        }
      ],
      "stateMutability": "view",
      "type": "function"
    },
    {
      "inputs": [
        {
          "internalType": "uint256",
          "name": "tokenId",
          "type": "uint256"
        }
      ],
      "name": "tokenURI",
      "outputs": [
        {
          "internalType": "string",
          "name": "",
          "type": "string"
        }
      ],
      "stateMutability": "view",
      "type": "function"
    },
    {
      "inputs": [
        {
          "internalType": "address",
          "name": "from",
          "type": "address"
        },
        {
          "internalType": "address",
          "name": "to",
          "type": "address"
        },
        {
          "internalType": "uint256",
          "name": "tokenId",
          "type": "uint256"
        }
      ],
      "name": "transferFrom",
      "outputs": [],
      "stateMutability": "nonpayable",
      "type": "function"
    },
    {
      "inputs": [
        {
          "internalType": "address",
          "name": "newOwner",
          "type": "address"
        }
      ],
      "name": "transferOwnership",
      "outputs": [],
      "stateMutability": "nonpayable",
      "type": "function"
    }
  ],
  "bytecode": "0x608060405260016008553480156200001657600080fd5b50604051620039f9380380620039f983398181016040528101906200003c919062000360565b338383816000908162000050919062000664565b50806001908162000062919062000664565b505050600073ffffffffffffffffffffffffffffffffffffffff168173ffffffffffffffffffffffffffffffffffffffff1603620000da5760006040517f1e4fbdf7000000000000000000000000000000000000000000000000000000008152600401620000d1919062000790565b60405180910390fd5b620000eb816200010760201b60201c565b5080600a9081620000fd919062000664565b50505050620007ad565b6000600760009054906101000a900473ffffffffffffffffffffffffffffffffffffffff16905081600760006101000a81548173ffffffffffffffffffffffffffffffffffffffff021916908373ffffffffffffffffffffffffffffffffffffffff1602179055508173ffffffffffffffffffffffffffffffffffffffff168173ffffffffffffffffffffffffffffffffffffffff167f8be0079c531659141344cd1fd0a4f28419497f9722a3daafe3b4186f6b6457e060405160405180910390a35050565b6000604051905090565b600080fd5b600080fd5b600080fd5b600080fd5b6000601f19601f8301169050919050565b7f4e487b7100000000000000000000000000000000000000000000000000000000600052604160045260246000fd5b6200023682620001eb565b810181811067ffffffffffffffff82111715620002585762000257620001fc565b5b80604052505050565b60006200026d620001cd565b90506200027b82826200022b565b919050565b600067ffffffffffffffff8211156200029e576200029d620001fc565b5b620002a982620001eb565b9050602081019050919050565b60005b83811015620002d6578082015181840152602081019050620002b9565b60008484015250505050565b6000620002f9620002f38462000280565b62000261565b905082815260208101848484011115620003185762000317620001e6565b5b62000325848285620002b6565b509392505050565b600082601f830112620003455762000344620001e1565b5b815162000357848260208601620002e2565b91505092915050565b6000806000606084860312156200037c576200037b620001d7565b5b600084015167ffffffffffffffff8111156200039d576200039c620001dc565b5b620003ab868287016200032d565b935050602084015167ffffffffffffffff811115620003cf57620003ce620001dc565b5b620003dd868287016200032d565b925050604084015167ffffffffffffffff811115620004015762000400620001dc565b5b6200040f868287016200032d565b9150509250925092565b600081519050919050565b7f4e487b7100000000000000000000000000000000000000000000000000000000600052602260045260246000fd5b600060028204905060018216806200046c57607f821691505b60208210810362000482576200048162000424565b5b50919050565b60008190508160005260206000209050919050565b60006020601f8301049050919050565b600082821b905092915050565b600060088302620004ec7fffffffffffffffffffffffffffffffffffffffffffffffffffffffffffffffff82620004ad565b620004f88683620004ad565b95508019841693508086168417925050509392505050565b6000819050919050565b6000819050919050565b6000620005456200053f620005398462000510565b6200051a565b62000510565b9050919050565b6000819050919050565b620005618362000524565b6200057962000570826200054c565b848454620004ba565b825550505050565b600090565b6200059062000581565b6200059d81848462000556565b505050565b5b81811015620005c557620005b960008262000586565b600181019050620005a3565b5050565b601f8211156200061457620005de8162000488565b620005e9846200049d565b81016020851015620005f9578190505b6200061162000608856200049d565b830182620005a2565b50505b505050565b600082821c905092915050565b6000620006396000198460080262000619565b1980831691505092915050565b600062000654838362000626565b9150826002028217905092915050565b6200066f8262000419565b67ffffffffffffffff8111156200068b576200068a620001fc565b5b62000697825462000453565b620006a4828285620005c9565b600060209050601f831160018114620006dc5760008415620006c7578287015190505b620006d3858262000646565b86555062000743565b601f198416620006ec8662000488565b60005b828110156200071657848901518255600182019150602085019450602081019050620006ef565b8683101562000736578489015162000732601f89168262000626565b8355505b6001600288020188555050505b505050505050565b600073ffffffffffffffffffffffffffffffffffffffff82169050919050565b600062000778826200074b565b9050919050565b6200078a816200076b565b82525050565b6000602082019050620007a760008301846200077f565b92915050565b61323c80620007bd6000396000f3fe608060405234801561001057600080fd5b50600436106101735760003560e01c8063715018a6116100de578063aa271e1a11610097578063c87b56dd11610071578063c87b56dd14610432578063d547cfb714610462578063e985e9c514610480578063f2fde38b146104b057610173565b8063aa271e1a146103c8578063b88d4fde146103f8578063c4e41b221461041457610173565b8063715018a61461032e57806373ad6c2d146103385780638da5cb5b1461035457806395d89b4114610372578063983b2d5614610390578063a22cb465146103ac57610173565b80633092afd5116101305780633092afd51461025e57806342842e0e1461027a57806342966c681461029657806355f804b3146102b25780636352211e146102ce57806370a08231146102fe57610173565b806301ffc9a71461017857806306fdde03146101a8578063081812fc146101c6578063095ea7b3146101f657806323b872dd14610212578063241d79e11461022e575b600080fd5b610192600480360381019061018d919061234c565b6104cc565b60405161019f9190612394565b60405180910390f35b6101b061052d565b6040516101bd919061243f565b60405180910390f35b6101e060048036038101906101db9190612497565b6105bf565b6040516101ed9190612505565b60405180910390f35b610210600480360381019061020b919061254c565b6105db565b005b61022c6004803603810190610227919061258c565b6105f1565b005b610248600480360381019061024391906125df565b6106f3565b604051610255919061261b565b60405180910390f35b610278600480360381019061027391906125df565b610831565b005b610294600480360381019061028f919061258c565b6108d7565b005b6102b060048036038101906102ab9190612497565b6108f7565b005b6102cc60048036038101906102c7919061276b565b610a7d565b005b6102e860048036038101906102e39190612497565b610a98565b6040516102f59190612505565b60405180910390f35b610318600480360381019061031391906125df565b610aaa565b604051610325919061261b565b60405180910390f35b610336610b64565b005b610352600480360381019061034d91906125df565b610b78565b005b61035c610c07565b6040516103699190612505565b60405180910390f35b61037a610c31565b604051610387919061243f565b60405180910390f35b6103aa60048036038101906103a591906125df565b610cc3565b005b6103c660048036038101906103c191906127e0565b610d69565b005b6103e260048036038101906103dd91906125df565b610d7f565b6040516103ef9190612394565b60405180910390f35b610412600480360381019061040d91906128c1565b610dd5565b005b61041c610dfa565b604051610429919061261b565b60405180910390f35b61044c60048036038101906104479190612497565b610e10565b604051610459919061243f565b60405180910390f35b61046a610f23565b604051610477919061243f565b60405180910390f35b61049a60048036038101906104959190612944565b610fb1565b6040516104a79190612394565b60405180910390f35b6104ca60048036038101906104c591906125df565b611045565b005b6000634906490660e01b7bffffffffffffffffffffffffffffffffffffffffffffffffffffffff1916827bffffffffffffffffffffffffffffffffffffffffffffffffffffffff191614806105265750610525826110cb565b5b9050919050565b60606000805461053c906129b3565b80601f0160208091040260200160405190810160405280929190818152602001828054610568906129b3565b80156105b55780601f1061058a576101008083540402835291602001916105b5565b820191906000526020600020905b81548152906001019060200180831161059857829003601f168201915b5050505050905090565b60006105ca826111ad565b506105d482611235565b9050919050565b6105ed82826105e8611272565b61127a565b5050565b600073ffffffffffffffffffffffffffffffffffffffff168273ffffffffffffffffffffffffffffffffffffffff16036106635760006040517f64a0ae9200000000000000000000000000000000000000000000000000000000815260040161065a9190612505565b60405180910390fd5b60006106778383610672611272565b61128c565b90508373ffffffffffffffffffffffffffffffffffffffff168173ffffffffffffffffffffffffffffffffffffffff16146106ed578382826040517f64283d7b0000000000000000000000000000000000000000000000000000000081526004016106e4939291906129e4565b60405180910390fd5b50505050565b6000600960003373ffffffffffffffffffffffffffffffffffffffff1673ffffffffffffffffffffffffffffffffffffffff16815260200190815260200160002060009054906101000a900460ff16610781576040517f08c379a000000000000000000000000000000000000000000000000000000000815260040161077890612a67565b60405180910390fd5b60006008600081548092919061079690612ab6565b9190505590506107a683826114a6565b6107da81600a6107b58461159f565b6040516020016107c6929190612bf8565b6040516020818303038152906040526116ff565b8273ffffffffffffffffffffffffffffffffffffffff167f4cc0a9c4a99ddc700de1af2c9f916a7cbfdb71f14801ccff94061ad1ef8a804082604051610820919061261b565b60405180910390a280915050919050565b61083961175b565b6000600960008373ffffffffffffffffffffffffffffffffffffffff1673ffffffffffffffffffffffffffffffffffffffff16815260200190815260200160002060006101000a81548160ff0219169083151502179055508073ffffffffffffffffffffffffffffffffffffffff167fe94479a9f7e1952cc78f2d6baab678adc1b772d936c6583def489e524cb6669260405160405180910390a250565b6108f283838360405180602001604052806000815250610dd5565b505050565b600b60009054906101000a900473ffffffffffffffffffffffffffffffffffffffff1673ffffffffffffffffffffffffffffffffffffffff163373ffffffffffffffffffffffffffffffffffffffff1614610987576040517f08c379a000000000000000000000000000000000000000000000000000000000815260040161097e90612c77565b60405180910390fd5b3073ffffffffffffffffffffffffffffffffffffffff16636352211e826040518263ffffffff1660e01b81526004016109c0919061261b565b602060405180830381865afa9250505080156109fa57506040513d601f19601f820116820180604052508101906109f79190612cac565b60015b610a39576040517f08c379a0000000000000000000000000000000000000000000000000000000008152600401610a3090612d25565b60405180910390fd5b610a42826117e2565b7f3c176691ca154a2f6fe978a2a633a33ee77dbe2902e67a75400720845a4b2ce182604051610a71919061261b565b60405180910390a15050565b610a8561175b565b80600a9081610a949190612edc565b5050565b6000610aa3826111ad565b9050919050565b60008073ffffffffffffffffffffffffffffffffffffffff168273ffffffffffffffffffffffffffffffffffffffff1603610b1d5760006040517f89c62b64000000000000000000000000000000000000000000000000000000008152600401610b149190612505565b60405180910390fd5b600360008373ffffffffffffffffffffffffffffffffffffffff1673ffffffffffffffffffffffffffffffffffffffff168152602001908152602001600020549050919050565b610b6c61175b565b610b766000611868565b565b610b8061175b565b80600b60006101000a81548173ffffffffffffffffffffffffffffffffffffffff021916908373ffffffffffffffffffffffffffffffffffffffff1602179055508073ffffffffffffffffffffffffffffffffffffffff167f210690abd7fd6cdbb8f2beb202b2a253d58d7a0813b2175c4172c14c0c1af6dc60405160405180910390a250565b6000600760009054906101000a900473ffffffffffffffffffffffffffffffffffffffff16905090565b606060018054610c40906129b3565b80601f0160208091040260200160405190810160405280929190818152602001828054610c6c906129b3565b8015610cb95780601f10610c8e57610100808354040283529160200191610cb9565b820191906000526020600020905b815481529060010190602001808311610c9c57829003601f168201915b5050505050905090565b610ccb61175b565b6001600960008373ffffffffffffffffffffffffffffffffffffffff1673ffffffffffffffffffffffffffffffffffffffff16815260200190815260200160002060006101000a81548160ff0219169083151502179055508073ffffffffffffffffffffffffffffffffffffffff167f6ae172837ea30b801fbfcdd4108aa1d5bf8ff775444fd70256b44e6bf3dfc3f660405160405180910390a250565b610d7b610d74611272565b838361192e565b5050565b6000600960008373ffffffffffffffffffffffffffffffffffffffff1673ffffffffffffffffffffffffffffffffffffffff16815260200190815260200160002060009054906101000a900460ff169050919050565b610de08484846105f1565b610df4610deb611272565b85858585611a9d565b50505050565b60006001600854610e0b9190612fae565b905090565b6060610e1b826111ad565b506000600660008481526020019081526020016000208054610e3c906129b3565b80601f0160208091040260200160405190810160405280929190818152602001828054610e68906129b3565b8015610eb55780601f10610e8a57610100808354040283529160200191610eb5565b820191906000526020600020905b815481529060010190602001808311610e9857829003601f168201915b505050505090506000610ec6611c4e565b90506000815103610edb578192505050610f1e565b600082511115610f10578082604051602001610ef8929190612fe2565b60405160208183030381529060405292505050610f1e565b610f1984611c65565b925050505b919050565b600a8054610f30906129b3565b80601f0160208091040260200160405190810160405280929190818152602001828054610f5c906129b3565b8015610fa95780601f10610f7e57610100808354040283529160200191610fa9565b820191906000526020600020905b815481529060010190602001808311610f8c57829003601f168201915b505050505081565b6000600560008473ffffffffffffffffffffffffffffffffffffffff1673ffffffffffffffffffffffffffffffffffffffff16815260200190815260200160002060008373ffffffffffffffffffffffffffffffffffffffff1673ffffffffffffffffffffffffffffffffffffffff16815260200190815260200160002060009054906101000a900460ff16905092915050565b61104d61175b565b600073ffffffffffffffffffffffffffffffffffffffff168173ffffffffffffffffffffffffffffffffffffffff16036110bf5760006040517f1e4fbdf70000000000000000000000000000000000000000000000000000000081526004016110b69190612505565b60405180910390fd5b6110c881611868565b50565b60007f80ac58cd000000000000000000000000000000000000000000000000000000007bffffffffffffffffffffffffffffffffffffffffffffffffffffffff1916827bffffffffffffffffffffffffffffffffffffffffffffffffffffffff1916148061119657507f5b5e139f000000000000000000000000000000000000000000000000000000007bffffffffffffffffffffffffffffffffffffffffffffffffffffffff1916827bffffffffffffffffffffffffffffffffffffffffffffffffffffffff1916145b806111a657506111a582611cce565b5b9050919050565b6000806111b983611d38565b9050600073ffffffffffffffffffffffffffffffffffffffff168173ffffffffffffffffffffffffffffffffffffffff160361122c57826040517f7e273289000000000000000000000000000000000000000000000000000000008152600401611223919061261b565b60405180910390fd5b80915050919050565b60006004600083815260200190815260200160002060009054906101000a900473ffffffffffffffffffffffffffffffffffffffff169050919050565b600033905090565b6112878383836001611d75565b505050565b60008061129884611d38565b9050600073ffffffffffffffffffffffffffffffffffffffff168373ffffffffffffffffffffffffffffffffffffffff16146112da576112d9818486611f3a565b5b600073ffffffffffffffffffffffffffffffffffffffff168173ffffffffffffffffffffffffffffffffffffffff161461136b5761131c600085600080611d75565b6001600360008373ffffffffffffffffffffffffffffffffffffffff1673ffffffffffffffffffffffffffffffffffffffff168152602001908152602001600020600082825403925050819055505b600073ffffffffffffffffffffffffffffffffffffffff168573ffffffffffffffffffffffffffffffffffffffff16146113ee576001600360008773ffffffffffffffffffffffffffffffffffffffff1673ffffffffffffffffffffffffffffffffffffffff168152602001908152602001600020600082825401925050819055505b846002600086815260200190815260200160002060006101000a81548173ffffffffffffffffffffffffffffffffffffffff021916908373ffffffffffffffffffffffffffffffffffffffff160217905550838573ffffffffffffffffffffffffffffffffffffffff168273ffffffffffffffffffffffffffffffffffffffff167fddf252ad1be2c89b69c2b068fc378daa952ba7f163c4a11628f55a4df523b3ef60405160405180910390a4809150509392505050565b600073ffffffffffffffffffffffffffffffffffffffff168273ffffffffffffffffffffffffffffffffffffffff16036115185760006040517f64a0ae9200000000000000000000000000000000000000000000000000000000815260040161150f9190612505565b60405180910390fd5b60006115268383600061128c565b9050600073ffffffffffffffffffffffffffffffffffffffff168173ffffffffffffffffffffffffffffffffffffffff161461159a5760006040517f73c6ac6e0000000000000000000000000000000000000000000000000000000081526004016115919190612505565b60405180910390fd5b505050565b6060600082036115e6576040518060400160405280600181526020017f300000000000000000000000000000000000000000000000000000000000000081525090506116fa565b600082905060005b6000821461161857808061160190612ab6565b915050600a826116119190613035565b91506115ee565b60008167ffffffffffffffff81111561163457611633612640565b5b6040519080825280601f01601f1916602001820160405280156116665781602001600182028036833780820191505090505b5090505b600085146116f35760018261167f9190612fae565b9150600a8561168e9190613066565b603061169a9190613097565b60f81b8183815181106116b0576116af6130cb565b5b60200101907effffffffffffffffffffffffffffffffffffffffffffffffffffffffffffff1916908160001a905350600a856116ec9190613035565b945061166a565b8093505050505b919050565b8060066000848152602001908152602001600020908161171f9190612edc565b507ff8e1a15aba9398e019f0b49df1a4fde98ee17ae345cb5f6b5e2c27f5033e8ce78260405161174f919061261b565b60405180910390a15050565b611763611272565b73ffffffffffffffffffffffffffffffffffffffff16611781610c07565b73ffffffffffffffffffffffffffffffffffffffff16146117e0576117a4611272565b6040517f118cdaa70000000000000000000000000000000000000000000000000000000081526004016117d79190612505565b60405180910390fd5b565b60006117f1600083600061128c565b9050600073ffffffffffffffffffffffffffffffffffffffff168173ffffffffffffffffffffffffffffffffffffffff160361186457816040517f7e27328900000000000000000000000000000000000000000000000000000000815260040161185b919061261b565b60405180910390fd5b5050565b6000600760009054906101000a900473ffffffffffffffffffffffffffffffffffffffff16905081600760006101000a81548173ffffffffffffffffffffffffffffffffffffffff021916908373ffffffffffffffffffffffffffffffffffffffff1602179055508173ffffffffffffffffffffffffffffffffffffffff168173ffffffffffffffffffffffffffffffffffffffff167f8be0079c531659141344cd1fd0a4f28419497f9722a3daafe3b4186f6b6457e060405160405180910390a35050565b600073ffffffffffffffffffffffffffffffffffffffff168273ffffffffffffffffffffffffffffffffffffffff160361199f57816040517f5b08ba180000000000000000000000000000000000000000000000000000000081526004016119969190612505565b60405180910390fd5b80600560008573ffffffffffffffffffffffffffffffffffffffff1673ffffffffffffffffffffffffffffffffffffffff16815260200190815260200160002060008473ffffffffffffffffffffffffffffffffffffffff1673ffffffffffffffffffffffffffffffffffffffff16815260200190815260200160002060006101000a81548160ff0219169083151502179055508173ffffffffffffffffffffffffffffffffffffffff168373ffffffffffffffffffffffffffffffffffffffff167f17307eab39ab6107e8899845ad3d59bd9653f200f220920489ca2b5937696c3183604051611a909190612394565b60405180910390a3505050565b60008373ffffffffffffffffffffffffffffffffffffffff163b1115611c47578273ffffffffffffffffffffffffffffffffffffffff1663150b7a02868685856040518563ffffffff1660e01b8152600401611afc949392919061314f565b6020604051808303816000875af1925050508015611b3857506040513d601f19601f82011682018060405250810190611b3591906131b0565b60015b611bbc573d8060008114611b68576040519150601f19603f3d011682016040523d82523d6000602084013e611b6d565b606091505b506000815103611bb457836040517f64a0ae92000000000000000000000000000000000000000000000000000000008152600401611bab9190612505565b60405180910390fd5b805181602001fd5b63150b7a0260e01b7bffffffffffffffffffffffffffffffffffffffffffffffffffffffff1916817bffffffffffffffffffffffffffffffffffffffffffffffffffffffff191614611c4557836040517f64a0ae92000000000000000000000000000000000000000000000000000000008152600401611c3c9190612505565b60405180910390fd5b505b5050505050565b606060405180602001604052806000815250905090565b6060611c70826111ad565b506000611c7b611c4e565b90506000815111611c9b5760405180602001604052806000815250611cc6565b80611ca584611ffe565b604051602001611cb6929190612fe2565b6040516020818303038152906040525b915050919050565b60007f01ffc9a7000000000000000000000000000000000000000000000000000000007bffffffffffffffffffffffffffffffffffffffffffffffffffffffff1916827bffffffffffffffffffffffffffffffffffffffffffffffffffffffff1916149050919050565b60006002600083815260200190815260200160002060009054906101000a900473ffffffffffffffffffffffffffffffffffffffff169050919050565b8080611dae5750600073ffffffffffffffffffffffffffffffffffffffff168273ffffffffffffffffffffffffffffffffffffffff1614155b15611ee2576000611dbe846111ad565b9050600073ffffffffffffffffffffffffffffffffffffffff168373ffffffffffffffffffffffffffffffffffffffff1614158015611e2957508273ffffffffffffffffffffffffffffffffffffffff168173ffffffffffffffffffffffffffffffffffffffff1614155b8015611e3c5750611e3a8184610fb1565b155b15611e7e57826040517fa9fbf51f000000000000000000000000000000000000000000000000000000008152600401611e759190612505565b60405180910390fd5b8115611ee057838573ffffffffffffffffffffffffffffffffffffffff168273ffffffffffffffffffffffffffffffffffffffff167f8c5be1e5ebec7d5bd14f71427d1e84f3dd0314c0f7b2291e5b200ac8c7c3b92560405160405180910390a45b505b836004600085815260200190815260200160002060006101000a81548173ffffffffffffffffffffffffffffffffffffffff021916908373ffffffffffffffffffffffffffffffffffffffff16021790555050505050565b611f458383836120cc565b611ff957600073ffffffffffffffffffffffffffffffffffffffff168373ffffffffffffffffffffffffffffffffffffffff1603611fba57806040517f7e273289000000000000000000000000000000000000000000000000000000008152600401611fb1919061261b565b60405180910390fd5b81816040517f177e802f000000000000000000000000000000000000000000000000000000008152600401611ff09291906131dd565b60405180910390fd5b505050565b60606000600161200d8461218d565b01905060008167ffffffffffffffff81111561202c5761202b612640565b5b6040519080825280601f01601f19166020018201604052801561205e5781602001600182028036833780820191505090505b509050600082602001820190505b6001156120c1578080600190039150507f3031323334353637383961626364656600000000000000000000000000000000600a86061a8153600a85816120b5576120b4613006565b5b0494506000850361206c575b819350505050919050565b60008073ffffffffffffffffffffffffffffffffffffffff168373ffffffffffffffffffffffffffffffffffffffff161415801561218457508273ffffffffffffffffffffffffffffffffffffffff168473ffffffffffffffffffffffffffffffffffffffff16148061214557506121448484610fb1565b5b8061218357508273ffffffffffffffffffffffffffffffffffffffff1661216b83611235565b73ffffffffffffffffffffffffffffffffffffffff16145b5b90509392505050565b600080600090507a184f03e93ff9f4daa797ed6e38ed64bf6a1f01000000000000000083106121eb577a184f03e93ff9f4daa797ed6e38ed64bf6a1f01000000000000000083816121e1576121e0613006565b5b0492506040810190505b6d04ee2d6d415b85acef81000000008310612228576d04ee2d6d415b85acef8100000000838161221e5761221d613006565b5b0492506020810190505b662386f26fc10000831061225757662386f26fc10000838161224d5761224c613006565b5b0492506010810190505b6305f5e1008310612280576305f5e100838161227657612275613006565b5b0492506008810190505b61271083106122a557612710838161229b5761229a613006565b5b0492506004810190505b606483106122c857606483816122be576122bd613006565b5b0492506002810190505b600a83106122d7576001810190505b80915050919050565b6000604051905090565b600080fd5b600080fd5b60007fffffffff0000000000000000000000000000000000000000000000000000000082169050919050565b612329816122f4565b811461233457600080fd5b50565b60008135905061234681612320565b92915050565b600060208284031215612362576123616122ea565b5b600061237084828501612337565b91505092915050565b60008115159050919050565b61238e81612379565b82525050565b60006020820190506123a96000830184612385565b92915050565b600081519050919050565b600082825260208201905092915050565b60005b838110156123e95780820151818401526020810190506123ce565b60008484015250505050565b6000601f19601f8301169050919050565b6000612411826123af565b61241b81856123ba565b935061242b8185602086016123cb565b612434816123f5565b840191505092915050565b600060208201905081810360008301526124598184612406565b905092915050565b6000819050919050565b61247481612461565b811461247f57600080fd5b50565b6000813590506124918161246b565b92915050565b6000602082840312156124ad576124ac6122ea565b5b60006124bb84828501612482565b91505092915050565b600073ffffffffffffffffffffffffffffffffffffffff82169050919050565b60006124ef826124c4565b9050919050565b6124ff816124e4565b82525050565b600060208201905061251a60008301846124f6565b92915050565b612529816124e4565b811461253457600080fd5b50565b60008135905061254681612520565b92915050565b60008060408385031215612563576125626122ea565b5b600061257185828601612537565b925050602061258285828601612482565b9150509250929050565b6000806000606084860312156125a5576125a46122ea565b5b60006125b386828701612537565b93505060206125c486828701612537565b92505060406125d586828701612482565b9150509250925092565b6000602082840312156125f5576125f46122ea565b5b600061260384828501612537565b91505092915050565b61261581612461565b82525050565b6000602082019050612630600083018461260c565b92915050565b600080fd5b600080fd5b7f4e487b7100000000000000000000000000000000000000000000000000000000600052604160045260246000fd5b612678826123f5565b810181811067ffffffffffffffff8211171561269757612696612640565b5b80604052505050565b60006126aa6122e0565b90506126b6828261266f565b919050565b600067ffffffffffffffff8211156126d6576126d5612640565b5b6126df826123f5565b9050602081019050919050565b82818337600083830152505050565b600061270e612709846126bb565b6126a0565b90508281526020810184848401111561272a5761272961263b565b5b6127358482856126ec565b509392505050565b600082601f83011261275257612751612636565b5b81356127628482602086016126fb565b91505092915050565b600060208284031215612781576127806122ea565b5b600082013567ffffffffffffffff81111561279f5761279e6122ef565b5b6127ab8482850161273d565b91505092915050565b6127bd81612379565b81146127c857600080fd5b50565b6000813590506127da816127b4565b92915050565b600080604083850312156127f7576127f66122ea565b5b600061280585828601612537565b9250506020612816858286016127cb565b9150509250929050565b600067ffffffffffffffff82111561283b5761283a612640565b5b612844826123f5565b9050602081019050919050565b600061286461285f84612820565b6126a0565b9050828152602081018484840111156128805761287f61263b565b5b61288b8482856126ec565b509392505050565b600082601f8301126128a8576128a7612636565b5b81356128b8848260208601612851565b91505092915050565b600080600080608085870312156128db576128da6122ea565b5b60006128e987828801612537565b94505060206128fa87828801612537565b935050604061290b87828801612482565b925050606085013567ffffffffffffffff81111561292c5761292b6122ef565b5b61293887828801612893565b91505092959194509250565b6000806040838503121561295b5761295a6122ea565b5b600061296985828601612537565b925050602061297a85828601612537565b9150509250929050565b7f4e487b7100000000000000000000000000000000000000000000000000000000600052602260045260246000fd5b600060028204905060018216806129cb57607f821691505b6020821081036129de576129dd612984565b5b50919050565b60006060820190506129f960008301866124f6565b612a06602083018561260c565b612a1360408301846124f6565b949350505050565b7f4e6f7420617574686f72697a656420746f206d696e7400000000000000000000600082015250565b6000612a516016836123ba565b9150612a5c82612a1b565b602082019050919050565b60006020820190508181036000830152612a8081612a44565b9050919050565b7f4e487b7100000000000000000000000000000000000000000000000000000000600052601160045260246000fd5b6000612ac182612461565b91507fffffffffffffffffffffffffffffffffffffffffffffffffffffffffffffffff8203612af357612af2612a87565b5b600182019050919050565b600081905092915050565b60008190508160005260206000209050919050565b60008154612b2b816129b3565b612b358186612afe565b94506001821660008114612b505760018114612b6557612b98565b60ff1983168652811515820286019350612b98565b612b6e85612b09565b60005b83811015612b9057815481890152600182019150602081019050612b71565b838801955050505b50505092915050565b7f2f00000000000000000000000000000000000000000000000000000000000000815250565b6000612bd2826123af565b612bdc8185612afe565b9350612bec8185602086016123cb565b80840191505092915050565b6000612c048285612b1e565b9150612c0f82612ba1565b600182019150612c1f8284612bc7565b91508190509392505050565b7f4f6e6c79206d61726b6574706c6163652063616e206275726e00000000000000600082015250565b6000612c616019836123ba565b9150612c6c82612c2b565b602082019050919050565b60006020820190508181036000830152612c9081612c54565b9050919050565b600081519050612ca681612520565b92915050565b600060208284031215612cc257612cc16122ea565b5b6000612cd084828501612c97565b91505092915050565b7f546f6b656e20646f6573206e6f74206578697374000000000000000000000000600082015250565b6000612d0f6014836123ba565b9150612d1a82612cd9565b602082019050919050565b60006020820190508181036000830152612d3e81612d02565b9050919050565b60006020601f8301049050919050565b600082821b905092915050565b600060088302612d927fffffffffffffffffffffffffffffffffffffffffffffffffffffffffffffffff82612d55565b612d9c8683612d55565b95508019841693508086168417925050509392505050565b6000819050919050565b6000612dd9612dd4612dcf84612461565b612db4565b612461565b9050919050565b6000819050919050565b612df383612dbe565b612e07612dff82612de0565b848454612d62565b825550505050565b600090565b612e1c612e0f565b612e27818484612dea565b505050565b5b81811015612e4b57612e40600082612e14565b600181019050612e2d565b5050565b601f821115612e9057612e6181612b09565b612e6a84612d45565b81016020851015612e79578190505b612e8d612e8585612d45565b830182612e2c565b50505b505050565b600082821c905092915050565b6000612eb360001984600802612e95565b1980831691505092915050565b6000612ecc8383612ea2565b9150826002028217905092915050565b612ee5826123af565b67ffffffffffffffff811115612efe57612efd612640565b5b612f0882546129b3565b612f13828285612e4f565b600060209050601f831160018114612f465760008415612f34578287015190505b612f3e8582612ec0565b865550612fa6565b601f198416612f5486612b09565b60005b82811015612f7c57848901518255600182019150602085019450602081019050612f57565b86831015612f995784890151612f95601f891682612ea2565b8355505b6001600288020188555050505b505050505050565b6000612fb982612461565b9150612fc483612461565b9250828203905081811115612fdc57612fdb612a87565b5b92915050565b6000612fee8285612bc7565b9150612ffa8284612bc7565b91508190509392505050565b7f4e487b7100000000000000000000000000000000000000000000000000000000600052601260045260246000fd5b600061304082612461565b915061304b83612461565b92508261305b5761305a613006565b5b828204905092915050565b600061307182612461565b915061307c83612461565b92508261308c5761308b613006565b5b828206905092915050565b60006130a282612461565b91506130ad83612461565b92508282019050808211156130c5576130c4612a87565b5b92915050565b7f4e487b7100000000000000000000000000000000000000000000000000000000600052603260045260246000fd5b600081519050919050565b600082825260208201905092915050565b6000613121826130fa565b61312b8185613105565b935061313b8185602086016123cb565b613144816123f5565b840191505092915050565b600060808201905061316460008301876124f6565b61317160208301866124f6565b61317e604083018561260c565b81810360608301526131908184613116565b905095945050505050565b6000815190506131aa81612320565b92915050565b6000602082840312156131c6576131c56122ea565b5b60006131d48482850161319b565b91505092915050565b60006040820190506131f260008301856124f6565b6131ff602083018461260c565b939250505056fea2646970667358221220d16e8125e7bd29e71895475273a53eac0ba34cb8ab840f8116758948e820bcbc64736f6c63430008180033",
  "linkReferences": {},
  "deployedLinkReferences": {}
}