{
  "_format": "hh-sol-artifact-1",
  "contractName": "VotingRegistry",
  "sourceName": "contracts/VotingRegistry.sol",
  "abi": [
    {
      "inputs": [],
      "stateMutability": "nonpayable",
      "type": "constructor"
    },
    {
      "inputs": [
        {
          "internalType": "address",
          "name": "owner",
          "type": "address"
        }
      ],
      "name": "OwnableInvalidOwner",
      "type": "error"
    },
    {
      "inputs": [
        {
          "internalType": "address",
          "name": "account",
          "type": "address"
        }
      ],
      "name": "OwnableUnauthorizedAccount",
      "type": "error"
    },
    {
      "anonymous": false,
      "inputs": [
        {
          "indexed": true,
          "internalType": "address",
          "name": "previousOwner",
          "type": "address"
        },
        {
          "indexed": true,
          "internalType": "address",
          "name": "newOwner",
          "type": "address"
        }
      ],
      "name": "OwnershipTransferred",
      "type": "event"
    },
    {
      "anonymous": false,
      "inputs": [
        {
          "indexed": true,
          "internalType": "address",
          "name": "contractAddress",
          "type": "address"
        },
        {
          "indexed": true,
          "internalType": "uint256",
          "name": "votingId",
          "type": "uint256"
        },
        {
          "indexed": false,
          "internalType": "string",
          "name": "description",
          "type": "string"
        }
      ],
      "name": "VotingAdded",
      "type": "event"
    },
    {
      "anonymous": false,
      "inputs": [
        {
          "indexed": true,
          "internalType": "address",
          "name": "contractAddress",
          "type": "address"
        },
        {
          "indexed": true,
          "internalType": "address",
          "name": "owner",
          "type": "address"
        }
      ],
      "name": "VotingContractAdded",
      "type": "event"
    },
    {
      "anonymous": false,
      "inputs": [
        {
          "indexed": true,
          "internalType": "address",
          "name": "contractAddress",
          "type": "address"
        }
      ],
      "name": "VotingContractRemoved",
      "type": "event"
    },
    {
      "anonymous": false,
      "inputs": [
        {
          "indexed": true,
          "internalType": "address",
          "name": "contractAddress",
          "type": "address"
        },
        {
          "indexed": true,
          "internalType": "uint256",
          "name": "votingId",
          "type": "uint256"
        },
        {
          "indexed": false,
          "internalType": "bool",
          "name": "isActive",
          "type": "bool"
        }
      ],
      "name": "VotingUpdated",
      "type": "event"
    },
    {
      "inputs": [
        {
          "internalType": "address",
          "name": "votingContract",
          "type": "address"
        },
        {
          "internalType": "uint256",
          "name": "votingId",
          "type": "uint256"
        },
        {
          "internalType": "string",
          "name": "description",
          "type": "string"
        },
        {
          "internalType": "uint256",
          "name": "startTime",
          "type": "uint256"
        },
        {
          "internalType": "uint256",
          "name": "endTime",
          "type": "uint256"
        }
      ],
      "name": "addVoting",
      "outputs": [],
      "stateMutability": "nonpayable",
      "type": "function"
    },
    {
      "inputs": [
        {
          "internalType": "address",
          "name": "votingContract",
          "type": "address"
        }
      ],
      "name": "addVotingContract",
      "outputs": [],
      "stateMutability": "nonpayable",
      "type": "function"
    },
    {
      "inputs": [],
      "name": "getAllVotingContracts",
      "outputs": [
        {
          "internalType": "address[]",
          "name": "",
          "type": "address[]"
        }
      ],
      "stateMutability": "view",
      "type": "function"
    },
    {
      "inputs": [
        {
          "internalType": "address",
          "name": "votingContract",
          "type": "address"
        }
      ],
      "name": "getVotingContractInfo",
      "outputs": [
        {
          "internalType": "address",
          "name": "contractAddress",
          "type": "address"
        },
        {
          "internalType": "address",
          "name": "owner",
          "type": "address"
        },
        {
          "internalType": "bool",
          "name": "isActive",
          "type": "bool"
        },
        {
          "internalType": "uint256[]",
          "name": "votingIds",
          "type": "uint256[]"
        }
      ],
      "stateMutability": "view",
      "type": "function"
    },
    {
      "inputs": [
        {
          "internalType": "address",
          "name": "votingContract",
          "type": "address"
        }
      ],
      "name": "getVotingCount",
      "outputs": [
        {
          "internalType": "uint256",
          "name": "",
          "type": "uint256"
        }
      ],
      "stateMutability": "view",
      "type": "function"
    },
    {
      "inputs": [
        {
          "internalType": "address",
          "name": "votingContract",
          "type": "address"
        },
        {
          "internalType": "uint256",
          "name": "votingId",
          "type": "uint256"
        }
      ],
      "name": "getVotingDetails",
      "outputs": [
        {
          "internalType": "uint256",
          "name": "id",
          "type": "uint256"
        },
        {
          "internalType": "string",
          "name": "description",
          "type": "string"
        },
        {
          "internalType": "uint256",
          "name": "startTime",
          "type": "uint256"
        },
        {
          "internalType": "uint256",
          "name": "endTime",
          "type": "uint256"
        },
        {
          "internalType": "bool",
          "name": "isActive",
          "type": "bool"
        }
      ],
      "stateMutability": "view",
      "type": "function"
    },
    {
      "inputs": [
        {
          "internalType": "address",
          "name": "votingContract",
          "type": "address"
        }
      ],
      "name": "isVotingContractRegistered",
      "outputs": [
        {
          "internalType": "bool",
          "name": "",
          "type": "bool"
        }
      ],
      "stateMutability": "view",
      "type": "function"
    },
    {
      "inputs": [],
      "name": "owner",
      "outputs": [
        {
          "internalType": "address",
          "name": "",
          "type": "address"
        }
      ],
      "stateMutability": "view",
      "type": "function"
    },
    {
      "inputs": [
        {
          "internalType": "address",
          "name": "votingContract",
          "type": "address"
        }
      ],
      "name": "removeVotingContract",
      "outputs": [],
      "stateMutability": "nonpayable",
      "type": "function"
    },
    {
      "inputs": [],
      "name": "renounceOwnership",
      "outputs": [],
      "stateMutability": "nonpayable",
      "type": "function"
    },
    {
      "inputs": [
        {
          "internalType": "address",
          "name": "newOwner",
          "type": "address"
        }
      ],
      "name": "transferOwnership",
      "outputs": [],
      "stateMutability": "nonpayable",
      "type": "function"
    },
    {
      "inputs": [
        {
          "internalType": "address",
          "name": "votingContract",
          "type": "address"
        },
        {
          "internalType": "uint256",
          "name": "votingId",
          "type": "uint256"
        },
        {
          "internalType": "bool",
          "name": "isActive",
          "type": "bool"
        }
      ],
      "name": "updateVotingStatus",
      "outputs": [],
      "stateMutability": "nonpayable",
      "type": "function"
    }
  ],
  "bytecode": "0x60806040523480156200001157600080fd5b5033600073ffffffffffffffffffffffffffffffffffffffff168173ffffffffffffffffffffffffffffffffffffffff1603620000885760006040517f1e4fbdf70000000000000000000000000000000000000000000000000000000081526004016200007f9190620001a9565b60405180910390fd5b6200009981620000a060201b60201c565b50620001c6565b60008060009054906101000a900473ffffffffffffffffffffffffffffffffffffffff169050816000806101000a81548173ffffffffffffffffffffffffffffffffffffffff021916908373ffffffffffffffffffffffffffffffffffffffff1602179055508173ffffffffffffffffffffffffffffffffffffffff168173ffffffffffffffffffffffffffffffffffffffff167f8be0079c531659141344cd1fd0a4f28419497f9722a3daafe3b4186f6b6457e060405160405180910390a35050565b600073ffffffffffffffffffffffffffffffffffffffff82169050919050565b6000620001918262000164565b9050919050565b620001a38162000184565b82525050565b6000602082019050620001c0600083018462000198565b92915050565b611ff880620001d66000396000f3fe608060405234801561001057600080fd5b50600436106100b35760003560e01c8063715018a611610071578063715018a61461018d5780637a5695fe146101975780638da5cb5b146101c7578063aa9675c6146101e5578063f2186a6014610219578063f2fde38b14610235576100b3565b8062916c2e146100b857806306f8a4a9146100d657806307ad9784146100f257806320c7ad57146101255780635c9d4831146101415780636a2431ff1461015d575b600080fd5b6100c0610251565b6040516100cd91906113b4565b60405180910390f35b6100f060048036038101906100eb9190611416565b6102df565b005b61010c60048036038101906101079190611416565b6104df565b60405161011c9493929190611535565b60405180910390f35b61013f600480360381019061013a9190611416565b6105eb565b005b61015b600480360381019061015691906115d9565b610950565b005b61017760048036038101906101729190611416565b610ba1565b604051610184919061163b565b60405180910390f35b610195610bf0565b005b6101b160048036038101906101ac9190611416565b610c04565b6040516101be9190611656565b60405180910390f35b6101cf610c5d565b6040516101dc9190611671565b60405180910390f35b6101ff60048036038101906101fa919061168c565b610c86565b60405161021095949392919061175c565b60405180910390f35b610233600480360381019061022e91906118eb565b610dee565b005b61024f600480360381019061024a9190611416565b611081565b005b606060028054806020026020016040519081016040528092919081815260200182805480156102d557602002820191906000526020600020905b8160009054906101000a900473ffffffffffffffffffffffffffffffffffffffff1673ffffffffffffffffffffffffffffffffffffffff168152602001906001019080831161028b575b5050505050905090565b600160008273ffffffffffffffffffffffffffffffffffffffff1673ffffffffffffffffffffffffffffffffffffffff16815260200190815260200160002060010160149054906101000a900460ff1661036e576040517f08c379a0000000000000000000000000000000000000000000000000000000008152600401610365906119ce565b60405180910390fd5b3373ffffffffffffffffffffffffffffffffffffffff16600160008373ffffffffffffffffffffffffffffffffffffffff1673ffffffffffffffffffffffffffffffffffffffff16815260200190815260200160002060010160009054906101000a900473ffffffffffffffffffffffffffffffffffffffff1673ffffffffffffffffffffffffffffffffffffffff161461043e576040517f08c379a000000000000000000000000000000000000000000000000000000000815260040161043590611a3a565b60405180910390fd5b6000600160008373ffffffffffffffffffffffffffffffffffffffff1673ffffffffffffffffffffffffffffffffffffffff16815260200190815260200160002060010160146101000a81548160ff0219169083151502179055508073ffffffffffffffffffffffffffffffffffffffff167f79e60587e6eb05a85e017dddb87c26661bffe04c790bea61de139691cf6add9c60405160405180910390a250565b600080600060606000600160008773ffffffffffffffffffffffffffffffffffffffff1673ffffffffffffffffffffffffffffffffffffffff16815260200190815260200160002090508060000160009054906101000a900473ffffffffffffffffffffffffffffffffffffffff168160010160009054906101000a900473ffffffffffffffffffffffffffffffffffffffff168260010160149054906101000a900460ff1683600201808054806020026020016040519081016040528092919081815260200182805480156105d457602002820191906000526020600020905b8154815260200190600101908083116105c0575b505050505090509450945094509450509193509193565b600073ffffffffffffffffffffffffffffffffffffffff168173ffffffffffffffffffffffffffffffffffffffff160361065a576040517f08c379a000000000000000000000000000000000000000000000000000000000815260040161065190611aa6565b60405180910390fd5b600160008273ffffffffffffffffffffffffffffffffffffffff1673ffffffffffffffffffffffffffffffffffffffff16815260200190815260200160002060010160149054906101000a900460ff16156106ea576040517f08c379a00000000000000000000000000000000000000000000000000000000081526004016106e190611b12565b60405180910390fd5b60405180608001604052808273ffffffffffffffffffffffffffffffffffffffff1681526020013373ffffffffffffffffffffffffffffffffffffffff168152602001600115158152602001600067ffffffffffffffff811115610751576107506117c0565b5b60405190808252806020026020018201604052801561077f5781602001602082028036833780820191505090505b50815250600160008373ffffffffffffffffffffffffffffffffffffffff1673ffffffffffffffffffffffffffffffffffffffff16815260200190815260200160002060008201518160000160006101000a81548173ffffffffffffffffffffffffffffffffffffffff021916908373ffffffffffffffffffffffffffffffffffffffff16021790555060208201518160010160006101000a81548173ffffffffffffffffffffffffffffffffffffffff021916908373ffffffffffffffffffffffffffffffffffffffff16021790555060408201518160010160146101000a81548160ff021916908315150217905550606082015181600201908051906020019061088c92919061125a565b509050506002819080600181540180825580915050600190039060005260206000200160009091909190916101000a81548173ffffffffffffffffffffffffffffffffffffffff021916908373ffffffffffffffffffffffffffffffffffffffff1602179055503373ffffffffffffffffffffffffffffffffffffffff168173ffffffffffffffffffffffffffffffffffffffff167f75fb3aa3f4ebe85cafb4f44015dfcdd9fe225d1fafe7a827c384ff03811f046e60405160405180910390a350565b600160008473ffffffffffffffffffffffffffffffffffffffff1673ffffffffffffffffffffffffffffffffffffffff16815260200190815260200160002060010160149054906101000a900460ff166109df576040517f08c379a00000000000000000000000000000000000000000000000000000000081526004016109d6906119ce565b60405180910390fd5b8273ffffffffffffffffffffffffffffffffffffffff163373ffffffffffffffffffffffffffffffffffffffff1614610a4d576040517f08c379a0000000000000000000000000000000000000000000000000000000008152600401610a4490611ba4565b60405180910390fd5b81600360008573ffffffffffffffffffffffffffffffffffffffff1673ffffffffffffffffffffffffffffffffffffffff16815260200190815260200160002060008481526020019081526020016000206000015414610ae2576040517f08c379a0000000000000000000000000000000000000000000000000000000008152600401610ad990611c10565b60405180910390fd5b80600360008573ffffffffffffffffffffffffffffffffffffffff1673ffffffffffffffffffffffffffffffffffffffff168152602001908152602001600020600084815260200190815260200160002060040160006101000a81548160ff021916908315150217905550818373ffffffffffffffffffffffffffffffffffffffff167faadbece292ef09c4d8b890ddcdea96e54cef3d94d780c63d26b76be980057f5483604051610b949190611656565b60405180910390a3505050565b6000600160008373ffffffffffffffffffffffffffffffffffffffff1673ffffffffffffffffffffffffffffffffffffffff168152602001908152602001600020600201805490509050919050565b610bf8611107565b610c02600061118e565b565b6000600160008373ffffffffffffffffffffffffffffffffffffffff1673ffffffffffffffffffffffffffffffffffffffff16815260200190815260200160002060010160149054906101000a900460ff169050919050565b60008060009054906101000a900473ffffffffffffffffffffffffffffffffffffffff16905090565b60006060600080600080600360008973ffffffffffffffffffffffffffffffffffffffff1673ffffffffffffffffffffffffffffffffffffffff1681526020019081526020016000206000888152602001908152602001600020905086816000015414610d28576040517f08c379a0000000000000000000000000000000000000000000000000000000008152600401610d1f90611c10565b60405180910390fd5b806000015481600101826002015483600301548460040160009054906101000a900460ff16838054610d5990611c5f565b80601f0160208091040260200160405190810160405280929190818152602001828054610d8590611c5f565b8015610dd25780601f10610da757610100808354040283529160200191610dd2565b820191906000526020600020905b815481529060010190602001808311610db557829003601f168201915b5050505050935095509550955095509550509295509295909350565b600160008673ffffffffffffffffffffffffffffffffffffffff1673ffffffffffffffffffffffffffffffffffffffff16815260200190815260200160002060010160149054906101000a900460ff16610e7d576040517f08c379a0000000000000000000000000000000000000000000000000000000008152600401610e74906119ce565b60405180910390fd5b8473ffffffffffffffffffffffffffffffffffffffff163373ffffffffffffffffffffffffffffffffffffffff1614610eeb576040517f08c379a0000000000000000000000000000000000000000000000000000000008152600401610ee290611d02565b60405180910390fd5b60006040518060a0016040528086815260200185815260200184815260200183815260200160011515815250905080600360008873ffffffffffffffffffffffffffffffffffffffff1673ffffffffffffffffffffffffffffffffffffffff1681526020019081526020016000206000878152602001908152602001600020600082015181600001556020820151816001019081610f899190611ece565b50604082015181600201556060820151816003015560808201518160040160006101000a81548160ff021916908315150217905550905050600160008773ffffffffffffffffffffffffffffffffffffffff1673ffffffffffffffffffffffffffffffffffffffff168152602001908152602001600020600201859080600181540180825580915050600190039060005260206000200160009091909190915055848673ffffffffffffffffffffffffffffffffffffffff167fa619a7ded7be7140dd089511b51053d818e7cb6208c6924712e08e07bdff3e96866040516110719190611fa0565b60405180910390a3505050505050565b611089611107565b600073ffffffffffffffffffffffffffffffffffffffff168173ffffffffffffffffffffffffffffffffffffffff16036110fb5760006040517f1e4fbdf70000000000000000000000000000000000000000000000000000000081526004016110f29190611671565b60405180910390fd5b6111048161118e565b50565b61110f611252565b73ffffffffffffffffffffffffffffffffffffffff1661112d610c5d565b73ffffffffffffffffffffffffffffffffffffffff161461118c57611150611252565b6040517f118cdaa70000000000000000000000000000000000000000000000000000000081526004016111839190611671565b60405180910390fd5b565b60008060009054906101000a900473ffffffffffffffffffffffffffffffffffffffff169050816000806101000a81548173ffffffffffffffffffffffffffffffffffffffff021916908373ffffffffffffffffffffffffffffffffffffffff1602179055508173ffffffffffffffffffffffffffffffffffffffff168173ffffffffffffffffffffffffffffffffffffffff167f8be0079c531659141344cd1fd0a4f28419497f9722a3daafe3b4186f6b6457e060405160405180910390a35050565b600033905090565b828054828255906000526020600020908101928215611296579160200282015b8281111561129557825182559160200191906001019061127a565b5b5090506112a391906112a7565b5090565b5b808211156112c05760008160009055506001016112a8565b5090565b600081519050919050565b600082825260208201905092915050565b6000819050602082019050919050565b600073ffffffffffffffffffffffffffffffffffffffff82169050919050565b600061131b826112f0565b9050919050565b61132b81611310565b82525050565b600061133d8383611322565b60208301905092915050565b6000602082019050919050565b6000611361826112c4565b61136b81856112cf565b9350611376836112e0565b8060005b838110156113a757815161138e8882611331565b975061139983611349565b92505060018101905061137a565b5085935050505092915050565b600060208201905081810360008301526113ce8184611356565b905092915050565b6000604051905090565b600080fd5b600080fd5b6113f381611310565b81146113fe57600080fd5b50565b600081359050611410816113ea565b92915050565b60006020828403121561142c5761142b6113e0565b5b600061143a84828501611401565b91505092915050565b61144c81611310565b82525050565b60008115159050919050565b61146781611452565b82525050565b600081519050919050565b600082825260208201905092915050565b6000819050602082019050919050565b6000819050919050565b6114ac81611499565b82525050565b60006114be83836114a3565b60208301905092915050565b6000602082019050919050565b60006114e28261146d565b6114ec8185611478565b93506114f783611489565b8060005b8381101561152857815161150f88826114b2565b975061151a836114ca565b9250506001810190506114fb565b5085935050505092915050565b600060808201905061154a6000830187611443565b6115576020830186611443565b611564604083018561145e565b818103606083015261157681846114d7565b905095945050505050565b61158a81611499565b811461159557600080fd5b50565b6000813590506115a781611581565b92915050565b6115b681611452565b81146115c157600080fd5b50565b6000813590506115d3816115ad565b92915050565b6000806000606084860312156115f2576115f16113e0565b5b600061160086828701611401565b935050602061161186828701611598565b9250506040611622868287016115c4565b9150509250925092565b61163581611499565b82525050565b6000602082019050611650600083018461162c565b92915050565b600060208201905061166b600083018461145e565b92915050565b60006020820190506116866000830184611443565b92915050565b600080604083850312156116a3576116a26113e0565b5b60006116b185828601611401565b92505060206116c285828601611598565b9150509250929050565b600081519050919050565b600082825260208201905092915050565b60005b838110156117065780820151818401526020810190506116eb565b60008484015250505050565b6000601f19601f8301169050919050565b600061172e826116cc565b61173881856116d7565b93506117488185602086016116e8565b61175181611712565b840191505092915050565b600060a082019050611771600083018861162c565b81810360208301526117838187611723565b9050611792604083018661162c565b61179f606083018561162c565b6117ac608083018461145e565b9695505050505050565b600080fd5b600080fd5b7f4e487b7100000000000000000000000000000000000000000000000000000000600052604160045260246000fd5b6117f882611712565b810181811067ffffffffffffffff82111715611817576118166117c0565b5b80604052505050565b600061182a6113d6565b905061183682826117ef565b919050565b600067ffffffffffffffff821115611856576118556117c0565b5b61185f82611712565b9050602081019050919050565b82818337600083830152505050565b600061188e6118898461183b565b611820565b9050828152602081018484840111156118aa576118a96117bb565b5b6118b584828561186c565b509392505050565b600082601f8301126118d2576118d16117b6565b5b81356118e284826020860161187b565b91505092915050565b600080600080600060a08688031215611907576119066113e0565b5b600061191588828901611401565b955050602061192688828901611598565b945050604086013567ffffffffffffffff811115611947576119466113e5565b5b611953888289016118bd565b935050606061196488828901611598565b925050608061197588828901611598565b9150509295509295909350565b7f436f6e7472616374206e6f742072656769737465726564000000000000000000600082015250565b60006119b86017836116d7565b91506119c382611982565b602082019050919050565b600060208201905081810360008301526119e7816119ab565b9050919050565b7f4e6f7420636f6e7472616374206f776e65720000000000000000000000000000600082015250565b6000611a246012836116d7565b9150611a2f826119ee565b602082019050919050565b60006020820190508181036000830152611a5381611a17565b9050919050565b7f496e76616c696420636f6e747261637420616464726573730000000000000000600082015250565b6000611a906018836116d7565b9150611a9b82611a5a565b602082019050919050565b60006020820190508181036000830152611abf81611a83565b9050919050565b7f436f6e747261637420616c726561647920726567697374657265640000000000600082015250565b6000611afc601b836116d7565b9150611b0782611ac6565b602082019050919050565b60006020820190508181036000830152611b2b81611aef565b9050919050565b7f4f6e6c7920766f74696e6720636f6e74726163742063616e207570646174652060008201527f7374617475730000000000000000000000000000000000000000000000000000602082015250565b6000611b8e6026836116d7565b9150611b9982611b32565b604082019050919050565b60006020820190508181036000830152611bbd81611b81565b9050919050565b7f566f74696e67206e6f7420666f756e6400000000000000000000000000000000600082015250565b6000611bfa6010836116d7565b9150611c0582611bc4565b602082019050919050565b60006020820190508181036000830152611c2981611bed565b9050919050565b7f4e487b7100000000000000000000000000000000000000000000000000000000600052602260045260246000fd5b60006002820490506001821680611c7757607f821691505b602082108103611c8a57611c89611c30565b5b50919050565b7f4f6e6c7920766f74696e6720636f6e74726163742063616e2061646420766f7460008201527f696e670000000000000000000000000000000000000000000000000000000000602082015250565b6000611cec6023836116d7565b9150611cf782611c90565b604082019050919050565b60006020820190508181036000830152611d1b81611cdf565b9050919050565b60008190508160005260206000209050919050565b60006020601f8301049050919050565b600082821b905092915050565b600060088302611d847fffffffffffffffffffffffffffffffffffffffffffffffffffffffffffffffff82611d47565b611d8e8683611d47565b95508019841693508086168417925050509392505050565b6000819050919050565b6000611dcb611dc6611dc184611499565b611da6565b611499565b9050919050565b6000819050919050565b611de583611db0565b611df9611df182611dd2565b848454611d54565b825550505050565b600090565b611e0e611e01565b611e19818484611ddc565b505050565b5b81811015611e3d57611e32600082611e06565b600181019050611e1f565b5050565b601f821115611e8257611e5381611d22565b611e5c84611d37565b81016020851015611e6b578190505b611e7f611e7785611d37565b830182611e1e565b50505b505050565b600082821c905092915050565b6000611ea560001984600802611e87565b1980831691505092915050565b6000611ebe8383611e94565b9150826002028217905092915050565b611ed7826116cc565b67ffffffffffffffff811115611ef057611eef6117c0565b5b611efa8254611c5f565b611f05828285611e41565b600060209050601f831160018114611f385760008415611f26578287015190505b611f308582611eb2565b865550611f98565b601f198416611f4686611d22565b60005b82811015611f6e57848901518255600182019150602085019450602081019050611f49565b86831015611f8b5784890151611f87601f891682611e94565b8355505b6001600288020188555050505b505050505050565b60006020820190508181036000830152611fba8184611723565b90509291505056fea2646970667358221220d8f4cb171ebd3415719b75d0e4d48a9ff7e69b5d792cc9da41f9baba6c1f721e64736f6c63430008180033",
  "linkReferences": {},
  "deployedLinkReferences": {}
}