{
  "_format": "hh-sol-artifact-1",
  "contractName": "VotingContract",
  "sourceName": "contracts/VotingContract.sol",
  "abi": [
    {
      "inputs": [
        {
          "internalType": "address",
          "name": "_votingRegistry",
          "type": "address"
        },
        {
          "internalType": "address",
          "name": "_nftContract",
          "type": "address"
        }
      ],
      "stateMutability": "nonpayable",
      "type": "constructor"
    },
    {
      "inputs": [
        {
          "internalType": "address",
          "name": "owner",
          "type": "address"
        }
      ],
      "name": "OwnableInvalidOwner",
      "type": "error"
    },
    {
      "inputs": [
        {
          "internalType": "address",
          "name": "account",
          "type": "address"
        }
      ],
      "name": "OwnableUnauthorizedAccount",
      "type": "error"
    },
    {
      "anonymous": false,
      "inputs": [
        {
          "indexed": true,
          "internalType": "address",
          "name": "voter",
          "type": "address"
        },
        {
          "indexed": false,
          "internalType": "uint256",
          "name": "tokenId",
          "type": "uint256"
        }
      ],
      "name": "NFTRewarded",
      "type": "event"
    },
    {
      "anonymous": false,
      "inputs": [
        {
          "indexed": true,
          "internalType": "address",
          "name": "previousOwner",
          "type": "address"
        },
        {
          "indexed": true,
          "internalType": "address",
          "name": "newOwner",
          "type": "address"
        }
      ],
      "name": "OwnershipTransferred",
      "type": "event"
    },
    {
      "anonymous": false,
      "inputs": [
        {
          "indexed": true,
          "internalType": "uint256",
          "name": "votingId",
          "type": "uint256"
        },
        {
          "indexed": true,
          "internalType": "address",
          "name": "voter",
          "type": "address"
        },
        {
          "indexed": false,
          "internalType": "uint8",
          "name": "option",
          "type": "uint8"
        }
      ],
      "name": "Voted",
      "type": "event"
    },
    {
      "anonymous": false,
      "inputs": [
        {
          "indexed": true,
          "internalType": "uint256",
          "name": "votingId",
          "type": "uint256"
        },
        {
          "indexed": false,
          "internalType": "string",
          "name": "description",
          "type": "string"
        },
        {
          "indexed": false,
          "internalType": "uint256",
          "name": "startTime",
          "type": "uint256"
        },
        {
          "indexed": false,
          "internalType": "uint256",
          "name": "endTime",
          "type": "uint256"
        }
      ],
      "name": "VotingCreated",
      "type": "event"
    },
    {
      "inputs": [
        {
          "internalType": "string",
          "name": "description",
          "type": "string"
        },
        {
          "internalType": "uint256",
          "name": "durationInMinutes",
          "type": "uint256"
        },
        {
          "internalType": "string",
          "name": "_option1",
          "type": "string"
        },
        {
          "internalType": "string",
          "name": "_option2",
          "type": "string"
        }
      ],
      "name": "createVoting",
      "outputs": [],
      "stateMutability": "nonpayable",
      "type": "function"
    },
    {
      "inputs": [
        {
          "internalType": "uint256",
          "name": "votingId",
          "type": "uint256"
        }
      ],
      "name": "finishVoting",
      "outputs": [],
      "stateMutability": "nonpayable",
      "type": "function"
    },
    {
      "inputs": [],
      "name": "getCurrentVotingId",
      "outputs": [
        {
          "internalType": "uint256",
          "name": "",
          "type": "uint256"
        }
      ],
      "stateMutability": "view",
      "type": "function"
    },
    {
      "inputs": [
        {
          "internalType": "uint256",
          "name": "votingId",
          "type": "uint256"
        }
      ],
      "name": "getVotingDetails",
      "outputs": [
        {
          "internalType": "string",
          "name": "description",
          "type": "string"
        },
        {
          "internalType": "uint256",
          "name": "startTime",
          "type": "uint256"
        },
        {
          "internalType": "uint256",
          "name": "endTime",
          "type": "uint256"
        },
        {
          "internalType": "string",
          "name": "option1",
          "type": "string"
        },
        {
          "internalType": "string",
          "name": "option2",
          "type": "string"
        },
        {
          "internalType": "bool",
          "name": "isActive",
          "type": "bool"
        }
      ],
      "stateMutability": "view",
      "type": "function"
    },
    {
      "inputs": [
        {
          "internalType": "uint256",
          "name": "votingId",
          "type": "uint256"
        }
      ],
      "name": "getVotingParticipants",
      "outputs": [
        {
          "internalType": "address[]",
          "name": "",
          "type": "address[]"
        }
      ],
      "stateMutability": "view",
      "type": "function"
    },
    {
      "inputs": [
        {
          "internalType": "uint256",
          "name": "votingId",
          "type": "uint256"
        }
      ],
      "name": "getVotingResults",
      "outputs": [
        {
          "internalType": "uint8",
          "name": "winner",
          "type": "uint8"
        },
        {
          "internalType": "uint256",
          "name": "option1Votes",
          "type": "uint256"
        },
        {
          "internalType": "uint256",
          "name": "option2Votes",
          "type": "uint256"
        }
      ],
      "stateMutability": "view",
      "type": "function"
    },
    {
      "inputs": [
        {
          "internalType": "uint256",
          "name": "votingId",
          "type": "uint256"
        },
        {
          "internalType": "address",
          "name": "voter",
          "type": "address"
        }
      ],
      "name": "hasVoted",
      "outputs": [
        {
          "internalType": "bool",
          "name": "",
          "type": "bool"
        }
      ],
      "stateMutability": "view",
      "type": "function"
    },
    {
      "inputs": [],
      "name": "isActiveVoting",
      "outputs": [
        {
          "internalType": "bool",
          "name": "",
          "type": "bool"
        }
      ],
      "stateMutability": "view",
      "type": "function"
    },
    {
      "inputs": [],
      "name": "isRegistered",
      "outputs": [
        {
          "internalType": "bool",
          "name": "",
          "type": "bool"
        }
      ],
      "stateMutability": "view",
      "type": "function"
    },
    {
      "inputs": [],
      "name": "nftContract",
      "outputs": [
        {
          "internalType": "contract INFTContract",
          "name": "",
          "type": "address"
        }
      ],
      "stateMutability": "view",
      "type": "function"
    },
    {
      "inputs": [],
      "name": "owner",
      "outputs": [
        {
          "internalType": "address",
          "name": "",
          "type": "address"
        }
      ],
      "stateMutability": "view",
      "type": "function"
    },
    {
      "inputs": [],
      "name": "renounceOwnership",
      "outputs": [],
      "stateMutability": "nonpayable",
      "type": "function"
    },
    {
      "inputs": [
        {
          "internalType": "address",
          "name": "newOwner",
          "type": "address"
        }
      ],
      "name": "transferOwnership",
      "outputs": [],
      "stateMutability": "nonpayable",
      "type": "function"
    },
    {
      "inputs": [
        {
          "internalType": "uint256",
          "name": "votingId",
          "type": "uint256"
        },
        {
          "internalType": "uint8",
          "name": "option",
          "type": "uint8"
        }
      ],
      "name": "vote",
      "outputs": [],
      "stateMutability": "nonpayable",
      "type": "function"
    },
    {
      "inputs": [
        {
          "internalType": "uint256",
          "name": "",
          "type": "uint256"
        },
        {
          "internalType": "uint256",
          "name": "",
          "type": "uint256"
        }
      ],
      "name": "votingParticipants",
      "outputs": [
        {
          "internalType": "address",
          "name": "",
          "type": "address"
        }
      ],
      "stateMutability": "view",
      "type": "function"
    },
    {
      "inputs": [],
      "name": "votingRegistry",
      "outputs": [
        {
          "internalType": "contract IVotingRegistry",
          "name": "",
          "type": "address"
        }
      ],
      "stateMutability": "view",
      "type": "function"
    },
    {
      "inputs": [
        {
          "internalType": "uint256",
          "name": "",
          "type": "uint256"
        }
      ],
      "name": "votings",
      "outputs": [
        {
          "internalType": "uint256",
          "name": "id",
          "type": "uint256"
        },
        {
          "internalType": "string",
          "name": "description",
          "type": "string"
        },
        {
          "internalType": "uint256",
          "name": "startTime",
          "type": "uint256"
        },
        {
          "internalType": "uint256",
          "name": "endTime",
          "type": "uint256"
        },
        {
          "internalType": "uint256",
          "name": "option1Votes",
          "type": "uint256"
        },
        {
          "internalType": "uint256",
          "name": "option2Votes",
          "type": "uint256"
        },
        {
          "internalType": "string",
          "name": "option1",
          "type": "string"
        },
        {
          "internalType": "string",
          "name": "option2",
          "type": "string"
        },
        {
          "internalType": "bool",
          "name": "isActive",
          "type": "bool"
        }
      ],
      "stateMutability": "view",
      "type": "function"
    }
  ],
  "bytecode": "0x60806040523480156200001157600080fd5b5060405162002a5c38038062002a5c833981810160405281019062000037919062000277565b33600073ffffffffffffffffffffffffffffffffffffffff168173ffffffffffffffffffffffffffffffffffffffff1603620000ad5760006040517f1e4fbdf7000000000000000000000000000000000000000000000000000000008152600401620000a49190620002cf565b60405180910390fd5b620000be816200014960201b60201c565b5081600260006101000a81548173ffffffffffffffffffffffffffffffffffffffff021916908373ffffffffffffffffffffffffffffffffffffffff16021790555080600360006101000a81548173ffffffffffffffffffffffffffffffffffffffff021916908373ffffffffffffffffffffffffffffffffffffffff1602179055505050620002ec565b60008060009054906101000a900473ffffffffffffffffffffffffffffffffffffffff169050816000806101000a81548173ffffffffffffffffffffffffffffffffffffffff021916908373ffffffffffffffffffffffffffffffffffffffff1602179055508173ffffffffffffffffffffffffffffffffffffffff168173ffffffffffffffffffffffffffffffffffffffff167f8be0079c531659141344cd1fd0a4f28419497f9722a3daafe3b4186f6b6457e060405160405180910390a35050565b600080fd5b600073ffffffffffffffffffffffffffffffffffffffff82169050919050565b60006200023f8262000212565b9050919050565b620002518162000232565b81146200025d57600080fd5b50565b600081519050620002718162000246565b92915050565b600080604083850312156200029157620002906200020d565b5b6000620002a18582860162000260565b9250506020620002b48582860162000260565b9150509250929050565b620002c98162000232565b82525050565b6000602082019050620002e66000830184620002be565b92915050565b61276080620002fc6000396000f3fe608060405234801561001057600080fd5b506004361061010b5760003560e01c8063943e8216116100a2578063c1738ef811610071578063c1738ef8146102c5578063c39c89df146102e3578063cd89b2e314610301578063d56d229d14610333578063f2fde38b146103515761010b565b8063943e821614610225578063a598d03c14610241578063a6971fbb14610279578063abe7c08e146102a95761010b565b8063715018a6116100de578063715018a6146101b157806372870362146101bb5780637fbb2871146101eb5780638da5cb5b146102075761010b565b80630a869cbf14610110578063223668441461012e57806336effcaa1461014c5780634385963214610181575b600080fd5b61011861036d565b60405161012591906115a6565b60405180910390f35b610136610377565b60405161014391906115dc565b60405180910390f35b61016660048036038101906101619190611637565b61041a565b604051610178969594939291906116f4565b60405180910390f35b61019b600480360381019061019691906117c8565b610661565b6040516101a891906115dc565b60405180910390f35b6101b96106cc565b005b6101d560048036038101906101d09190611637565b6106e0565b6040516101e291906118c6565b60405180910390f35b61020560048036038101906102009190611a1d565b610781565b005b61020f610972565b60405161021c9190611ae7565b60405180910390f35b61023f600480360381019061023a9190611b3b565b61099b565b005b61025b60048036038101906102569190611637565b610e79565b60405161027099989796959493929190611b7b565b60405180910390f35b610293600480360381019061028e9190611c1d565b61106c565b6040516102a09190611ae7565b60405180910390f35b6102c360048036038101906102be9190611637565b6110ba565b005b6102cd611241565b6040516102da9190611cbc565b60405180910390f35b6102eb611267565b6040516102f891906115dc565b60405180910390f35b61031b60048036038101906103169190611637565b6112e4565b60405161032a93929190611ce6565b60405180910390f35b61033b61138e565b6040516103489190611d3e565b60405180910390f35b61036b60048036038101906103669190611d59565b6113b4565b005b6000600154905090565b6000600260009054906101000a900473ffffffffffffffffffffffffffffffffffffffff1673ffffffffffffffffffffffffffffffffffffffff16637a5695fe306040518263ffffffff1660e01b81526004016103d49190611ae7565b602060405180830381865afa1580156103f1573d6000803e3d6000fd5b505050506040513d601f19601f820116820180604052508101906104159190611db2565b905090565b606060008060608060006001548710610468576040517f08c379a000000000000000000000000000000000000000000000000000000000815260040161045f90611e2b565b60405180910390fd5b6000600460008981526020019081526020016000209050806001018160020154826003015483600601846007018560080160009054906101000a900460ff168580546104b390611e7a565b80601f01602080910402602001604051908101604052809291908181526020018280546104df90611e7a565b801561052c5780601f106105015761010080835404028352916020019161052c565b820191906000526020600020905b81548152906001019060200180831161050f57829003601f168201915b5050505050955082805461053f90611e7a565b80601f016020809104026020016040519081016040528092919081815260200182805461056b90611e7a565b80156105b85780601f1061058d576101008083540402835291602001916105b8565b820191906000526020600020905b81548152906001019060200180831161059b57829003601f168201915b505050505092508180546105cb90611e7a565b80601f01602080910402602001604051908101604052809291908181526020018280546105f790611e7a565b80156106445780601f1061061957610100808354040283529160200191610644565b820191906000526020600020905b81548152906001019060200180831161062757829003601f168201915b505050505091509650965096509650965096505091939550919395565b60006004600084815260200190815260200160002060090160008373ffffffffffffffffffffffffffffffffffffffff1673ffffffffffffffffffffffffffffffffffffffff16815260200190815260200160002060009054906101000a900460ff16905092915050565b6106d461143a565b6106de60006114c1565b565b60606005600083815260200190815260200160002080548060200260200160405190810160405280929190818152602001828054801561077557602002820191906000526020600020905b8160009054906101000a900473ffffffffffffffffffffffffffffffffffffffff1673ffffffffffffffffffffffffffffffffffffffff168152602001906001019080831161072b575b50505050509050919050565b61078961143a565b610791611267565b156107d1576040517f08c379a00000000000000000000000000000000000000000000000000000000081526004016107c890611ef7565b60405180910390fd5b6000600154905060004290506000603c866107ec9190611f46565b826107f79190611f88565b905060006004600085815260200190815260200160002090508381600001819055508781600101908161082a919061215e565b508281600201819055508181600301819055508581600601908161084e919061215e565b5084816007019081610860919061215e565b5060018160080160006101000a81548160ff021916908315150217905550600260009054906101000a900473ffffffffffffffffffffffffffffffffffffffff1673ffffffffffffffffffffffffffffffffffffffff1663f2186a6030868b87876040518663ffffffff1660e01b81526004016108e1959493929190612230565b600060405180830381600087803b1580156108fb57600080fd5b505af115801561090f573d6000803e3d6000fd5b50505050837f217aa0c75415c070cd53de117d7f04dea2944f6e6744a35eac2774425705cdfb8985856040516109479392919061228a565b60405180910390a260018060008282546109619190611f88565b925050819055505050505050505050565b60008060009054906101000a900473ffffffffffffffffffffffffffffffffffffffff16905090565b6109a3610377565b6109e2576040517f08c379a00000000000000000000000000000000000000000000000000000000081526004016109d99061233a565b60405180910390fd5b6004600083815260200190815260200160002060080160009054906101000a900460ff16610a45576040517f08c379a0000000000000000000000000000000000000000000000000000000008152600401610a3c906123a6565b60405180910390fd5b6004600083815260200190815260200160002060020154421015610a9e576040517f08c379a0000000000000000000000000000000000000000000000000000000008152600401610a9590612412565b60405180910390fd5b6004600083815260200190815260200160002060030154421115610af7576040517f08c379a0000000000000000000000000000000000000000000000000000000008152600401610aee9061247e565b60405180910390fd5b6004600083815260200190815260200160002060090160003373ffffffffffffffffffffffffffffffffffffffff1673ffffffffffffffffffffffffffffffffffffffff16815260200190815260200160002060009054906101000a900460ff1615610b98576040517f08c379a0000000000000000000000000000000000000000000000000000000008152600401610b8f906124ea565b60405180910390fd5b60018160ff161480610bad575060028160ff16145b610bec576040517f08c379a0000000000000000000000000000000000000000000000000000000008152600401610be390612556565b60405180910390fd5b60018160ff1603610c2857600460008381526020019081526020016000206004016000815480929190610c1e90612576565b9190505550610c55565b600460008381526020019081526020016000206005016000815480929190610c4f90612576565b91905055505b60016004600084815260200190815260200160002060090160003373ffffffffffffffffffffffffffffffffffffffff1673ffffffffffffffffffffffffffffffffffffffff16815260200190815260200160002060006101000a81548160ff02191690831515021790555060056000838152602001908152602001600020339080600181540180825580915050600190039060005260206000200160009091909190916101000a81548173ffffffffffffffffffffffffffffffffffffffff021916908373ffffffffffffffffffffffffffffffffffffffff1602179055506000600360009054906101000a900473ffffffffffffffffffffffffffffffffffffffff1673ffffffffffffffffffffffffffffffffffffffff1663241d79e1336040518263ffffffff1660e01b8152600401610d929190611ae7565b6020604051808303816000875af1158015610db1573d6000803e3d6000fd5b505050506040513d601f19601f82011682018060405250810190610dd591906125d3565b90503373ffffffffffffffffffffffffffffffffffffffff16837f094f80829c509370abb2d421a078ba5926755d3de25d021dacf7bbd19853f7a284604051610e1e9190612600565b60405180910390a33373ffffffffffffffffffffffffffffffffffffffff167f8c4b0bd0847d940a8f64327b75ae300814f43d12e16f2f0b6da686d784f00beb82604051610e6c91906115a6565b60405180910390a2505050565b6004602052806000526040600020600091509050806000015490806001018054610ea290611e7a565b80601f0160208091040260200160405190810160405280929190818152602001828054610ece90611e7a565b8015610f1b5780601f10610ef057610100808354040283529160200191610f1b565b820191906000526020600020905b815481529060010190602001808311610efe57829003601f168201915b505050505090806002015490806003015490806004015490806005015490806006018054610f4890611e7a565b80601f0160208091040260200160405190810160405280929190818152602001828054610f7490611e7a565b8015610fc15780601f10610f9657610100808354040283529160200191610fc1565b820191906000526020600020905b815481529060010190602001808311610fa457829003601f168201915b505050505090806007018054610fd690611e7a565b80601f016020809104026020016040519081016040528092919081815260200182805461100290611e7a565b801561104f5780601f106110245761010080835404028352916020019161104f565b820191906000526020600020905b81548152906001019060200180831161103257829003601f168201915b5050505050908060080160009054906101000a900460ff16905089565b6005602052816000526040600020818154811061108857600080fd5b906000526020600020016000915091509054906101000a900473ffffffffffffffffffffffffffffffffffffffff1681565b6110c261143a565b6004600082815260200190815260200160002060080160009054906101000a900460ff16611125576040517f08c379a000000000000000000000000000000000000000000000000000000000815260040161111c90612667565b60405180910390fd5b6004600082815260200190815260200160002060030154421161117d576040517f08c379a0000000000000000000000000000000000000000000000000000000008152600401611174906126d3565b60405180910390fd5b60006004600083815260200190815260200160002060080160006101000a81548160ff021916908315150217905550600260009054906101000a900473ffffffffffffffffffffffffffffffffffffffff1673ffffffffffffffffffffffffffffffffffffffff16635c9d4831308360006040518463ffffffff1660e01b815260040161120c939291906126f3565b600060405180830381600087803b15801561122657600080fd5b505af115801561123a573d6000803e3d6000fd5b5050505050565b600260009054906101000a900473ffffffffffffffffffffffffffffffffffffffff1681565b600080600090505b6001548110156112db576004600082815260200190815260200160002060080160009054906101000a900460ff1680156112bf575060046000828152602001908152602001600020600301544211155b156112ce5760019150506112e1565b808060010191505061126f565b50600090505b90565b6000806000600154841061132d576040517f08c379a000000000000000000000000000000000000000000000000000000000815260040161132490611e2b565b60405180910390fd5b6004600085815260200190815260200160002060040154915060046000858152602001908152602001600020600501549050808211156113705760019250611387565b818111156113815760029250611386565b600092505b5b9193909250565b600360009054906101000a900473ffffffffffffffffffffffffffffffffffffffff1681565b6113bc61143a565b600073ffffffffffffffffffffffffffffffffffffffff168173ffffffffffffffffffffffffffffffffffffffff160361142e5760006040517f1e4fbdf70000000000000000000000000000000000000000000000000000000081526004016114259190611ae7565b60405180910390fd5b611437816114c1565b50565b611442611585565b73ffffffffffffffffffffffffffffffffffffffff16611460610972565b73ffffffffffffffffffffffffffffffffffffffff16146114bf57611483611585565b6040517f118cdaa70000000000000000000000000000000000000000000000000000000081526004016114b69190611ae7565b60405180910390fd5b565b60008060009054906101000a900473ffffffffffffffffffffffffffffffffffffffff169050816000806101000a81548173ffffffffffffffffffffffffffffffffffffffff021916908373ffffffffffffffffffffffffffffffffffffffff1602179055508173ffffffffffffffffffffffffffffffffffffffff168173ffffffffffffffffffffffffffffffffffffffff167f8be0079c531659141344cd1fd0a4f28419497f9722a3daafe3b4186f6b6457e060405160405180910390a35050565b600033905090565b6000819050919050565b6115a08161158d565b82525050565b60006020820190506115bb6000830184611597565b92915050565b60008115159050919050565b6115d6816115c1565b82525050565b60006020820190506115f160008301846115cd565b92915050565b6000604051905090565b600080fd5b600080fd5b6116148161158d565b811461161f57600080fd5b50565b6000813590506116318161160b565b92915050565b60006020828403121561164d5761164c611601565b5b600061165b84828501611622565b91505092915050565b600081519050919050565b600082825260208201905092915050565b60005b8381101561169e578082015181840152602081019050611683565b60008484015250505050565b6000601f19601f8301169050919050565b60006116c682611664565b6116d0818561166f565b93506116e0818560208601611680565b6116e9816116aa565b840191505092915050565b600060c082019050818103600083015261170e81896116bb565b905061171d6020830188611597565b61172a6040830187611597565b818103606083015261173c81866116bb565b9050818103608083015261175081856116bb565b905061175f60a08301846115cd565b979650505050505050565b600073ffffffffffffffffffffffffffffffffffffffff82169050919050565b60006117958261176a565b9050919050565b6117a58161178a565b81146117b057600080fd5b50565b6000813590506117c28161179c565b92915050565b600080604083850312156117df576117de611601565b5b60006117ed85828601611622565b92505060206117fe858286016117b3565b9150509250929050565b600081519050919050565b600082825260208201905092915050565b6000819050602082019050919050565b61183d8161178a565b82525050565b600061184f8383611834565b60208301905092915050565b6000602082019050919050565b600061187382611808565b61187d8185611813565b935061188883611824565b8060005b838110156118b95781516118a08882611843565b97506118ab8361185b565b92505060018101905061188c565b5085935050505092915050565b600060208201905081810360008301526118e08184611868565b905092915050565b600080fd5b600080fd5b7f4e487b7100000000000000000000000000000000000000000000000000000000600052604160045260246000fd5b61192a826116aa565b810181811067ffffffffffffffff82111715611949576119486118f2565b5b80604052505050565b600061195c6115f7565b90506119688282611921565b919050565b600067ffffffffffffffff821115611988576119876118f2565b5b611991826116aa565b9050602081019050919050565b82818337600083830152505050565b60006119c06119bb8461196d565b611952565b9050828152602081018484840111156119dc576119db6118ed565b5b6119e784828561199e565b509392505050565b600082601f830112611a0457611a036118e8565b5b8135611a148482602086016119ad565b91505092915050565b60008060008060808587031215611a3757611a36611601565b5b600085013567ffffffffffffffff811115611a5557611a54611606565b5b611a61878288016119ef565b9450506020611a7287828801611622565b935050604085013567ffffffffffffffff811115611a9357611a92611606565b5b611a9f878288016119ef565b925050606085013567ffffffffffffffff811115611ac057611abf611606565b5b611acc878288016119ef565b91505092959194509250565b611ae18161178a565b82525050565b6000602082019050611afc6000830184611ad8565b92915050565b600060ff82169050919050565b611b1881611b02565b8114611b2357600080fd5b50565b600081359050611b3581611b0f565b92915050565b60008060408385031215611b5257611b51611601565b5b6000611b6085828601611622565b9250506020611b7185828601611b26565b9150509250929050565b600061012082019050611b91600083018c611597565b8181036020830152611ba3818b6116bb565b9050611bb2604083018a611597565b611bbf6060830189611597565b611bcc6080830188611597565b611bd960a0830187611597565b81810360c0830152611beb81866116bb565b905081810360e0830152611bff81856116bb565b9050611c0f6101008301846115cd565b9a9950505050505050505050565b60008060408385031215611c3457611c33611601565b5b6000611c4285828601611622565b9250506020611c5385828601611622565b9150509250929050565b6000819050919050565b6000611c82611c7d611c788461176a565b611c5d565b61176a565b9050919050565b6000611c9482611c67565b9050919050565b6000611ca682611c89565b9050919050565b611cb681611c9b565b82525050565b6000602082019050611cd16000830184611cad565b92915050565b611ce081611b02565b82525050565b6000606082019050611cfb6000830186611cd7565b611d086020830185611597565b611d156040830184611597565b949350505050565b6000611d2882611c89565b9050919050565b611d3881611d1d565b82525050565b6000602082019050611d536000830184611d2f565b92915050565b600060208284031215611d6f57611d6e611601565b5b6000611d7d848285016117b3565b91505092915050565b611d8f816115c1565b8114611d9a57600080fd5b50565b600081519050611dac81611d86565b92915050565b600060208284031215611dc857611dc7611601565b5b6000611dd684828501611d9d565b91505092915050565b7f496e76616c696420766f74696e67204944000000000000000000000000000000600082015250565b6000611e1560118361166f565b9150611e2082611ddf565b602082019050919050565b60006020820190508181036000830152611e4481611e08565b9050919050565b7f4e487b7100000000000000000000000000000000000000000000000000000000600052602260045260246000fd5b60006002820490506001821680611e9257607f821691505b602082108103611ea557611ea4611e4b565b5b50919050565b7f41637469766520766f74696e6720657869737473000000000000000000000000600082015250565b6000611ee160148361166f565b9150611eec82611eab565b602082019050919050565b60006020820190508181036000830152611f1081611ed4565b9050919050565b7f4e487b7100000000000000000000000000000000000000000000000000000000600052601160045260246000fd5b6000611f518261158d565b9150611f5c8361158d565b9250828202611f6a8161158d565b91508282048414831517611f8157611f80611f17565b5b5092915050565b6000611f938261158d565b9150611f9e8361158d565b9250828201905080821115611fb657611fb5611f17565b5b92915050565b60008190508160005260206000209050919050565b60006020601f8301049050919050565b600082821b905092915050565b60006008830261201e7fffffffffffffffffffffffffffffffffffffffffffffffffffffffffffffffff82611fe1565b6120288683611fe1565b95508019841693508086168417925050509392505050565b600061205b6120566120518461158d565b611c5d565b61158d565b9050919050565b6000819050919050565b61207583612040565b61208961208182612062565b848454611fee565b825550505050565b600090565b61209e612091565b6120a981848461206c565b505050565b5b818110156120cd576120c2600082612096565b6001810190506120af565b5050565b601f821115612112576120e381611fbc565b6120ec84611fd1565b810160208510156120fb578190505b61210f61210785611fd1565b8301826120ae565b50505b505050565b600082821c905092915050565b600061213560001984600802612117565b1980831691505092915050565b600061214e8383612124565b9150826002028217905092915050565b61216782611664565b67ffffffffffffffff8111156121805761217f6118f2565b5b61218a8254611e7a565b6121958282856120d1565b600060209050601f8311600181146121c857600084156121b6578287015190505b6121c08582612142565b865550612228565b601f1984166121d686611fbc565b60005b828110156121fe578489015182556001820191506020850194506020810190506121d9565b8683101561221b5784890151612217601f891682612124565b8355505b6001600288020188555050505b505050505050565b600060a0820190506122456000830188611ad8565b6122526020830187611597565b818103604083015261226481866116bb565b90506122736060830185611597565b6122806080830184611597565b9695505050505050565b600060608201905081810360008301526122a481866116bb565b90506122b36020830185611597565b6122c06040830184611597565b949350505050565b7f436f6e7472616374206e6f74207265676973746572656420696e20726567697360008201527f7472790000000000000000000000000000000000000000000000000000000000602082015250565b600061232460238361166f565b915061232f826122c8565b604082019050919050565b6000602082019050818103600083015261235381612317565b9050919050565b7f566f74696e67206973206e6f7420616374697665000000000000000000000000600082015250565b600061239060148361166f565b915061239b8261235a565b602082019050919050565b600060208201905081810360008301526123bf81612383565b9050919050565b7f566f74696e67206e6f7420737461727465640000000000000000000000000000600082015250565b60006123fc60128361166f565b9150612407826123c6565b602082019050919050565b6000602082019050818103600083015261242b816123ef565b9050919050565b7f566f74696e6720656e6465640000000000000000000000000000000000000000600082015250565b6000612468600c8361166f565b915061247382612432565b602082019050919050565b600060208201905081810360008301526124978161245b565b9050919050565b7f416c726561647920766f74656400000000000000000000000000000000000000600082015250565b60006124d4600d8361166f565b91506124df8261249e565b602082019050919050565b60006020820190508181036000830152612503816124c7565b9050919050565b7f496e76616c6964206f7074696f6e000000000000000000000000000000000000600082015250565b6000612540600e8361166f565b915061254b8261250a565b602082019050919050565b6000602082019050818103600083015261256f81612533565b9050919050565b60006125818261158d565b91507fffffffffffffffffffffffffffffffffffffffffffffffffffffffffffffffff82036125b3576125b2611f17565b5b600182019050919050565b6000815190506125cd8161160b565b92915050565b6000602082840312156125e9576125e8611601565b5b60006125f7848285016125be565b91505092915050565b60006020820190506126156000830184611cd7565b92915050565b7f566f74696e67206e6f7420616374697665000000000000000000000000000000600082015250565b600061265160118361166f565b915061265c8261261b565b602082019050919050565b6000602082019050818103600083015261268081612644565b9050919050565b7f566f74696e67207374696c6c2061637469766500000000000000000000000000600082015250565b60006126bd60138361166f565b91506126c882612687565b602082019050919050565b600060208201905081810360008301526126ec816126b0565b9050919050565b60006060820190506127086000830186611ad8565b6127156020830185611597565b61272260408301846115cd565b94935050505056fea2646970667358221220b3199e00cf849f479acdd0cecd25234649ca2ea44fc563d0236aa9d1da0b81bb64736f6c63430008180033",
  "linkReferences": {},
  "deployedLinkReferences": {}
}