{
  "_format": "hh-sol-artifact-1",
  "contractName": "VotingContract",
  "sourceName": "contracts/VotingContract.sol",
  "abi": [
    {
      "inputs": [
        {
          "internalType": "address",
          "name": "_votingTokenAddress",
          "type": "address"
        },
        {
          "internalType": "uint256",
          "name": "_initialMinimumVotingBalance",
          "type": "uint256"
        },
        {
          "internalType": "address",
          "name": "_votingRegistry",
          "type": "address"
        }
      ],
      "stateMutability": "nonpayable",
      "type": "constructor"
    },
    {
      "inputs": [],
      "name": "ActiveVotingAlreadyExists",
      "type": "error"
    },
    {
      "inputs": [],
      "name": "AlreadyVoted",
      "type": "error"
    },
    {
      "inputs": [],
      "name": "ContractNotRegistered",
      "type": "error"
    },
    {
      "inputs": [],
      "name": "InsufficientVotingTokenBalance",
      "type": "error"
    },
    {
      "inputs": [],
      "name": "InvalidVotingDataEndTime",
      "type": "error"
    },
    {
      "inputs": [],
      "name": "InvalidVotingIndex",
      "type": "error"
    },
    {
      "inputs": [],
      "name": "InvalidVotingVariantIndex",
      "type": "error"
    },
    {
      "inputs": [],
      "name": "NoActiveVoting",
      "type": "error"
    },
    {
      "inputs": [
        {
          "internalType": "address",
          "name": "owner",
          "type": "address"
        }
      ],
      "name": "OwnableInvalidOwner",
      "type": "error"
    },
    {
      "inputs": [
        {
          "internalType": "address",
          "name": "account",
          "type": "address"
        }
      ],
      "name": "OwnableUnauthorizedAccount",
      "type": "error"
    },
    {
      "inputs": [],
      "name": "VotingNotActive",
      "type": "error"
    },
    {
      "anonymous": false,
      "inputs": [
        {
          "indexed": true,
          "internalType": "address",
          "name": "previousOwner",
          "type": "address"
        },
        {
          "indexed": true,
          "internalType": "address",
          "name": "newOwner",
          "type": "address"
        }
      ],
      "name": "OwnershipTransferred",
      "type": "event"
    },
    {
      "inputs": [],
      "name": "activeVoting",
      "outputs": [
        {
          "components": [
            {
              "internalType": "uint256",
              "name": "id",
              "type": "uint256"
            },
            {
              "internalType": "uint8",
              "name": "variantsCount",
              "type": "uint8"
            },
            {
              "internalType": "string",
              "name": "title",
              "type": "string"
            },
            {
              "internalType": "string",
              "name": "description",
              "type": "string"
            },
            {
              "internalType": "uint256",
              "name": "startTime",
              "type": "uint256"
            },
            {
              "internalType": "uint256",
              "name": "endTime",
              "type": "uint256"
            }
          ],
          "internalType": "struct VotingContract.Voting",
          "name": "",
          "type": "tuple"
        }
      ],
      "stateMutability": "view",
      "type": "function"
    },
    {
      "inputs": [],
      "name": "activeVotingVariants",
      "outputs": [
        {
          "components": [
            {
              "internalType": "uint256",
              "name": "id",
              "type": "uint256"
            },
            {
              "internalType": "string",
              "name": "title",
              "type": "string"
            }
          ],
          "internalType": "struct VotingContract.VotingVariant[]",
          "name": "",
          "type": "tuple[]"
        }
      ],
      "stateMutability": "view",
      "type": "function"
    },
    {
      "inputs": [
        {
          "internalType": "string",
          "name": "_title",
          "type": "string"
        },
        {
          "internalType": "string",
          "name": "_description",
          "type": "string"
        },
        {
          "internalType": "string[]",
          "name": "_variants",
          "type": "string[]"
        },
        {
          "internalType": "uint256",
          "name": "_endTime",
          "type": "uint256"
        }
      ],
      "name": "addVoting",
      "outputs": [],
      "stateMutability": "nonpayable",
      "type": "function"
    },
    {
      "inputs": [
        {
          "internalType": "uint256",
          "name": "votingId",
          "type": "uint256"
        }
      ],
      "name": "getVotingOutcome",
      "outputs": [
        {
          "components": [
            {
              "internalType": "uint256",
              "name": "id",
              "type": "uint256"
            },
            {
              "internalType": "string",
              "name": "title",
              "type": "string"
            }
          ],
          "internalType": "struct VotingContract.VotingVariant",
          "name": "",
          "type": "tuple"
        }
      ],
      "stateMutability": "view",
      "type": "function"
    },
    {
      "inputs": [],
      "name": "minimumVotingBalance",
      "outputs": [
        {
          "internalType": "uint256",
          "name": "",
          "type": "uint256"
        }
      ],
      "stateMutability": "view",
      "type": "function"
    },
    {
      "inputs": [],
      "name": "owner",
      "outputs": [
        {
          "internalType": "address",
          "name": "",
          "type": "address"
        }
      ],
      "stateMutability": "view",
      "type": "function"
    },
    {
      "inputs": [],
      "name": "renounceOwnership",
      "outputs": [],
      "stateMutability": "nonpayable",
      "type": "function"
    },
    {
      "inputs": [
        {
          "internalType": "uint256",
          "name": "_minimumVotingBalance",
          "type": "uint256"
        }
      ],
      "name": "setMinimumVotingBalance",
      "outputs": [],
      "stateMutability": "nonpayable",
      "type": "function"
    },
    {
      "inputs": [
        {
          "internalType": "address",
          "name": "newOwner",
          "type": "address"
        }
      ],
      "name": "transferOwnership",
      "outputs": [],
      "stateMutability": "nonpayable",
      "type": "function"
    },
    {
      "inputs": [
        {
          "internalType": "uint256",
          "name": "votingId",
          "type": "uint256"
        },
        {
          "internalType": "uint8",
          "name": "variantId",
          "type": "uint8"
        }
      ],
      "name": "vote",
      "outputs": [],
      "stateMutability": "nonpayable",
      "type": "function"
    },
    {
      "inputs": [
        {
          "internalType": "uint256",
          "name": "",
          "type": "uint256"
        },
        {
          "internalType": "address",
          "name": "",
          "type": "address"
        }
      ],
      "name": "voted",
      "outputs": [
        {
          "internalType": "bool",
          "name": "",
          "type": "bool"
        }
      ],
      "stateMutability": "view",
      "type": "function"
    },
    {
      "inputs": [
        {
          "internalType": "uint256",
          "name": "",
          "type": "uint256"
        },
        {
          "internalType": "uint8",
          "name": "",
          "type": "uint8"
        }
      ],
      "name": "votes",
      "outputs": [
        {
          "internalType": "uint256",
          "name": "",
          "type": "uint256"
        }
      ],
      "stateMutability": "view",
      "type": "function"
    },
    {
      "inputs": [],
      "name": "votingRegistry",
      "outputs": [
        {
          "internalType": "contract VotingRegistry",
          "name": "",
          "type": "address"
        }
      ],
      "stateMutability": "view",
      "type": "function"
    },
    {
      "inputs": [],
      "name": "votingToken",
      "outputs": [
        {
          "internalType": "contract ERC20VotingToken",
          "name": "",
          "type": "address"
        }
      ],
      "stateMutability": "view",
      "type": "function"
    },
    {
      "inputs": [
        {
          "internalType": "uint256",
          "name": "",
          "type": "uint256"
        },
        {
          "internalType": "uint256",
          "name": "",
          "type": "uint256"
        }
      ],
      "name": "votingVariants",
      "outputs": [
        {
          "internalType": "uint256",
          "name": "id",
          "type": "uint256"
        },
        {
          "internalType": "string",
          "name": "title",
          "type": "string"
        }
      ],
      "stateMutability": "view",
      "type": "function"
    },
    {
      "inputs": [
        {
          "internalType": "uint256",
          "name": "",
          "type": "uint256"
        }
      ],
      "name": "votings",
      "outputs": [
        {
          "internalType": "uint256",
          "name": "id",
          "type": "uint256"
        },
        {
          "internalType": "uint8",
          "name": "variantsCount",
          "type": "uint8"
        },
        {
          "internalType": "string",
          "name": "title",
          "type": "string"
        },
        {
          "internalType": "string",
          "name": "description",
          "type": "string"
        },
        {
          "internalType": "uint256",
          "name": "startTime",
          "type": "uint256"
        },
        {
          "internalType": "uint256",
          "name": "endTime",
          "type": "uint256"
        }
      ],
      "stateMutability": "view",
      "type": "function"
    },
    {
      "inputs": [],
      "name": "votingsCount",
      "outputs": [
        {
          "internalType": "uint256",
          "name": "",
          "type": "uint256"
        }
      ],
      "stateMutability": "view",
      "type": "function"
    }
  ],
  "bytecode": "0x608060405260006008553480156200001657600080fd5b50604051620016ee380380620016ee833981016040819052620000399162000111565b33806200006057604051631e4fbdf760e01b81526000600482015260240160405180910390fd5b6200006b81620000a4565b50600280546001600160a01b039485166001600160a01b0319918216179091556001929092556003805491909316911617905562000152565b600080546001600160a01b038381166001600160a01b0319831681178455604051919092169283917f8be0079c531659141344cd1fd0a4f28419497f9722a3daafe3b4186f6b6457e09190a35050565b80516001600160a01b03811681146200010c57600080fd5b919050565b6000806000606084860312156200012757600080fd5b6200013284620000f4565b9250602084015191506200014960408501620000f4565b90509250925092565b61158c80620001626000396000f3fe608060405234801561001057600080fd5b506004361061010b5760003560e01c806384d9ea49116100a2578063a598d03c11610071578063a598d03c14610246578063b03401231461026b578063c1738ef81461027e578063f2fde38b14610291578063ff8e8dfa146102a457600080fd5b806384d9ea49146101da5780638da5cb5b146101fb578063943e821614610220578063a4052cf11461023357600080fd5b80636b33ff50116100de5780636b33ff50146101885780636bffbb3e146101a8578063715018a6146101bd578063804ff8bb146101c757600080fd5b806317ce7f7d14610110578063211fcf191461012c5780635277b4ae1461013557806355b2636d14610173575b600080fd5b61011960015481565b6040519081526020015b60405180910390f35b61011960085481565b610163610143366004610f34565b600660209081526000928352604080842090915290825290205460ff1681565b6040519015158152602001610123565b61017b6102cf565b6040516101239190610fa6565b61019b610196366004611017565b610470565b6040516101239190611057565b6101b06105e6565b6040516101239190611071565b6101c56106fa565b005b6101c56101d5366004611017565b61070e565b6101ed6101e83660046110d5565b61071b565b6040516101239291906110f7565b6000546001600160a01b03165b6040516001600160a01b039091168152602001610123565b6101c561022e366004611110565b6107e4565b6101c56102413660046111fd565b610a01565b610259610254366004611017565b610ca0565b6040516101239695949392919061130d565b600254610208906001600160a01b031681565b600354610208906001600160a01b031681565b6101c561029f366004611357565b610de9565b6101196102b2366004611110565b600760209081526000928352604080842090915290825290205481565b61030b6040518060c0016040528060008152602001600060ff168152602001606081526020016060815260200160008152602001600081525090565b610313610e2c565b6040805160c08101825282548152600183015460ff16602082015260028301805491939284019161034390611372565b80601f016020809104026020016040519081016040528092919081815260200182805461036f90611372565b80156103bc5780601f10610391576101008083540402835291602001916103bc565b820191906000526020600020905b81548152906001019060200180831161039f57829003601f168201915b505050505081526020016003820180546103d590611372565b80601f016020809104026020016040519081016040528092919081815260200182805461040190611372565b801561044e5780601f106104235761010080835404028352916020019161044e565b820191906000526020600020905b81548152906001019060200180831161043157829003601f168201915b5050505050815260200160048201548152602001600582015481525050905090565b60408051808201909152600081526060602082015260085482106104a75760405163645cd44b60e11b815260040160405180910390fd5b600082815260046020526040812090805b600183015460ff908116908216101561050457600085815260076020908152604080832060ff868116855292528083205491841683529091205411156104fc578091505b6001016104b8565b506000848152600560205260409020805460ff8316908110610528576105286113ac565b90600052602060002090600202016040518060400160405290816000820154815260200160018201805461055b90611372565b80601f016020809104026020016040519081016040528092919081815260200182805461058790611372565b80156105d45780601f106105a9576101008083540402835291602001916105d4565b820191906000526020600020905b8154815290600101906020018083116105b757829003601f168201915b50505050508152505092505050919050565b606060006105f2610e2c565b80546000908152600560209081526040808320805482518185028101850190935280835294955090939092909184015b828210156106f057838290600052602060002090600202016040518060400160405290816000820154815260200160018201805461065f90611372565b80601f016020809104026020016040519081016040528092919081815260200182805461068b90611372565b80156106d85780601f106106ad576101008083540402835291602001916106d8565b820191906000526020600020905b8154815290600101906020018083116106bb57829003601f168201915b50505050508152505081526020019060010190610622565b5050505091505090565b610702610ea0565b61070c6000610ecd565b565b610716610ea0565b600155565b6005602052816000526040600020818154811061073757600080fd5b90600052602060002090600202016000915091505080600001549080600101805461076190611372565b80601f016020809104026020016040519081016040528092919081815260200182805461078d90611372565b80156107da5780601f106107af576101008083540402835291602001916107da565b820191906000526020600020905b8154815290600101906020018083116107bd57829003601f168201915b5050505050905082565b600354604051633d2b4aff60e11b81523060048201526001600160a01b0390911690637a5695fe90602401602060405180830381865afa15801561082c573d6000803e3d6000fd5b505050506040513d601f19601f8201168201806040525081019061085091906113c2565b61086d57604051639ada36a160e01b815260040160405180910390fd5b60085460000361089057604051639b8cc47560e01b815260040160405180910390fd5b600061089a610e2c565b805490915083146108be57604051639b8cc47560e01b815260040160405180910390fd5b600181015460ff908116908316106108e957604051632dd073a760e11b815260040160405180910390fd5b600083815260066020908152604080832033845290915290205460ff161561092457604051637c9a1cf960e01b815260040160405180910390fd5b6001546002546040516370a0823160e01b81523360048201526001600160a01b03909116906370a0823190602401602060405180830381865afa15801561096f573d6000803e3d6000fd5b505050506040513d601f19601f8201168201806040525081019061099391906113e4565b10156109b257604051635863550160e11b815260040160405180910390fd5b60008381526006602090815260408083203384528252808320805460ff191660011790558583526007825280832060ff8616845290915281208054916109f783611413565b9190505550505050565b610a09610ea0565b600354604051633d2b4aff60e11b81523060048201526001600160a01b0390911690637a5695fe90602401602060405180830381865afa158015610a51573d6000803e3d6000fd5b505050506040513d601f19601f82011682018060405250810190610a7591906113c2565b610a9257604051639ada36a160e01b815260040160405180910390fd5b6000600854118015610ac7575042600460006001600854610ab3919061142c565b815260200190815260200160002060050154115b15610ae55760405163047ceaa960e31b815260040160405180910390fd5b42811015610b0657604051639de1f44960e01b815260040160405180910390fd5b62069780610b14428361142c565b1015610b3357604051639de1f44960e01b815260040160405180910390fd5b6008546000818152600460205260409020908155825160018201805460ff191660ff90921691909117905560028101610b6c8682611496565b5060038101610b7b8582611496565b504260048201556005810182905560005b8351811015610c1a576005600060085481526020019081526020016000206040518060400160405280838152602001868481518110610bcd57610bcd6113ac565b6020908102919091018101519091528254600181810185556000948552938290208351600290920201908155908201519192909190820190610c0f9082611496565b505050600101610b8c565b506003546008546040516360649f1360e11b815230600482015260248101919091526001600160a01b039091169063c0c93e2690604401600060405180830381600087803b158015610c6b57600080fd5b505af1158015610c7f573d6000803e3d6000fd5b505060088054925090506000610c9483611413565b91905055505050505050565b600460205260009081526040902080546001820154600283018054929360ff90921692610ccc90611372565b80601f0160208091040260200160405190810160405280929190818152602001828054610cf890611372565b8015610d455780601f10610d1a57610100808354040283529160200191610d45565b820191906000526020600020905b815481529060010190602001808311610d2857829003601f168201915b505050505090806003018054610d5a90611372565b80601f0160208091040260200160405190810160405280929190818152602001828054610d8690611372565b8015610dd35780601f10610da857610100808354040283529160200191610dd3565b820191906000526020600020905b815481529060010190602001808311610db657829003601f168201915b5050505050908060040154908060050154905086565b610df1610ea0565b6001600160a01b038116610e2057604051631e4fbdf760e01b8152600060048201526024015b60405180910390fd5b610e2981610ecd565b50565b6000600854600003610e5157604051630f464d1f60e41b815260040160405180910390fd5b6000600460006001600854610e66919061142c565b815260200190815260200160002090504281600501541015610e9b57604051630f464d1f60e41b815260040160405180910390fd5b919050565b6000546001600160a01b0316331461070c5760405163118cdaa760e01b8152336004820152602401610e17565b600080546001600160a01b038381166001600160a01b0319831681178455604051919092169283917f8be0079c531659141344cd1fd0a4f28419497f9722a3daafe3b4186f6b6457e09190a35050565b80356001600160a01b0381168114610e9b57600080fd5b60008060408385031215610f4757600080fd5b82359150610f5760208401610f1d565b90509250929050565b6000815180845260005b81811015610f8657602081850181015186830182015201610f6a565b506000602082860101526020601f19601f83011685010191505092915050565b602081528151602082015260ff60208301511660408201526000604083015160c06060840152610fd960e0840182610f60565b90506060840151601f19848303016080850152610ff68282610f60565b915050608084015160a084015260a084015160c08401528091505092915050565b60006020828403121561102957600080fd5b5035919050565b80518252600060208201516040602085015261104f6040850182610f60565b949350505050565b60208152600061106a6020830184611030565b9392505050565b600060208083016020845280855180835260408601915060408160051b87010192506020870160005b828110156110c857603f198886030184526110b6858351611030565b9450928501929085019060010161109a565b5092979650505050505050565b600080604083850312156110e857600080fd5b50508035926020909101359150565b82815260406020820152600061104f6040830184610f60565b6000806040838503121561112357600080fd5b82359150602083013560ff8116811461113b57600080fd5b809150509250929050565b634e487b7160e01b600052604160045260246000fd5b604051601f8201601f1916810167ffffffffffffffff8111828210171561118557611185611146565b604052919050565b600082601f83011261119e57600080fd5b813567ffffffffffffffff8111156111b8576111b8611146565b6111cb601f8201601f191660200161115c565b8181528460208386010111156111e057600080fd5b816020850160208301376000918101602001919091529392505050565b6000806000806080858703121561121357600080fd5b843567ffffffffffffffff8082111561122b57600080fd5b6112378883890161118d565b955060209150818701358181111561124e57600080fd5b61125a89828a0161118d565b95505060408701358181111561126f57600080fd5b8701601f8101891361128057600080fd5b80358281111561129257611292611146565b8060051b6112a185820161115c565b918252828101850191858101908c8411156112bb57600080fd5b86850192505b838310156112f7578235868111156112d95760008081fd5b6112e78e898389010161118d565b83525091860191908601906112c1565b999c989b50989960600135985050505050505050565b86815260ff8616602082015260c06040820152600061132f60c0830187610f60565b82810360608401526113418187610f60565b6080840195909552505060a00152949350505050565b60006020828403121561136957600080fd5b61106a82610f1d565b600181811c9082168061138657607f821691505b6020821081036113a657634e487b7160e01b600052602260045260246000fd5b50919050565b634e487b7160e01b600052603260045260246000fd5b6000602082840312156113d457600080fd5b8151801515811461106a57600080fd5b6000602082840312156113f657600080fd5b5051919050565b634e487b7160e01b600052601160045260246000fd5b600060018201611425576114256113fd565b5060010190565b8181038181111561143f5761143f6113fd565b92915050565b601f821115611491576000816000526020600020601f850160051c8101602086101561146e5750805b601f850160051c820191505b8181101561148d5782815560010161147a565b5050505b505050565b815167ffffffffffffffff8111156114b0576114b0611146565b6114c4816114be8454611372565b84611445565b602080601f8311600181146114f957600084156114e15750858301515b600019600386901b1c1916600185901b17855561148d565b600085815260208120601f198616915b8281101561152857888601518255948401946001909101908401611509565b50858210156115465787850151600019600388901b60f8161c191681555b5050505050600190811b0190555056fea264697066735822122059a77e4b7c9f9612ae63b9fff71125a8d65c5f32597c7e36493344e9a3a623db64736f6c63430008180033",
  "linkReferences": {},
  "deployedLinkReferences": {}
}