{
  "_format": "hh-sol-artifact-1",
  "contractName": "ERC20VotingTokenMarketplace",
  "sourceName": "contracts/ERC20VotingTokenMarketplace.sol",
  "abi": [
    {
      "inputs": [
        {
          "internalType": "address",
          "name": "_votingTokenAddress",
          "type": "address"
        },
        {
          "internalType": "uint256",
          "name": "_initialPrice",
          "type": "uint256"
        }
      ],
      "stateMutability": "nonpayable",
      "type": "constructor"
    },
    {
      "inputs": [],
      "name": "InsufficientTokenBalance",
      "type": "error"
    },
    {
      "inputs": [
        {
          "internalType": "uint256",
          "name": "actualValue",
          "type": "uint256"
        },
        {
          "internalType": "uint256",
          "name": "requiredValue",
          "type": "uint256"
        }
      ],
      "name": "InsufficientValue",
      "type": "error"
    },
    {
      "inputs": [],
      "name": "MarketplaceInsufficientBalance",
      "type": "error"
    },
    {
      "stateMutability": "payable",
      "type": "fallback"
    },
    {
      "inputs": [
        {
          "internalType": "uint256",
          "name": "amount",
          "type": "uint256"
        }
      ],
      "name": "purchaseTokens",
      "outputs": [],
      "stateMutability": "payable",
      "type": "function"
    },
    {
      "inputs": [
        {
          "internalType": "uint256",
          "name": "amount",
          "type": "uint256"
        }
      ],
      "name": "sellTokens",
      "outputs": [],
      "stateMutability": "nonpayable",
      "type": "function"
    },
    {
      "inputs": [],
      "name": "votingToken",
      "outputs": [
        {
          "internalType": "contract ERC20VotingToken",
          "name": "",
          "type": "address"
        }
      ],
      "stateMutability": "view",
      "type": "function"
    },
    {
      "inputs": [],
      "name": "votingTokenPrice",
      "outputs": [
        {
          "internalType": "uint256",
          "name": "",
          "type": "uint256"
        }
      ],
      "stateMutability": "view",
      "type": "function"
    },
    {
      "stateMutability": "payable",
      "type": "receive"
    }
  ],
  "bytecode": "0x608060405234801561001057600080fd5b506040516105eb3803806105eb83398101604081905261002f916100d4565b600080546001600160a01b0319166001600160a01b0384169081179091556040805163313ce56760e01b8152905163313ce567916004808201926020929091908290030181865afa158015610088573d6000803e3d6000fd5b505050506040513d601f19601f820116820180604052508101906100ac919061010e565b6000805460ff92909216600160a01b0260ff60a01b1990921691909117905560015550610138565b600080604083850312156100e757600080fd5b82516001600160a01b03811681146100fe57600080fd5b6020939093015192949293505050565b60006020828403121561012057600080fd5b815160ff8116811461013157600080fd5b9392505050565b6104a4806101476000396000f3fe6080604052600436106100405760003560e01c806340fcc913146100495780636c11bcd3146100725780637b97008d14610092578063b0340123146100a557005b3661004757005b005b34801561005557600080fd5b5061005f60015481565b6040519081526020015b60405180910390f35b34801561007e57600080fd5b5061004761008d3660046102f1565b6100dd565b6100476100a03660046102f1565b610229565b3480156100b157600080fd5b506000546100c5906001600160a01b031681565b6040516001600160a01b039091168152602001610069565b6001546000906100ef6012600a610406565b6100f9908461041c565b6101039190610433565b6000546040516370a0823160e01b815233600482015291925083916001600160a01b03909116906370a0823190602401602060405180830381865afa158015610150573d6000803e3d6000fd5b505050506040513d601f19601f820116820180604052508101906101749190610455565b101561019357604051637222ae5760e11b815260040160405180910390fd5b600054604051632770a7eb60e21b8152336004820152602481018490526001600160a01b0390911690639dc29fac90604401600060405180830381600087803b1580156101df57600080fd5b505af11580156101f3573d6000803e3d6000fd5b505060405133925083156108fc02915083906000818181858888f19350505050158015610224573d6000803e3d6000fd5b505050565b6000805461024290600160a01b900460ff16600a610406565b60015461024f908461041c565b6102599190610433565b90508034101561028957604051631c102d6360e21b81523460048201526024810182905260440160405180910390fd5b6000546040516340c10f1960e01b8152336004820152602481018490526001600160a01b03909116906340c10f1990604401600060405180830381600087803b1580156102d557600080fd5b505af11580156102e9573d6000803e3d6000fd5b505050505050565b60006020828403121561030357600080fd5b5035919050565b634e487b7160e01b600052601160045260246000fd5b600181815b8085111561035b5781600019048211156103415761034161030a565b8085161561034e57918102915b93841c9390800290610325565b509250929050565b60008261037257506001610400565b8161037f57506000610400565b8160018114610395576002811461039f576103bb565b6001915050610400565b60ff8411156103b0576103b061030a565b50506001821b610400565b5060208310610133831016604e8410600b84101617156103de575081810a610400565b6103e88383610320565b80600019048211156103fc576103fc61030a565b0290505b92915050565b600061041560ff841683610363565b9392505050565b80820281158282048414176104005761040061030a565b60008261045057634e487b7160e01b600052601260045260246000fd5b500490565b60006020828403121561046757600080fd5b505191905056fea2646970667358221220cf62cefd0e46bdd520735c44e3e6965f42965055d0f6f39fe767e3e12e8de05464736f6c63430008180033",
  "linkReferences": {},
  "deployedLinkReferences": {}
}